9070150523263      2211200400TEST 0000      000000000000000000CRDX2022      001     
5600701505400020A00484009200712827107128271A00497109200510000005100000A00884009200710050308995917A01284009200872933208729253A03184009200911799409117302A0622            
5601A03194409200920000009200000A03284009200815122408285735A03682609200651282506510430A03684009200664179906636501A03697809200659825206594779A04484009200510000005100000  
5600701505400020A04884009200526590005265900A05084009200891324208909201A05184009200825997008258625A05284009200650251306502513A06084009200510000005100000A0622            
5601A06435609200510000005100000A06484009200712063407120204A06884009200614577306143678A07284009200773200007730000A07684009200620150306200164A08484009200650441406504414  
5600701505400020A09084009200612280006115300A09670209200510000005100000A09684009200673453706731423A10484009200947619009474766A10884009200935578209355782A0622            
5601A11684009200924050009240500A12403609200511512305114202A12482609200658910506585174A12484009200673496906730301A12497809200668634506682079A13284009200897456008969665  
5600701505400020A13684009200512000005120000A14484009200831140508310198A15284009200811176908111371A15684009200613633606136268A17084009200924716809247168A0622            
5601A17484009200821842908217332A18884009200818735008184969A19184009200614262406141907A19284009200741666707416667A19684009200518360605182684A20382609200735308207350341  
5600701505400020A20384009200744109207437063A20397809200741124007408682A20882609200611522106114857A20884009200614407806143351A20897809200613414606133998A0622            
5601A21484009200717658807175715A22284009200611428606114286A22684009200816382208162999A23084009200718136007179564A23284009200766666707666667A23384009200768679407683344  
5600701505400020A23882609200510000005100000A23884009200512517005124490A24284009200644000006428000A26284009200856322208563222A27084009200716736407167364A0622            
5601A28884009200787719307872600A28893609200510000005100000A29282609200510000005100000A29284009200512517005124490A32084009200612712906126807A32484009200911788309117883  
5600701505400020A32884009200847796608477966A33284009200873631108736311A34084009200740733207407332A34482609200610244506101932A34484009200612763106127507A0622            
5601A34497809200611934306118752A34884009200827929008275657A35220809200752058107518344A35284009200874646408746464A35684009200712063407120204A36084009201065240110651636  
5600701505400020A36484009201023809510238095A36584009200911805009118050A36884009200976335909763359A37684009200626132806259061A38884009200865197508651975A0622            
5601A39203609200710683407105889A39234409200753454907530173A39282609200854613708542144A39284009200868226708676133A39297809200863679708631418A39884009200821559208215109  
5600701505400020A40084009200514124305140845A40484009200868422908683293A40884009200645454506454545A41084009200975128709750235A41484009200532418105324076A0622            
5601A41784009200711363607113636A41884009201054033610502639A42284009201011695910116959A42671009200510000005100000A42684009200752584207520563A42884009200515290205152134  
5600701505400020A43084009200853475908534759A43484009200620643706206437A44084009200631122506309662A44684009200612396706123725A45084009201044793810447938A0622            
5601A45096909200620000006200000A45484009200990514509887493A45884009200621411006213447A46284009200764850807645161A47084009200525031405249057A47884009200826371308263713  
5600701505400020A48084009200722130307218804A48412409200778381207774280A48484009200757356807568935A49684009200928918409289184A49884009200756084607560846A0622            
5601A50484009200798685607986856A50884009201015810310158103A50894309200810000008100000A51284009200525980805259707A51671009200510000005100000A51684009200752584207520563  
5600701505400020A52406409200662500006625000A52435609200662500006625000A52484009200875396508751275A53284009200655865906558659A53384009200655865906558659A0622            
5601A54884009200883626008788861A55403609200692456306920123A55484009200659209906586801A55884009200727389207273892A56684009200812976108129761A57820809200665405806649787  
5600701505400020A57882609200775252507746960A57884009200794127307931308A57897809200787709207870916A58684009200832813908327709A59084009200510000005100000A0622            
5601A59884009200627700006269500A60084009200913780709137648A60484009200626946906269027A60884009200717649107176429A62484009200816382208162999A62684009200510000005100000  
5600701505400020A63484009200627472506274725A64284009201021658610214962A64294609200910000009100000A64384009200710299607100857A64684009200984359709831670A0622            
5601A65482609200510000005100000A65484009200512517005124490A67884009201043743010437430A68284009200626662406266596A69084009200772851307728513A69484009201045473810450213  
5600701505400020A69492509200810000008100000A70203609200511511405114385A70284009200673453706731423A70384009200735670107354910A70484009201041493810414938A0622            
5601A70584009200844842208446170A70684009200817667808176678A71082609200742064007417030A71084009200752584207520563A71097809200749051607486089A71684009200827631908276319  
5600701505400020A72884009200810085409978729A73684009201016690110165659A73693809200710000007100000A73784009200838565408385654A74084009200726130107256049A0622            
5601A74871009200510000005100000A74884009200752584207520563A75220809200662800706624654A75257809200696645406956432A75282609200772284207718069A75284009200790424807895537  
5600701505400020A75297809200784182007836981A75682609200689990406897023A75684009200511244805111782A75697809200510487605104463A76084009200915309209153092A0622            
5601A76484009200728232607280427A77684009200642765006408150A78084009200614862406148624A78484009200627230906272213A78884009200631918306318066A79284009201237309512371424  
5600701505400020A79294909201110000011100000A79584009201057290210572902A79593409200920000009200000A80084009200926806909268069A80784009200717396707173967A0622            
5601A81064309200510000005100000A81084009200710299607100857A81884009200732437207323012A82684009200512517005124490A82697809200511669505116371A83484009200940980609405749  
5600701505400020A84084009200510000005100000A85884009200726235007262350A86084009201082439610824396A86284009200730069107299939A86293709200810000008100000A0622            
5601A88284009200636870006349200A88684009200840000008399202A89184009200891499708914077A89194109200510000005100000A89484009201048010010473732A90184009200731175007311653  
5600701505400020A92584009200745473807450213A92884009200730069107299939A92984009200726371307263713A93084009200743743007437430A93284009200922846909203260A0622            
5601A93384009200630509206305092A93484009200628645106286451A93684009200787719307872600A93784009200730069107299939A93792809201010000010100000A93884009200816690108165659  
5600701505400020A94184009200891499708914077A94384009200715810307158103A94484009200658997106586510A94684009200621658606214962A94982609200729922307296799A0622            
5601A94984009200737309507371424A94997809200734878807345742A95084009200816382208162999A95184009200637200006372000A95284009200816382208162999A95384009200890051408895990  
5600701505400020A96784009200748010007473732A96884009200726130107256049A96984009200922396909223969A97184009200712827107128271A97284009200791238407912384A0622            
5601A97384009200812119408121194A97484009201030509210305092A97584009200654943406546674A97684009200941185509395704A97784009200654943406546674A97813209200311026503110265  
5600701505400020A97817409200349196803491968A97819109200575345005753450A97819609200658527406585274A97822609200365595703655957A97823309200415646604156466A0622            
5601A97842809200670280406702804A97844009200534528005345280A97847009200642930006429300A97862409200365595703655957A97870309200430126004301260A97870509200323964003239640  
5600701505400020A97884009200510746005106920A97895009200365595703655957A97895209200365595703655957A97895309200311933203119332A97897509200519558305195583A0622            
5601A97897709200519558305195583A98084009200727345907273459A98184009200638485206377886A98582609200618671806185049A98584009200623322506230761A98597809200621764706215672  
5600701505400020A98684009200620150306200164                                                                                                            A0622                                                                                               
05004728580017861489000Z  24761353263530619144454004761350920000000035000764000000001000840ACQUIRER NAME            Washington   US 581210200     1000N2750480 4 0132630
0501   A0241    000000 VCMS AP 20221025 1626                                  SY000000000000015TERMID01000000000000  2080 0  0 V 0                           000000000
0505302080240210819000000000000             0000 000000000000                    0000530000000000000695036C0673948007299204000000000000N             0000000000000000  M
06004728580017861489000Z  24761353263823417613105004761350920000000105000764000000003000840REFUND MERCH             Washington   US 581210200     1000N9654520 4 0132630
0601   A0241    000000 VCMS AP 20221025 1626                                  SY000000000000015TERMID01000000000000  2080 0  0 V 0                           000000000
0605302080240210819000000000000             0000 000000000000                    0000530000000000000695036C0673948007299204000000000000N             0000000000000000  M
07004728580017861489000Z  74761353263307941110031004761350920000000175000764000000005000840Cash Withdrawal          Washington   US 601110200     1000N3478870 4 0132630
0701   A0241    000000 VCMS AP 20221025 1626                                  SY000000000000015TERMID01000000000000  2080 0  0 V 0                           000000000
0705302080240210819000000000000             0000 000000000000                    0000530000000000000695036C0673948007299204000000000000N             0000000000000000  M
05004728580017861489000Z  24761353263641174604368004761350920000000020000764000000020000764ACQUIRER NAME            Bangkok      TH 581210200     1000N0498620 4 0132630
0501   A0241    000000 VCMS AP 20221025 1626                                  SY000000000000015TERMID01000000000000  2080 0  0 V 0                           000000000
0505302080240210819000000000000             0000 000000000000                    0000530000000000000695036C0673948007299204000000000000N             0000000000000000  M
06004728580017861489000Z  24761353263762524976544004761350920000000040000764000000040000764REFUND MERCH             Bangkok      TH 581210200     1000N9938910 4 0132630
0601   A0241    000000 VCMS AP 20221025 1626                                  SY000000000000015TERMID01000000000000  2080 0  0 V 0                           000000000
0605302080240210819000000000000             0000 000000000000                    0000530000000000000695036C0673948007299204000000000000N             0000000000000000  M
07004728580017861489000Z  74761353263379919943347004761350920000000060000764000000060000764Cash Withdrawal          Bangkok      TH 601110200     1000N4574900 4 0132630
0701   A0241    000000 VCMS AP 20221025 1626                                  SY000000000000015TERMID01000000000000  2080 0  0 V 0                           000000000
0705302080240210819000000000000             0000 000000000000                    0000530000000000000695036C0673948007299204000000000000N             0000000000000000  M
910070150523263000000000435000000000000006000001000000000019000000        000000007000000000000000000000000000129000000000000000000000000000000000000000000000000
920070150523263000000000435000000000000006000001000000000020000000        000000008000000000000000000000000000129000000000000000000000000000000000000000000000000