9070150523234      2211200400TEST 0000      000000000000000000CRDX2022      003                                                                                         
4600701505000000900061909290006190929000619092001840Y     V2110  20232342023234                                                                                        0
4600701505000000900061909390006190929000619092001840Y     V2110  20232342023234                                                                                        0
4600701505000000900061910190006190929000619092001840Y     V2110  20232342023234                                                                                        0
4600701505000000900061938090006193869000619092001840Y     V2110  20232342023234                                                                                        0
4600701505000000900061938190006193869000619092001840Y     V2110  20232342023234                                                                                        0
4600701505000000900061938290006193869000619092001840Y     V2110  20232342023234                                                                                        0
4600701505000000900061938690006190929000619092001840Y     V2110  20232342023234                                                                                        0
4600701505000000900063254390006190929000619092001840Y     V2110  20232342023234                                                                                        0
4600701505000000900063254490006325439000619092001840Y     V2110  20232342023234                                                                                        0
4600701505000000900063254790006325439000619092001840Y     V2110  20232342023234                                                                                        0
4600701505000000900063254990006325439000619092001840Y     V2110  20232342023234                                                                                        0
4600701505000000900061909290006190929000619092001840Y     V2110  20232342023234                                                                                        0
4600701505000000900061909390006190929000619092001840Y     V2110  20232342023234                                                                                        0
4600701505000000900061910190006190929000619092001840Y     V2110  20232342023234                                                                                        0
4600701505000000900061938090006193869000619092001840Y     V2110  20232342023234                                                                                        0
4600701505000000900061938190006193869000619092001840Y     V2110  20232342023234                                                                                        0
4600701505000000900061938290006193869000619092001840Y     V2110  20232342023234                                                                                        0
4600701505000000900061938690006190929000619092001840Y     V2110  20232342023234                                                                                        0
4600701505000000900063254390006190929000619092001840Y     V2110  20232342023234                                                                                        0
4600701505000000900063254490006325439000619092001840Y     V2110  20232342023234                                                                                        0
4600701505000000900063254790006325439000619092001840Y     V2110  20232342023234                                                                                        0
4600701505000000900063254990006325439000619092001840Y     V2110  20232342023234                                                                                        0
4600701505000000900061909490006190949000619094036764      V2110  20232342023234              I1000000000000014000000000030000000000000030000000000000000000            0
4600701505000000900061909490006190949000619094036764      V2110  20232342023234              I2000000000000006000000000007000000000000030000000000000025000DB          0
4600701505000000900061909490006190949000619094036764      V2110  20232342023234              I3000000000000000000000000000000000000000000000000000000000000            0
4600701505000000900061909490006190949000619094036764      V2110  20232342023234              I9000000000000020000000000037000000000000060000000000000025000DB          0
4600701505000000900061909490006190949000619094036764      V2110  20232342023234              F1               000000000000550000000000000600000000000000000            0
4600701505000000900061909490006190949000619094036764      V2110  20232342023234              F2               000000000000550000000000000150000000000000444CR          0
4600701505000000900061909490006190949000619094036764      V2110  20232342023234              F3               000000000000000000000000000000000000000000000            0
4600701505000000900061909490006190949000619094036764      V2110  20232342023234              F9               000000000001100000000000000750000000000000444CR          0
4600701505000000900061909490006190949000619094036764      V2110  20232342023234              C1               000000000000000000000000000000000000000000000            0
4600701505000000900061909490006190949000619094036764      V2110  20232342023234              C2               000000000000000000000000000000000000000000000            0
4600701505000000900061909490006190949000619094036764      V2110  20232342023234              C3               000000000000000000000000000000000000000000000            0
4600701505000000900061909490006190949000619094036764      V2110  20232342023234              C9               000000000000000000000000000000000000000000000            0
4600701505000000900061909490006190949000619094036764      V2110  20232342023234              T1               000000000029000000000000029000000000000000000            0
4600701505000000900061909490006190949000619094036764      V2110  20232342023234              T2               000000000007000000000000028000000000000021500DB          0
4600701505000000900061909490006190949000619094036764      V2110  20232342023234              T3               000000000000000000000000000000000000000000000            0
4600701505000000900061909490006190949000619094036764      V2110  20232342023234              T9               000000000036000000000000057000000000000021500DB          0
4600701505000000900061909590006190949000619094036764      V2110  20232342023234              I1000000000000000000000000000000000000000000000000000000000000            0
4600701505000000900061909590006190949000619094036764      V2110  20232342023234              I2000000000000006000000000006800000000000028800000000000022000DB          0
4600701505000000900061909590006190949000619094036764      V2110  20232342023234              I3000000000000000000000000000000000000000000000000000000000000            0
4600701505000000900061909590006190949000619094036764      V2110  20232342023234              I9000000000000006000000000006800000000000028800000000000022000DB          0
4600701505000000900061909590006190949000619094036764      V2110  20232342023234              F1               000000000000000000000000000000000000000000000            0
4600701505000000900061909590006190949000619094036764      V2110  20232342023234              F2               000000000000533000000000000126000000000000407CR          0
4600701505000000900061909590006190949000619094036764      V2110  20232342023234              F3               000000000000000000000000000000000000000000000            0
4600701505000000900061909590006190949000619094036764      V2110  20232342023234              F9               000000000000533000000000000126000000000000407CR          0
4600701505000000900061909590006190949000619094036764      V2110  20232342023234              C1               000000000000000000000000000000000000000000000            0
4600701505000000900061909590006190949000619094036764      V2110  20232342023234              C2               000000000000000000000000000000000000000000000            0
4600701505000000900061909590006190949000619094036764      V2110  20232342023234              C3               000000000000000000000000000000000000000000000            0
4600701505000000900061909590006190949000619094036764      V2110  20232342023234              C9               000000000000000000000000000000000000000000000            0
4600701505000000900061909590006190949000619094036764      V2110  20232342023234              T1               000000000000000000000000000000000000000000000            0
4600701505000000900061909590006190949000619094036764      V2110  20232342023234              T2               000000000007333000000000028926000000000021593DB          0
4600701505000000900061909590006190949000619094036764      V2110  20232342023234              T3               000000000000000000000000000000000000000000000            0
4600701505000000900061909590006190949000619094036764      V2110  20232342023234              T9               000000000007333000000000028926000000000021593DB          0
4600701505000000900063254590006190949000619094036764      V2110  20232342023234              I1000000000000010000000000028800000000000028800000000000000000            0
4600701505000000900063254590006190949000619094036764      V2110  20232342023234              I2000000000000000000000000000000000000000000000000000000000000            0
4600701505000000900063254590006190949000619094036764      V2110  20232342023234              I3000000000000000000000000000000000000000000000000000000000000            0
4600701505000000900063254590006190949000619094036764      V2110  20232342023234              I9000000000000010000000000028800000000000028800000000000000000            0
4600701505000000900063254590006190949000619094036764      V2110  20232342023234              F1               000000000000400000000000000400000000000000000            0
4600701505000000900063254590006190949000619094036764      V2110  20232342023234              F2               000000000000000000000000000000000000000000000            0
4600701505000000900063254590006190949000619094036764      V2110  20232342023234              F3               000000000000000000000000000000000000000000000            0
4600701505000000900063254590006190949000619094036764      V2110  20232342023234              F9               000000000000400000000000000400000000000000000            0
4600701505000000900063254590006190949000619094036764      V2110  20232342023234              C1               000000000000000000000000000000000000000000000            0
4600701505000000900063254590006190949000619094036764      V2110  20232342023234              C2               000000000000000000000000000000000000000000000            0
4600701505000000900063254590006190949000619094036764      V2110  20232342023234              C3               000000000000000000000000000000000000000000000            0
4600701505000000900063254590006190949000619094036764      V2110  20232342023234              C9               000000000000000000000000000000000000000000000            0
4600701505000000900063254590006190949000619094036764      V2110  20232342023234              T1               000000000040000000000000035000000000000000000            0
4600701505000000900063254590006190949000619094036764      V2110  20232342023234              T2               000000000000000000000000000000000000000000000            0
4600701505000000900063254590006190949000619094036764      V2110  20232342023234              T3               000000000000000000000000000000000000000000000            0
4600701505000000900063254590006190949000619094036764      V2110  20232342023234              T9               000000000040000000000000035000000000000000000            0
4600701505000000900063254890006325459000619094036764      V2110  20232342023234              I1000000000000010000000000028800000000000028800000000000000000            0
4600701505000000900063254890006325459000619094036764      V2110  20232342023234              I2000000000000000000000000000000000000000000000000000000000000            0
4600701505000000900063254890006325459000619094036764      V2110  20232342023234              I3000000000000000000000000000000000000000000000000000000000000            0
4600701505000000900063254890006325459000619094036764      V2110  20232342023234              I9000000000000010000000000028800000000000028800000000000000000            0
4600701505000000900063254890006325459000619094036764      V2110  20232342023234              F1               000000000000800000000000000900000000000000000            0
4600701505000000900063254890006325459000619094036764      V2110  20232342023234              F2               000000000000000000000000000000000000000000000            0
4600701505000000900063254890006325459000619094036764      V2110  20232342023234              F3               000000000000000000000000000000000000000000000            0
4600701505000000900063254890006325459000619094036764      V2110  20232342023234              F9               000000000000800000000000000900000000000000000            0
4600701505000000900063254890006325459000619094036764      V2110  20232342023234              C1               000000000000000000000000000000000000000000000            0
4600701505000000900063254890006325459000619094036764      V2110  20232342023234              C2               000000000000000000000000000000000000000000000            0
4600701505000000900063254890006325459000619094036764      V2110  20232342023234              C3               000000000000000000000000000000000000000000000            0
4600701505000000900063254890006325459000619094036764      V2110  20232342023234              C9               000000000000000000000000000000000000000000000            0
4600701505000000900063254890006325459000619094036764      V2110  20232342023234              T1               000000000029500000000000029500000000000000000            0
4600701505000000900063254890006325459000619094036764      V2110  20232342023234              T2               000000000000000000000000000000000000000000000            0
4600701505000000900063254890006325459000619094036764      V2110  20232342023234              T3               000000000000000000000000000000000000000000000            0
4600701505000000900063254890006325459000619094036764      V2110  20232342023234              T9               000000000029500000000000029500000000000000000            0
4600701505000000900061909290006190929000619092001840Y     V2110  20232342023234                                                                                        0
4600701505000000900061909390006190929000619092001840Y     V2110  20232342023234                                                                                        0
4600701505000000900061910190006190929000619092001840Y     V2110  20232342023234                                                                                        0
4600701505000000900061938090006193869000619092001840Y     V2110  20232342023234                                                                                        0
4600701505000000900061938190006193869000619092001840Y     V2110  20232342023234                                                                                        0
4600701505000000900061938290006193869000619092001840Y     V2110  20232342023234                                                                                        0
4600701505000000900061938690006190929000619092001840Y     V2110  20232342023234                                                                                        0
4600701505000000900063254390006190929000619092001840Y     V2110  20232342023234                                                                                        0
4600701505000000900063254490006325439000619092001840Y     V2110  20232342023234                                                                                        0
4600701505000000900063254790006325439000619092001840Y     V2110  20232342023234                                                                                        0
4600701505000000900063254990006325439000619092001840Y     V2110  20232342023234                                                                                        0   
05004728580056754959000Z  24761353234873681451621004761350822000000035000764000000001000840ACQUIRER NAME            Bangkok      TH 573210200     1000N1167880 4 0132340
0501   A0241    000000 VCMS AP 20221025 1626                                  SY000000000000015TERMID01000000000000  2080 0  0 V 0                           000000000
0505302080240210819000000000000             0000 000000000000                    0000530000000000000695036C0673948007299204000000000000N             0000000000000000  M
06004728580050789316000Z  24761353234076241020221004761350822000000105000764000000003000840REFUND MERCH             Bangkok      TH 350910200     1000N9898260 4 0132340
0601   A0241    000000 VCMS AP 20221025 1626                                  SY000000000000015TERMID01000000000000  2080 0  0 V 0                           000000000
0605302080240210819000000000000             0000 000000000000                    0000530000000000000695036C0673948007299204000000000000N             0000000000000000  M
07004728580036991051000Z  74761353234683406003390004761350822000000175000764000000005000840Ecommerce                Bangkok      TH 350910200     1000N2865760 4 0132340
0701   A0241    000000 VCMS AP 20221025 1626                                  SY000000000000015TERMID01000000000000  2080 0  0 V 0                           000000000
0705302080240210819000000000000             0000 000000000000                    0000530000000000000695036C0673948007299204000000000000N             0000000000000000  M
910070150523234000000000315000000000000003000001000000000010000000        000000004000000000000000000000000000009000000000000000000000000000000000000000000000000
920070150523234000000000315000000000000003000001000000000011000000        000000005000000000000000000000000000009000000000000000000000000000000000000000000000000