9070150523234      2323400400TEST 0000      000000000000000000CRDX2022      001                                                                                         
05004907341204577054000Z  74163213232000000031762100785460820000000031723764000000000800978HTM PERSONENVERVOER      S GRAVENHAGE NL 411100000     1000N1072458   073234B
0501   A0608    000000                                                     965SN110112208      CT631487000000000000  3234 0  0 V                             000000000  
0505463232572797573000000000000             0000 000000000000                              000000000026190C0510916007282167000000000000P             0000000000000000   
050700001230820004808528        70AFB48701BB00204B736708F27C6B230112000000000003A02000000000000800                  06                                20700000          
3300706873320062CASR0503234463232572797573490734120457705400074163213232000000031762110112208      CT631487000000000800978000184010007630249000619092000000000873D1N    
3301000000000026190C          965EEAINT CN CR    32343234416321020230821T010100          NA0608                                                                         
05004907341204577054000Z  74163213232000000034345100785460820000000044213764000000001115978BABAQUE                  DEN HAAG     NL 539900000     1000N3040485 2 073234B
0501   A0608    000000                                                     965SN110096164      88004320000000000000  3234 0  0 V                             000000000  
0505463232593305921000000000000             0000 000000000000                              000000000036510C0510916007282167000000000000P             0000000000000000   
050700001230820E020C8528        6BEFF6F601BC00206ABAB20AA3FAA8ED0112000000000003A02000000000001115                  06                                20700000          
3300706873320062CASR0503234463232593305921490734120457705400074163213232000000034345110096164      88004320000000001115978000184010007630249000619092000000001217D1N    
3301000000000036510C          965EEAINT CN CR    32343234416321020230821T010100          NA0608                                                                         
05004907341002261620000ZN 74230783230127927106402004988490818000000017751764000000002000985TKANSTYL                 LUBLIN       PL 594920147     1000N6474435   073234B
0501   A0608    000000 230818133935                                        965S 75967735       22605819000000000000  3234 0  0 L 000                         000000000  
0505303184419828999000000002000985          0000 000000000000N                             000000000014670C0624433107282167000000000000N             0000000000000000   
050700001230703606848616        CAF54F2800872000D3F06E1E388A15EB010A000000000003A00000000000002000                  06                                20500000          
3300706821320062CASR050323430318441982899949073410022616200007423078323012792710640275967735       22605819000000002000985000184010007630129000619092000000000489D1N    
3301000000000014670C          965EEAINT CN CR    32343234498849020230821T010100           A0608                                                                         
05004773760111228249000ZN 74230783230127969186254004988490818000000023077764000000002600985B.O.H.O COFFEE AND BAR   KRAKOW       PL 581231043     1000N1368465   073234B
0501   A0608    000000 230818110623                                        965S 77041544       24292820000000000000  3234 0  0 L 000                         000000000  
0505383184327951609000000002600985          0000 000000000000N                             000000000019050C0624433107282167000000000000N             0000000000000000   
050700001230703606848616        2C238D2B0005002079C8286CDF269A3C0112000000000003A02000000000002600                  06                                20700000          
3300706802320062CASR050323438318432795160947737601112282490007423078323012796918625477041544       24292820000000002600985000184010007617959000619092000000000635D1N    
3301000000000019050C          965EEAINT CN CR    32343234498849020230821T010100           A0608                                                                         
5600701505400020A00484008220711934607119346A00497108220510000005100000A00884008220710322007102187A01284008220873443308734352A03184008220911799409117302A0608            
5601A03194408220920000009200000A03284008220815311708285701A03682608220650533606501121A03684008220664239906638601A03697808220659110306586851A04484008220510000005100000  
5600701505400020A04884008220526590005265900A05084008220891407708913242A05184008220825974008256410A05284008220650251306502513A06084008220510000005100000A0608            
5601A06435608220510000005100000A06484008220712047607120286A06884008220614577306143678A07284008220773800007736000A07684008220620179606200092A08484008220650441406504414  
5600701505400020A09084008220612350006116000A09670208220510000005100000A09684008220673784306735674A10484008220947619009474766A10884008220935561909355619A0608            
5601A11684008220924202809242028A12403608220511572505114810A12482608220658166906577446A12484008220674112406736595A12497808220667998306676434A13284008220898997808985173  
5600701505400020A13684008220512000005120000A14484008220830959808308166A15284008220811490308114863A15684008220613709206137023A17084008220924248109242481A0608            
5601A17484008220822188408220807A18884008220818733608185195A19184008220614488006144177A19284008220741666707416667A19684008220518651105185606A20382608220735735207355032  
5600701505400020A20384008220745456607451156A20397808220741829607414569A20882608220611490406114380A20884008220614645306145847A20897808220613421706134176A0608            
5601A21484008220717676307175897A22284008220611428606114286A22684008220816641308165606A23084008220718188807180087A23284008220766666707666667A23384008220769765907694273  
5600701505400020A23882608220510000005100000A23884008220512769005127080A24284008220644200006430000A26284008220856322208563222A27084008220716747607167476A0608            
5601A28884008220788888907878735A28893608220510000005100000A29282608220510000005100000A29284008220512769005127080A32084008220612750206127356A32484008220911768909117689  
5600701505400020A32884008220847796608477966A33284008220873307308733073A34084008220740711607407116A34482608220610042407999318A34484008220612769606127554A0608            
5601A34497808220611749206116923A34884008220828641808282934A35220808220751939307517830A35284008220875797808757978A35684008220712047607120286A36084008221065261410652018  
5600701505400020A36484008221023809510238095A36584008220911805009118050A36884008220976335909763359A37684008220626510406262282A38884008220865359508653595A0608            
5601A39203608220710774307106503A39234408220753958207535490A39282608220854138508535767A39284008220868908408682921A39297808220863397208627361A39884008220822022108219717  
5600701505400020A40084008220514124305140845A40484008220869300108692042A40884008220645454506454545A41084008220974771409746607A41484008220532481205324181A0608            
5601A41784008220711328907113289A41884008221054908910510777A42284008221011695910116959A42671008220510000005100000A42684008220752816107524016A42884008220515532105154567  
5600701505400020A43084008220854036508540365A43484008220620789606207896A44084008220631614906314615A44684008220612397106123728A45084008221044914410449144A0608            
5601A45096908220620000006200000A45484008220993120409931204A45884008220621535506214754A46284008220764850807645161A47084008220525427405253040A47884008220826202008262020  
5600701505400020A48084008220721943607218209A48412408220779803407791707A48484008220758865707587537A49684008220928935209289352A49884008220756433407564334A0608            
5601A50484008220610031106100311A50884008221015810310158103A50894308220810000008100000A51284008220525977405259673A51671008220510000005100000A51684008220752816107524016  
5600701505400020A52406408220662500006625000A52435608220662500006625000A52484008220875297508751790A53284008220655865906558659A53384008220655865906558659A0608            
5601A54884008220884168008793273A55403608220692811106921527A55484008220659499906589401A55884008220727402707274027A56684008220812949208129492A57820808220664836806641104  
5600701505400020A57882608220774287107736273A57884008220794895507937217A57897808220786904007862144A58684008220833951808339058A59084008220510000005100000A0608            
5601A59884008220627800006270500A60084008220913775009137668A60484008220626911406268962A60884008220717762007177557A62484008220816641308165606A62684008220510000005100000  
5600701505400020A63484008220627472506274725A64284008221022123910219505A64294608220910000009100000A64384008220710758607104972A64684008220985018109838068A0608            
5601A65482608220510000005100000A65484008220512769005127080A67884008221044445010444450A68284008220626665206266596A69084008220772348407723484A69484008221046196610457369  
5600701505400020A69492508220810000008100000A70203608220511562205114546A70284008220673784306735674A70384008220736234407360586A70484008221042002710420027A0608            
5601A70584008220845551608453305A70684008220817667808176678A71082608220741459607411410A71084008220752816107524016A71097808220748530307480355A71684008220827631908276319  
5600701505400020A72884008220810046409974947A73684008221016690110165659A73693808220710000007100000A73784008220838565408385654A74084008220726448007259740A0608            
5601A74871008220510000005100000A74884008220752816107524016A75220808220662854806622177A75257808220697873806959226A75282608220771907807714111A75284008220791751407909001  
5600701505400020A75297808220784188207834944A75682608220689402106888407A75684008220511390805113199A75697808220510452305104081A76084008220915309209153092A0608            
5601A76484008220728491607282167A77684008220642915006409650A78084008220614860406148604A78484008220627230906272213A78884008220632289306321750A79284008221236871412366927  
5600701505400020A79294908221110000011100000A79584008221057290210572902A79593408220920000009200000A80084008220926845609268456A80784008220717738707177387A0608            
5601A81064308220510000005100000A81084008220710758607104972A81884008220732436107323012A82684008220512769005127080A82697808220511734905116779A83484008220941194109407862  
5600701505400020A84084008220510000005100000A85884008220726444507264445A86084008221082987610829876A86284008220731492007314133A86293708220810000008100000A0608            
5601A88284008220637010006350600A88684008220840000008399202A89184008220892928208928505A89194108220510000005100000A89484008221051546410514139A90184008220731313607312960  
5600701505400020A92584008220746196607457369A92884008220731492007314133A92984008220726202007262020A93084008220744445007444450A93284008220923245509206582A0608            
5601A93384008220631751106317511A93484008220628645106286451A93684008220788888907878735A93784008220731492007314133A93792808221010000010100000A93884008220816690108165659  
5600701505400020A94184008220892928208928505A94384008220715810307158103A94484008220658997106586510A94684008220622123906219505A94982608220728988107287880A0608            
5601A94984008220736871407366927A94997808220733911407336893A95084008220816641308165606A95184008220637200006372000A95284008220816641308165606A95384008220891476008910320  
5600701505400020A96784008220751546407514139A96884008220726448007259740A96984008220922457209224572A97184008220711934607119346A97284008220791238407912384A0608            
5601A97384008220812121208121212A97484008221031751110317511A97584008220655812606555417A97684008220941289509396703A97784008220655812606555417A97813208220311026503110265  
5600701505400020A97817408220349196803491968A97819108220575345005753450A97819608220658527406585274A97822608220365595703655957A97823308220415646604156466A0608            
5601A97842808220670280406702804A97844008220534528005345280A97847008220642930006429300A97862408220365595703655957A97870308220430126004301260A97870508220323964003239640  
5600701505400020A97884008220510916005108630A97895008220365595703655957A97895208220365595703655957A97895308220311933203119332A97897508220519558305195583A0608            
5601A97897708220519558305195583A98084008220727345907273459A98184008220638625006378072A98582608220619221006190481A98584008220624433106242577A98597808220622485506223046  
5600701505400020A98684008220620179606200092                                                                                                            A0608            
910070150523234000000000116764000000000004000001000000000074000000        000000034000000000000000000000000000006515000000000000000000000000000000000000000000000       
46007015050000009000619092001202323412023201              V1100W 9000619092CARDX          Y                                     N          N    840000                 0
46007015050000009000619092001202323422023201              V1100W 1000047788SUM-490733 (I) N                                     N          N    840000                 0
46007015050000009000619092001202323432023201              V1100W 0006490733SCBS 490733 (I)NB000000000000490733                  Y3200320000Y9999840000000              0
46007015050000009000619092001202323432023201              V1100W 0006490733SCBS 490733 (I)NB000000000000490733                  Y7015050000Y9999840000000              0
46007015050000009000619092001202323432023201              V1100W 1000032976SCBS490733-2(I)NB000000000000490733                  Y4367610004Y0002840000000              0
46007015050000009000619092001202323432023201              V1100W 1000032977BOAS490733-2(I)NB000000000000490733                  Y7030310002Y0002840000000              0
46007015050000009000619092001202323432023201              V1100W 1000032978SCBS490733-4(I)NB000000000000490733                  Y4367610004Y0004840000000              0
46007015050000009000619092001202323432023201              V1100W 1000032979BOAS490733-4(I)NB000000000000490733                  Y7030310004Y0004840000000              0
46007015050000009000619092001202323432023201              V1100W 1000762515BIN 49073304   NB000000000000706808                  Y4367610004Y0002840000000              0
46007015050000009000619092001202323432023201              V1100W 1000762516BIN 49073304   NB000000000000706808                  Y7030310002Y0002840000000              0
46007015050000009000619092001202323432023201              V1100W 1000762517BIN 49073304   NB000000000000706808                  Y4367610004Y0004840000000              0
46007015050000009000619092001202323432023201              V1100W 1000762518BIN 49073304   NB000000000000706808                  Y7030310004Y0004840000000              0
46007015050000009000619092001202323432023201              V1100W 1000762519BIN 49073304   NB000000000000706808                  Y3200320000Y9999840000000              0
46007015050000009000619092001202323432023201              V1100W 1000762519BIN 49073304   NB000000000000706808                  Y7015050000Y9999840000000              0
46007015050000009000619092001202323432023201              V1100W 1000762521BIN 49073307   NB000000000000706809                  Y4367610004Y0002840000000              0
46007015050000009000619092001202323432023201              V1100W 1000762522BIN 49073307   NB000000000000706809                  Y7030310002Y0002840000000              0
46007015050000009000619092001202323432023201              V1100W 1000762523BIN 49073307   NB000000000000706809                  Y4367610004Y0004840000000              0
46007015050000009000619092001202323432023201              V1100W 1000762524BIN 49073307   NB000000000000706809                  Y7030310004Y0004840000000              0
46007015050000009000619092001202323432023201              V1100W 1000762525BIN 49073307   NB000000000000706809                  Y3200320000Y9999840000000              0
46007015050000009000619092001202323432023201              V1100W 1000762525BIN 49073307   NB000000000000706809                  Y7015050000Y9999840000000              0
46007015050000009000619092001202323432023201              V1100W 1000762527BIN 49073308   NB000000000000706810                  Y4367610004Y0002840000000              0
46007015050000009000619092001202323432023201              V1100W 1000762528BIN 49073308   NB000000000000706810                  Y7030310002Y0002840000000              0
46007015050000009000619092001202323432023201              V1100W 1000762529BIN 49073308   NB000000000000706810                  Y4367610004Y0004840000000              0
46007015050000009000619092001202323432023201              V1100W 1000762530BIN 49073308   NB000000000000706810                  Y7030310004Y0004840000000              0
46007015050000009000619092001202323432023201              V1100W 1000762531BIN 49073308   NB000000000000706810                  Y3200320000Y9999840000000              0
46007015050000009000619092001202323432023201              V1100W 1000762531BIN 49073308   NB000000000000706810                  Y7015050000Y9999840000000              0
46007015050000009000619092001202323432023201              V1100W 1000762533BIN 49073312   NB000000000000706811                  Y4367610004Y0002840000000              0
46007015050000009000619092001202323432023201              V1100W 1000762534BIN 49073312   NB000000000000706811                  Y7030310002Y0002840000000              0
46007015050000009000619092001202323432023201              V1100W 1000762535BIN 49073312   NB000000000000706811                  Y4367610004Y0004840000000              0
46007015050000009000619092001202323432023201              V1100W 1000762536BIN 49073312   NB000000000000706811                  Y7030310004Y0004840000000              0
46007015050000009000619092001202323432023201              V1100W 1000762537BIN 49073312   NB000000000000706811                  Y3200320000Y9999840000000              0
46007015050000009000619092001202323432023201              V1100W 1000762537BIN 49073312   NB000000000000706811                  Y7015050000Y9999840000000              0
46007015050000009000619092001202323432023201              V1100W 1000762539BIN 49073317   NB000000000000706812                  Y4367610004Y0002840000000              0
46007015050000009000619092001202323432023201              V1100W 1000762540BIN 49073317   NB000000000000706812                  Y7030310002Y0002840000000              0
46007015050000009000619092001202323432023201              V1100W 1000762541BIN 49073317   NB000000000000706812                  Y4367610004Y0004840000000              0
46007015050000009000619092001202323432023201              V1100W 1000762542BIN 49073317   NB000000000000706812                  Y7030310004Y0004840000000              0
46007015050000009000619092001202323432023201              V1100W 1000762543BIN 49073317   NB000000000000706812                  Y3200320000Y9999840000000              0
46007015050000009000619092001202323432023201              V1100W 1000762543BIN 49073317   NB000000000000706812                  Y7015050000Y9999840000000              0
46007015050000009000619092001202323432023201              V1100W 1000762545BIN 49073318   NB000000000000706813                  Y4367610004Y0002840000000              0
46007015050000009000619092001202323432023201              V1100W 1000762546BIN 49073318   NB000000000000706813                  Y7030310002Y0002840000000              0
46007015050000009000619092001202323432023201              V1100W 1000762547BIN 49073318   NB000000000000706813                  Y4367610004Y0004840000000              0
46007015050000009000619092001202323432023201              V1100W 1000762548BIN 49073318   NB000000000000706813                  Y7030310004Y0004840000000              0
46007015050000009000619092001202323432023201              V1100W 1000762549BIN 49073318   NB000000000000706813                  Y3200320000Y9999840000000              0
46007015050000009000619092001202323432023201              V1100W 1000762549BIN 49073318   NB000000000000706813                  Y7015050000Y9999840000000              0
46007015050000009000619092001202323432023201              V1100W 1000762551BIN 49073319   NB000000000000706814                  Y4367610004Y0002840000000              0
46007015050000009000619092001202323432023201              V1100W 1000762552BIN 49073319   NB000000000000706814                  Y7030310002Y0002840000000              0
46007015050000009000619092001202323432023201              V1100W 1000762553BIN 49073319   NB000000000000706814                  Y4367610004Y0004840000000              0
46007015050000009000619092001202323432023201              V1100W 1000762554BIN 49073319   NB000000000000706814                  Y7030310004Y0004840000000              0
46007015050000009000619092001202323432023201              V1100W 1000762555BIN 49073319   NB000000000000706814                  Y3200320000Y9999840000000              0
46007015050000009000619092001202323432023201              V1100W 1000762555BIN 49073319   NB000000000000706814                  Y7015050000Y9999840000000              0
46007015050000009000619092001202323432023201              V1100W 1000762557BIN 49073320   NB000000000000706815                  Y4367610004Y0002840000000              0
46007015050000009000619092001202323432023201              V1100W 1000762558BIN 49073320   NB000000000000706815                  Y7030310002Y0002840000000              0
46007015050000009000619092001202323432023201              V1100W 1000762559BIN 49073320   NB000000000000706815                  Y4367610004Y0004840000000              0
46007015050000009000619092001202323432023201              V1100W 1000762560BIN 49073320   NB000000000000706815                  Y7030310004Y0004840000000              0
46007015050000009000619092001202323432023201              V1100W 1000762561BIN 49073320   NB000000000000706815                  Y3200320000Y9999840000000              0
46007015050000009000619092001202323432023201              V1100W 1000762561BIN 49073320   NB000000000000706815                  Y7015050000Y9999840000000              0
46007015050000009000619092001202323432023201              V1100W 1000762563BIN 49073390   NB000000000000706816                  Y4367610004Y0002840000000              0
46007015050000009000619092001202323432023201              V1100W 1000762564BIN 49073390   NB000000000000706816                  Y7030310002Y0002840000000              0
46007015050000009000619092001202323432023201              V1100W 1000762565BIN 49073390   NB000000000000706816                  Y4367610004Y0004840000000              0
46007015050000009000619092001202323432023201              V1100W 1000762566BIN 49073390   NB000000000000706816                  Y7030310004Y0004840000000              0
46007015050000009000619092001202323432023201              V1100W 1000762567BIN 49073390   NB000000000000706816                  Y3200320000Y9999840000000              0
46007015050000009000619092001202323432023201              V1100W 1000762567BIN 49073390   NB000000000000706816                  Y7015050000Y9999840000000              0
46007015050000009000619092001202323422023201              V1100W 1000047789SUM-490734 (I) N                                     N          N    840000                 0
46007015050000009000619092001202323432023201              V1100W 0006490734SCBS49073400(I)NB000000000000490734                  Y3200320000Y9999840000000              0
46007015050000009000619092001202323432023201              V1100W 0006490734SCBS49073400(I)NB000000000000490734                  Y4548520000Y9999840000000              0
46007015050000009000619092001202323432023201              V1100W 1000032980BIN 49073400   NB000000000000490734                  Y4367610004Y0002840000000              0
46007015050000009000619092001202323432023201              V1100W 1000032981BIN 49073400   NB000000000000490734                  Y7030310002Y0002840000000              0
46007015050000009000619092001202323432023201              V1100W 1000032982BIN 49073400   NB000000000000490734                  Y4367610004Y0004840000000              0
46007015050000009000619092001202323432023201              V1100W 1000032983BIN 49073400   NB000000000000490734                  Y7030310004Y0004840000000              0
46007015050000009000619092001202323432023201              V1100W 1000762960BIN 49073402   NB000000000000706817                  Y4367610004Y0002840000000              0
46007015050000009000619092001202323432023201              V1100W 1000762961BIN 49073402   NB000000000000706817                  Y7030310002Y0002840000000              0
46007015050000009000619092001202323432023201              V1100W 1000762962BIN 49073402   NB000000000000706817                  Y4367610004Y0004840000000              0
46007015050000009000619092001202323432023201              V1100W 1000762963BIN 49073402   NB000000000000706817                  Y7030310004Y0004840000000              0
46007015050000009000619092001202323432023201              V1100W 1000762964BIN 49073402   NB000000000000706817                  Y3200320000Y9999840000000              0
46007015050000009000619092001202323432023201              V1100W 1000762964BIN 49073402   NB000000000000706817                  Y7015050000Y9999840000000              0
46007015050000009000619092001202323432023201              V1100W 1000762966BIN 49073403   NB000000000000706818                  Y4367610004Y0002840000000              0
46007015050000009000619092001202323432023201              V1100W 1000762967BIN 49073403   NB000000000000706818                  Y7030310002Y0002840000000              0
46007015050000009000619092001202323432023201              V1100W 1000762968BIN 49073403   NB000000000000706818                  Y4367610004Y0004840000000              0
46007015050000009000619092001202323432023201              V1100W 1000762969BIN 49073403   NB000000000000706818                  Y7030310004Y0004840000000              0
46007015050000009000619092001202323432023201              V1100W 1000762970BIN 49073403   NB000000000000706818                  Y3200320000Y9999840000000              0
46007015050000009000619092001202323432023201              V1100W 1000762970BIN 49073403   NB000000000000706818                  Y7015050000Y9999840000000              0
46007015050000009000619092001202323432023201              V1100W 1000762978BIN 49073405   NB000000000000706819                  Y4367610004Y0002840000000              0
46007015050000009000619092001202323432023201              V1100W 1000762979BIN 49073405   NB000000000000706819                  Y7030310002Y0002840000000              0
46007015050000009000619092001202323432023201              V1100W 1000762980BIN 49073405   NB000000000000706819                  Y4367610004Y0004840000000              0
46007015050000009000619092001202323432023201              V1100W 1000762981BIN 49073405   NB000000000000706819                  Y7030310004Y0004840000000              0
46007015050000009000619092001202323432023201              V1100W 1000762982BIN 49073405   NB000000000000706819                  Y3200320000Y9999840000000              0
46007015050000009000619092001202323432023201              V1100W 1000762982BIN 49073405   NB000000000000706819                  Y7015050000Y9999840000000              0
46007015050000009000619092001202323432023201              V1100W 1000762990BIN 49073407   NB000000000000706820                  Y4367610004Y0002840000000              0
46007015050000009000619092001202323432023201              V1100W 1000762991BIN 49073407   NB000000000000706820                  Y7030310002Y0002840000000              0
46007015050000009000619092001202323432023201              V1100W 1000762992BIN 49073407   NB000000000000706820                  Y4367610004Y0004840000000              0
46007015050000009000619092001202323432023201              V1100W 1000762993BIN 49073407   NB000000000000706820                  Y7030310004Y0004840000000              0
46007015050000009000619092001202323432023201              V1100W 1000762994BIN 49073407   NB000000000000706820                  Y3200320000Y9999840000000              0
46007015050000009000619092001202323432023201              V1100W 1000762994BIN 49073407   NB000000000000706820                  Y7015050000Y9999840000000              0
46007015050000009000619092001202323432023201              V1100W 1000763008BIN 49073410   NB000000000000706821                  Y4367610004Y0002840000000              0
46007015050000009000619092001202323432023201              V1100W 1000763009BIN 49073410   NB000000000000706821                  Y7030310002Y0002840000000              0
46007015050000009000619092001202323432023201              V1100W 1000763010BIN 49073410   NB000000000000706821                  Y4367610004Y0004840000000              0
46007015050000009000619092001202323432023201              V1100W 1000763011BIN 49073410   NB000000000000706821                  Y7030310004Y0004840000000              0
46007015050000009000619092001202323432023201              V1100W 1000763012BIN 49073410   NB000000000000706821                  Y3200320000Y9999840000000              0
46007015050000009000619092001202323432023201              V1100W 1000763012BIN 49073410   NB000000000000706821                  Y7015050000Y9999840000000              0
46007015050000009000619092001202323432023201              V1100W 1000763014BIN 49073411   NB000000000000706822                  Y4367610004Y0002840000000              0
46007015050000009000619092001202323432023201              V1100W 1000763015BIN 49073411   NB000000000000706822                  Y7030310002Y0002840000000              0
46007015050000009000619092001202323432023201              V1100W 1000763016BIN 49073411   NB000000000000706822                  Y4367610004Y0004840000000              0
46007015050000009000619092001202323432023201              V1100W 1000763017BIN 49073411   NB000000000000706822                  Y7030310004Y0004840000000              0
46007015050000009000619092001202323432023201              V1100W 1000763018BIN 49073411   NB000000000000706822                  Y3200320000Y9999840000000              0
46007015050000009000619092001202323432023201              V1100W 1000763018BIN 49073411   NB000000000000706822                  Y7015050000Y9999840000000              0
46007015050000009000619092001202323432023201              V1100W 1000763020BIN 49073412   NB000000000000706873                  Y4367610004Y0002840000000              0
46007015050000009000619092001202323432023201              V1100W 1000763021BIN 49073412   NB000000000000706873                  Y7030310002Y0002840000000              0
46007015050000009000619092001202323432023201              V1100W 1000763022BIN 49073412   NB000000000000706873                  Y4367610004Y0004840000000              0
46007015050000009000619092001202323432023201              V1100W 1000763023BIN 49073412   NB000000000000706873                  Y7030310004Y0004840000000              0
46007015050000009000619092001202323432023201              V1100W 1000763024BIN 49073412   NB000000000000706873                  Y3200320000Y9999840000000              0
46007015050000009000619092001202323432023201              V1100W 1000763024BIN 49073412   NB000000000000706873                  Y7015050000Y9999840000000              0
46007015050000009000619092001202323432023201              V1100W 1000763026BIN 49073413   NB000000000000706874                  Y4367610004Y0002840000000              0
46007015050000009000619092001202323432023201              V1100W 1000763027BIN 49073413   NB000000000000706874                  Y7030310002Y0002840000000              0
46007015050000009000619092001202323432023201              V1100W 1000763028BIN 49073413   NB000000000000706874                  Y4367610004Y0004840000000              0
46007015050000009000619092001202323432023201              V1100W 1000763029BIN 49073413   NB000000000000706874                  Y7030310004Y0004840000000              0
46007015050000009000619092001202323432023201              V1100W 1000763030BIN 49073413   NB000000000000706874                  Y3200320000Y9999840000000              0
46007015050000009000619092001202323432023201              V1100W 1000763030BIN 49073413   NB000000000000706874                  Y7015050000Y9999840000000              0
46007015050000009000619092001202323432023201              V1100W 1000763032BIN 49073468   NB000000000000706875                  Y4367610004Y0002840000000              0
46007015050000009000619092001202323432023201              V1100W 1000763033BIN 49073468   NB000000000000706875                  Y7030310002Y0002840000000              0
46007015050000009000619092001202323432023201              V1100W 1000763034BIN 49073468   NB000000000000706875                  Y4367610004Y0004840000000              0
46007015050000009000619092001202323432023201              V1100W 1000763035BIN 49073468   NB000000000000706875                  Y7030310004Y0004840000000              0
46007015050000009000619092001202323432023201              V1100W 1000763036BIN 49073468   NB000000000000706875                  Y3200320000Y9999840000000              0
46007015050000009000619092001202323432023201              V1100W 1000763036BIN 49073468   NB000000000000706875                  Y7015050000Y9999840000000              0
46007015050000009000619092001202323432023201              V1100W 1000763038BIN 49073490   NB000000000000706876                  Y4367610004Y0002840000000              0
46007015050000009000619092001202323432023201              V1100W 1000763039BIN 49073490   NB000000000000706876                  Y7030310002Y0002840000000              0
46007015050000009000619092001202323432023201              V1100W 1000763040BIN 49073490   NB000000000000706876                  Y4367610004Y0004840000000              0
46007015050000009000619092001202323432023201              V1100W 1000763041BIN 49073490   NB000000000000706876                  Y7030310004Y0004840000000              0
46007015050000009000619092001202323432023201              V1100W 1000763042BIN 49073490   NB000000000000706876                  Y3200320000Y9999840000000              0
46007015050000009000619092001202323432023201              V1100W 1000763042BIN 49073490   NB000000000000706876                  Y7015050000Y9999840000000              0
46007015050000009000619092001202323422023201              V1100W 1000751992SUM-477376 (I) N                                     N          N    840000                 0
46007015050000009000619092001202323432023201              V1100W 1000152284SIAM COMMERCIALNB000000000000477376                  Y3200320000Y9999840000000              0
46007015050000009000619092001202323432023201              V1100W 1000152284SIAM COMMERCIALNB000000000000477376                  Y7015050000Y9999840000000              0
46007015050000009000619092001202323432023201              V1100W 1000157762THE SIAM COMMERNB000000000000477376                  Y4367610004Y0002840000000              0
46007015050000009000619092001202323432023201              V1100W 1000157763THE SIAM COMMERNB000000000000477376                  Y7030310002Y0002840000000              0
46007015050000009000619092001202323432023201              V1100W 1000157764THE SIAM COMMERNB000000000000477376                  Y4367610004Y0004840000000              0
46007015050000009000619092001202323432023201              V1100W 1000157765THE SIAM COMMERNB000000000000477376                  Y7030310004Y0004840000000              0
46007015050000009000619092001202323432023201              V1100W 1000761791BIN 47737601   NB000000000000706802                  Y4367610004Y0002840000000              0
46007015050000009000619092001202323432023201              V1100W 1000761792BIN 47737601   NB000000000000706802                  Y7030310002Y0002840000000              0
46007015050000009000619092001202323432023201              V1100W 1000761793BIN 47737601   NB000000000000706802                  Y4367610004Y0004840000000              0
46007015050000009000619092001202323432023201              V1100W 1000761794BIN 47737601   NB000000000000706802                  Y7030310004Y0004840000000              0
46007015050000009000619092001202323432023201              V1100W 1000761795BIN 47737601   NB000000000000706802                  Y3200320000Y9999840000000              0
46007015050000009000619092001202323432023201              V1100W 1000761795BIN 47737601   NB000000000000706802                  Y7015050000Y9999840000000              0
46007015050000009000619092001202323432023201              V1100W 1000761797BIN 47737606   NB000000000000706803                  Y4367610004Y0002840000000              0
46007015050000009000619092001202323432023201              V1100W 1000761798BIN 47737606   NB000000000000706803                  Y7030310002Y0002840000000              0
46007015050000009000619092001202323432023201              V1100W 1000761799BIN 47737606   NB000000000000706803                  Y4367610004Y0004840000000              0
46007015050000009000619092001202323432023201              V1100W 1000761800BIN 47737606   NB000000000000706803                  Y7030310004Y0004840000000              0
46007015050000009000619092001202323432023201              V1100W 1000761801BIN 47737606   NB000000000000706803                  Y3200320000Y9999840000000              0
46007015050000009000619092001202323432023201              V1100W 1000761801BIN 47737606   NB000000000000706803                  Y7015050000Y9999840000000              0
46007015050000009000619092001202323432023201              V1100W 1000761803BIN 47737609   NB000000000000706804                  Y4367610004Y0002840000000              0
46007015050000009000619092001202323432023201              V1100W 1000761804BIN 47737609   NB000000000000706804                  Y7030310002Y0002840000000              0
46007015050000009000619092001202323432023201              V1100W 1000761805BIN 47737609   NB000000000000706804                  Y4367610004Y0004840000000              0
46007015050000009000619092001202323432023201              V1100W 1000761806BIN 47737609   NB000000000000706804                  Y7030310004Y0004840000000              0
46007015050000009000619092001202323432023201              V1100W 1000761807BIN 47737609   NB000000000000706804                  Y3200320000Y9999840000000              0
46007015050000009000619092001202323432023201              V1100W 1000761807BIN 47737609   NB000000000000706804                  Y7015050000Y9999840000000              0
46007015050000009000619092001202323432023201              V1100W 1000761809BIN 47737690   NB000000000000706805                  Y4367610004Y0002840000000              0
46007015050000009000619092001202323432023201              V1100W 1000761810BIN 47737690   NB000000000000706805                  Y7030310002Y0002840000000              0
46007015050000009000619092001202323432023201              V1100W 1000761811BIN 47737690   NB000000000000706805                  Y4367610004Y0004840000000              0
46007015050000009000619092001202323432023201              V1100W 1000761812BIN 47737690   NB000000000000706805                  Y7030310004Y0004840000000              0
46007015050000009000619092001202323432023201              V1100W 1000761813BIN 47737690   NB000000000000706805                  Y3200320000Y9999840000000              0
46007015050000009000619092001202323432023201              V1100W 1000761813BIN 47737690   NB000000000000706805                  Y7015050000Y9999840000000              0
46007015050000009000619092001202323422023201              V1100W 1000761737BIN 45485201   NB000000000000702800                  Y4367610004Y0002840000000              0
46007015050000009000619092001202323422023201              V1100W 1000761738BIN 45485201   NB000000000000702800                  Y7030310002Y0002840000000              0
46007015050000009000619092001202323422023201              V1100W 1000761739BIN 45485201   NB000000000000702800                  Y4367610004Y0004840000000              0
46007015050000009000619092001202323422023201              V1100W 1000761740BIN 45485201   NB000000000000702800                  Y7030310004Y0004840000000              0
46007015050000009000619092001202323422023201              V1100W 1000761741BIN 45485201   NB000000000000702800                  Y3200320000Y9999840000000              0
46007015050000009000619092001202323422023201              V1100W 1000761741BIN 45485201   NB000000000000702800                  Y7015050000Y9999840000000              0
46007015050000009000619092001202323422023201              V1100W 1000761767BIN 45485200   NB000000000000706799                  Y4367610004Y0002840000000              0
46007015050000009000619092001202323422023201              V1100W 1000761768BIN 45485200   NB000000000000706799                  Y7030310002Y0002840000000              0
46007015050000009000619092001202323422023201              V1100W 1000761769BIN 45485200   NB000000000000706799                  Y4367610004Y0004840000000              0
46007015050000009000619092001202323422023201              V1100W 1000761770BIN 45485200   NB000000000000706799                  Y7030310004Y0004840000000              0
46007015050000009000619092001202323422023201              V1100W 1000761771BIN 45485200   NB000000000000706799                  Y3200320000Y9999840000000              0
46007015050000009000619092001202323422023201              V1100W 1000761771BIN 45485200   NB000000000000706799                  Y7015050000Y9999840000000              0
46007015050000009000619092001202323422023201              V1100W 1000761773BIN 47737604   NB000000000000706774                  Y4367610004Y0002840000000              0
46007015050000009000619092001202323422023201              V1100W 1000761774BIN 47737604   NB000000000000706774                  Y7030310002Y0002840000000              0
46007015050000009000619092001202323422023201              V1100W 1000761775BIN 47737604   NB000000000000706774                  Y4367610004Y0004840000000              0
46007015050000009000619092001202323422023201              V1100W 1000761776BIN 47737604   NB000000000000706774                  Y7030310004Y0004840000000              0
46007015050000009000619092001202323422023201              V1100W 1000761777BIN 47737604   NB000000000000706774                  Y3200320000Y9999840000000              0
46007015050000009000619092001202323422023201              V1100W 1000761777BIN 47737604   NB000000000000706774                  Y7015050000Y9999840000000              0
46007015050000009000619092001202323422023201              V1100W 1000761779BIN 47737605   NB000000000000706775                  Y4367610004Y0002840000000              0
46007015050000009000619092001202323422023201              V1100W 1000761780BIN 47737605   NB000000000000706775                  Y7030310002Y0002840000000              0
46007015050000009000619092001202323422023201              V1100W 1000761781BIN 47737605   NB000000000000706775                  Y4367610004Y0004840000000              0
46007015050000009000619092001202323422023201              V1100W 1000761782BIN 47737605   NB000000000000706775                  Y7030310004Y0004840000000              0
46007015050000009000619092001202323422023201              V1100W 1000761783BIN 47737605   NB000000000000706775                  Y3200320000Y9999840000000              0
46007015050000009000619092001202323422023201              V1100W 1000761783BIN 47737605   NB000000000000706775                  Y7015050000Y9999840000000              0
46007015050000009000619092001202323422023201              V1100W 1000762467BIN 49073302   NB000000000000706776                  Y4367610004Y0002840000000              0
46007015050000009000619092001202323422023201              V1100W 1000762468BIN 49073302   NB000000000000706776                  Y7030310002Y0002840000000              0
46007015050000009000619092001202323422023201              V1100W 1000762469BIN 49073302   NB000000000000706776                  Y4367610004Y0004840000000              0
46007015050000009000619092001202323422023201              V1100W 1000762470BIN 49073302   NB000000000000706776                  Y7030310004Y0004840000000              0
46007015050000009000619092001202323422023201              V1100W 1000762471BIN 49073302   NB000000000000706776                  Y3200320000Y9999840000000              0
46007015050000009000619092001202323422023201              V1100W 1000762471BIN 49073302   NB000000000000706776                  Y7015050000Y9999840000000              0
46007015050000009000619092001202323422023201              V1100W 1000762473BIN 49073303   NB000000000000706777                  Y4367610004Y0002840000000              0
46007015050000009000619092001202323422023201              V1100W 1000762474BIN 49073303   NB000000000000706777                  Y7030310002Y0002840000000              0
46007015050000009000619092001202323422023201              V1100W 1000762475BIN 49073303   NB000000000000706777                  Y4367610004Y0004840000000              0
46007015050000009000619092001202323422023201              V1100W 1000762476BIN 49073303   NB000000000000706777                  Y7030310004Y0004840000000              0
46007015050000009000619092001202323422023201              V1100W 1000762477BIN 49073303   NB000000000000706777                  Y3200320000Y9999840000000              0
46007015050000009000619092001202323422023201              V1100W 1000762477BIN 49073303   NB000000000000706777                  Y7015050000Y9999840000000              0
46007015050000009000619092001202323422023201              V1100W 1000762479BIN 49073309   NB000000000000706778                  Y4367610004Y0002840000000              0
46007015050000009000619092001202323422023201              V1100W 1000762480BIN 49073309   NB000000000000706778                  Y7030310002Y0002840000000              0
46007015050000009000619092001202323422023201              V1100W 1000762481BIN 49073309   NB000000000000706778                  Y4367610004Y0004840000000              0
46007015050000009000619092001202323422023201              V1100W 1000762482BIN 49073309   NB000000000000706778                  Y7030310004Y0004840000000              0
46007015050000009000619092001202323422023201              V1100W 1000762483BIN 49073309   NB000000000000706778                  Y3200320000Y9999840000000              0
46007015050000009000619092001202323422023201              V1100W 1000762483BIN 49073309   NB000000000000706778                  Y7015050000Y9999840000000              0
46007015050000009000619092001202323422023201              V1100W 1000762485BIN 49073310   NB000000000000706779                  Y4367610004Y0002840000000              0
46007015050000009000619092001202323422023201              V1100W 1000762486BIN 49073310   NB000000000000706779                  Y7030310002Y0002840000000              0
46007015050000009000619092001202323422023201              V1100W 1000762487BIN 49073310   NB000000000000706779                  Y4367610004Y0004840000000              0
46007015050000009000619092001202323422023201              V1100W 1000762488BIN 49073310   NB000000000000706779                  Y7030310004Y0004840000000              0
46007015050000009000619092001202323422023201              V1100W 1000762489BIN 49073310   NB000000000000706779                  Y3200320000Y9999840000000              0
46007015050000009000619092001202323422023201              V1100W 1000762489BIN 49073310   NB000000000000706779                  Y7015050000Y9999840000000              0
46007015050000009000619092001202323422023201              V1100W 1000762491BIN 49073311   NB000000000000706780                  Y4367610004Y0002840000000              0
46007015050000009000619092001202323422023201              V1100W 1000762492BIN 49073311   NB000000000000706780                  Y7030310002Y0002840000000              0
46007015050000009000619092001202323422023201              V1100W 1000762493BIN 49073311   NB000000000000706780                  Y4367610004Y0004840000000              0
46007015050000009000619092001202323422023201              V1100W 1000762494BIN 49073311   NB000000000000706780                  Y7030310004Y0004840000000              0
46007015050000009000619092001202323422023201              V1100W 1000762495BIN 49073311   NB000000000000706780                  Y3200320000Y9999840000000              0
46007015050000009000619092001202323422023201              V1100W 1000762495BIN 49073311   NB000000000000706780                  Y7015050000Y9999840000000              0
46007015050000009000619092001202323422023201              V1100W 1000762497BIN 49073313   NB000000000000706781                  Y4367610004Y0002840000000              0
46007015050000009000619092001202323422023201              V1100W 1000762498BIN 49073313   NB000000000000706781                  Y7030310002Y0002840000000              0
46007015050000009000619092001202323422023201              V1100W 1000762499BIN 49073313   NB000000000000706781                  Y4367610004Y0004840000000              0
46007015050000009000619092001202323422023201              V1100W 1000762500BIN 49073313   NB000000000000706781                  Y7030310004Y0004840000000              0
46007015050000009000619092001202323422023201              V1100W 1000762501BIN 49073313   NB000000000000706781                  Y3200320000Y9999840000000              0
46007015050000009000619092001202323422023201              V1100W 1000762501BIN 49073313   NB000000000000706781                  Y7015050000Y9999840000000              0
46007015050000009000619092001202323422023201              V1100W 1000762503BIN 49073315   NB000000000000706782                  Y4367610004Y0002840000000              0
46007015050000009000619092001202323422023201              V1100W 1000762504BIN 49073315   NB000000000000706782                  Y7030310002Y0002840000000              0
46007015050000009000619092001202323422023201              V1100W 1000762505BIN 49073315   NB000000000000706782                  Y4367610004Y0004840000000              0
46007015050000009000619092001202323422023201              V1100W 1000762506BIN 49073315   NB000000000000706782                  Y7030310004Y0004840000000              0
46007015050000009000619092001202323422023201              V1100W 1000762507BIN 49073315   NB000000000000706782                  Y3200320000Y9999840000000              0
46007015050000009000619092001202323422023201              V1100W 1000762507BIN 49073315   NB000000000000706782                  Y7015050000Y9999840000000              0
46007015050000009000619092001202323422023201              V1100W 1000762509BIN 49073316   NB000000000000706783                  Y4367610004Y0002840000000              0
46007015050000009000619092001202323422023201              V1100W 1000762510BIN 49073316   NB000000000000706783                  Y7030310002Y0002840000000              0
46007015050000009000619092001202323422023201              V1100W 1000762511BIN 49073316   NB000000000000706783                  Y4367610004Y0004840000000              0
46007015050000009000619092001202323422023201              V1100W 1000762512BIN 49073316   NB000000000000706783                  Y7030310004Y0004840000000              0
46007015050000009000619092001202323422023201              V1100W 1000762513BIN 49073316   NB000000000000706783                  Y3200320000Y9999840000000              0
46007015050000009000619092001202323422023201              V1100W 1000762513BIN 49073316   NB000000000000706783                  Y4548520000Y9999840000000              0
46007015050000009000619092001202323422023201              V1100W 1000762972BIN 49073404   NB000000000000706785                  Y4367610004Y0002840000000              0
46007015050000009000619092001202323422023201              V1100W 1000762973BIN 49073404   NB000000000000706785                  Y7030310002Y0002840000000              0
46007015050000009000619092001202323422023201              V1100W 1000762974BIN 49073404   NB000000000000706785                  Y4367610004Y0004840000000              0
46007015050000009000619092001202323422023201              V1100W 1000762975BIN 49073404   NB000000000000706785                  Y7030310004Y0004840000000              0
46007015050000009000619092001202323422023201              V1100W 1000762976BIN 49073404   NB000000000000706785                  Y3200320000Y9999840000000              0
46007015050000009000619092001202323422023201              V1100W 1000762976BIN 49073404   NB000000000000706785                  Y4548520000Y9999840000000              0
46007015050000009000619092001202323422023201              V1100W 1000762984BIN 49073406   NB000000000000706786                  Y4367610004Y0002840000000              0
46007015050000009000619092001202323422023201              V1100W 1000762985BIN 49073406   NB000000000000706786                  Y7030310002Y0002840000000              0
46007015050000009000619092001202323422023201              V1100W 1000762986BIN 49073406   NB000000000000706786                  Y4367610004Y0004840000000              0
46007015050000009000619092001202323422023201              V1100W 1000762987BIN 49073406   NB000000000000706786                  Y7030310004Y0004840000000              0
46007015050000009000619092001202323422023201              V1100W 1000762988BIN 49073406   NB000000000000706786                  Y3200320000Y9999840000000              0
46007015050000009000619092001202323422023201              V1100W 1000762988BIN 49073406   NB000000000000706786                  Y4548520000Y9999840000000              0
46007015050000009000619092001202323422023201              V1100W 1000762996BIN 49073408   NB000000000000706787                  Y4367610004Y0002840000000              0
46007015050000009000619092001202323422023201              V1100W 1000762997BIN 49073408   NB000000000000706787                  Y7030310002Y0002840000000              0
46007015050000009000619092001202323422023201              V1100W 1000762998BIN 49073408   NB000000000000706787                  Y4367610004Y0004840000000              0
46007015050000009000619092001202323422023201              V1100W 1000762999BIN 49073408   NB000000000000706787                  Y7030310004Y0004840000000              0
46007015050000009000619092001202323422023201              V1100W 1000763000BIN 49073408   NB000000000000706787                  Y3200320000Y9999840000000              0
46007015050000009000619092001202323422023201              V1100W 1000763000BIN 49073408   NB000000000000706787                  Y4548520000Y9999840000000              0
46007015050000009000619092001202323422023201              V1100W 1000763002BIN 49073409   NB000000000000706788                  Y4367610004Y0002840000000              0
46007015050000009000619092001202323422023201              V1100W 1000763003BIN 49073409   NB000000000000706788                  Y7030310002Y0002840000000              0
46007015050000009000619092001202323422023201              V1100W 1000763004BIN 49073409   NB000000000000706788                  Y4367610004Y0004840000000              0
46007015050000009000619092001202323422023201              V1100W 1000763005BIN 49073409   NB000000000000706788                  Y7030310004Y0004840000000              0
46007015050000009000619092001202323422023201              V1100W 1000763006BIN 49073409   NB000000000000706788                  Y3200320000Y9999840000000              0
46007015050000009000619092001202323422023201              V1100W 1000763006BIN 49073409   NB000000000000706788                  Y4548520000Y9999840000000              0
46007015050000009000619092001202323422023201              V1100W 1000763179BIN 49661500   NB000000000000706789                  Y4367610004Y0002840000000              0
46007015050000009000619092001202323422023201              V1100W 1000763180BIN 49661500   NB000000000000706789                  Y7030310002Y0002840000000              0
46007015050000009000619092001202323422023201              V1100W 1000763181BIN 49661500   NB000000000000706789                  Y4367610004Y0004840000000              0
46007015050000009000619092001202323422023201              V1100W 1000763182BIN 49661500   NB000000000000706789                  Y7030310004Y0004840000000              0
46007015050000009000619092001202323422023201              V1100W 1000763183BIN 49661500   NB000000000000706789                  Y3200320000Y9999840000000              0
46007015050000009000619092001202323422023201              V1100W 1000763183BIN 49661500   NB000000000000706789                  Y4548520000Y9999840000000              0
46007015050000009000619092001202323422023201              V1100W 900061909347285800 (I)   NB000000000000701505                  Y3200320000Y9999840000000              0
46007015050000009000619092001202323422023201              V1100W 900061909347285800 (I)   NB000000000000701505                  Y7015050000Y9999840000000              0
46007015050000009000619092001202323422023201              V1100W 900061910148637200 (I)   NB000000000000701749                  Y3200320000Y9999840000000              0
46007015050000009000619092001202323422023201              V1100W 900061910148637200 (I)   NB000000000000701749                  Y7015050000Y9999840000000              0
46007015050000009000619092001202323422023201              V1100W 9000619386MVISA ORIG SUM N                                     N          N    840000                 0
46007015050000009000619092001202323432023201              V1100W 9000619380425317 INT     NB000000000000425317                  Y7015050000Y9999840000000              0
46007015050000009000619092001202323432023201              V1100W 9000619381425317MVISA INTNB000000000000425317                  Y4253170002Y0002840000000              0
46007015050000009000619092001202323432023201              V1100W 9000619382425317VROL INT NB000000000000425317                  Y7018970002Y0002840000000              0
46007015050000009000619092001202323422023201              V1100W 9000632543410517 SUM     N                                     N          N    840000                 0
46007015050000009000619092001202323432023201              V1100W 9000632544BIN 410517     NB000000000000410517                  Y7015050000Y9999840000000              0
46007015050000009000619092001202323432023201              V1100W 9000632547BIN 4105170002 NB000000000000410517                  Y4105170002Y0002840000000              0
46007015050000009000619092001202323432023201              V1100W 9000632549VROL 410517    NB000000000000410517                  Y7018970002Y0002840000000              0
46007015050000009000619093001202323412022009              V1100W 900061909347285800 (I)   NB000000000000701505                  Y3200320000Y9999840000000              0
46007015050000009000619093001202323412022009              V1100W 900061909347285800 (I)   NB000000000000701505                  Y7015050000Y9999840000000              0
46007015050000009000619101001202323412022009              V1100W 900061910148637200 (I)   NB000000000000701749                  Y3200320000Y9999840000000              0
46007015050000009000619101001202323412022009              V1100W 900061910148637200 (I)   NB000000000000701749                  Y7015050000Y9999840000000              0
46007015050000009000619380001202323412022009              V1100W 9000619380425317 INT     NB000000000000425317                  Y7015050000Y9999840000000              0
46007015050000009000619381001202323412022009              V1100W 9000619381425317MVISA INTNB000000000000425317                  Y4253170002Y0002840000000              0
46007015050000009000619382001202323412022009              V1100W 9000619382425317VROL INT NB000000000000425317                  Y7018970002Y0002840000000              0
46007015050000009000619386001202323412022009              V1100W 9000619386MVISA ORIG SUM N                                     N          N    840000                 0
46007015050000009000619386001202323422022009              V1100W 9000619380425317 INT     NB000000000000425317                  Y7015050000Y9999840000000              0
46007015050000009000619386001202323422022009              V1100W 9000619381425317MVISA INTNB000000000000425317                  Y4253170002Y0002840000000              0
46007015050000009000619386001202323422022009              V1100W 9000619382425317VROL INT NB000000000000425317                  Y7018970002Y0002840000000              0
46007015050000009000632543001202323412022100              V1100W 9000632543410517 SUM     N                                     N          N    840000                 0
46007015050000009000632543001202323422022100              V1100W 9000632544BIN 410517     NB000000000000410517                  Y7015050000Y9999840000000              0
46007015050000009000632543001202323422022100              V1100W 9000632547BIN 4105170002 NB000000000000410517                  Y4105170002Y0002840000000              0
46007015050000009000632543001202323422022100              V1100W 9000632549VROL 410517    NB000000000000410517                  Y7018970002Y0002840000000              0
46007015050000009000632544001202323412022100              V1100W 9000632544BIN 410517     NB000000000000410517                  Y7015050000Y9999840000000              0
46007015050000009000632547001202323412022100              V1100W 9000632547BIN 4105170002 NB000000000000410517                  Y4105170002Y0002840000000              0
46007015050000009000632549001202323412022100              V1100W 9000632549VROL 410517    NB000000000000410517                  Y7018970002Y0002840000000              0
910070150523234000000000000000000000000000000002000000000293000000        000000293000000000000000000000000000000000000000000000000000000000000000000000000000000       
4600701505000000900061909290006190929000619092001840      V2110  20232342023234              I1000000000000000000000000000000000000000000000000000000000000            0
4600701505000000900061909290006190929000619092001840      V2110  20232342023234              I2000000000000004000000000000000000000000003214000000000003214DB          0
4600701505000000900061909290006190929000619092001840      V2110  20232342023234              I3000000000000000000000000000000000000000000000000000000000000            0
4600701505000000900061909290006190929000619092001840      V2110  20232342023234              I9000000000000004000000000000000000000000003214000000000003214DB          0
4600701505000000900061909290006190929000619092001840      V2110  20232342023234              F1               000000000000000000000000000000000000000000000            0
4600701505000000900061909290006190929000619092001840      V2110  20232342023234              F2               000000000000009000000000000000000000000000009CR          0
4600701505000000900061909290006190929000619092001840      V2110  20232342023234              F3               000000000000000000000000000000000000000000000            0
4600701505000000900061909290006190929000619092001840      V2110  20232342023234              F9               000000000000009000000000000000000000000000009CR          0
4600701505000000900061909290006190929000619092001840      V2110  20232342023234              C1               000000000000000000000000000000000000000000000            0
4600701505000000900061909290006190929000619092001840      V2110  20232342023234              C2               000000000000000000000000000032000000000000032DB          0
4600701505000000900061909290006190929000619092001840      V2110  20232342023234              C3               000000000000000000000000000000000000000000000            0
4600701505000000900061909290006190929000619092001840      V2110  20232342023234              C9               000000000000000000000000000032000000000000032DB          0
4600701505000000900061909290006190929000619092001840      V2110  20232342023234              T1               000000000000000000000000000000000000000000000            0
4600701505000000900061909290006190929000619092001840      V2110  20232342023234              T2               000000000000009000000000003246000000000003237DB          0
4600701505000000900061909290006190929000619092001840      V2110  20232342023234              T3               000000000000000000000000000000000000000000000            0
4600701505000000900061909290006190929000619092001840      V2110  20232342023234              T9               000000000000009000000000003246000000000003237DB          0
4600701505000000900061909390006190929000619092001840Y     V2110  20232342023234                                                                                        0
4600701505000000900061910190006190929000619092001840Y     V2110  20232342023234                                                                                        0
4600701505000000900061938090006193869000619092001840Y     V2110  20232342023234                                                                                        0
4600701505000000900061938190006193869000619092001840Y     V2110  20232342023234                                                                                        0
4600701505000000900061938290006193869000619092001840Y     V2110  20232342023234                                                                                        0
4600701505000000900061938690006190929000619092001840Y     V2110  20232342023234                                                                                        0
4600701505000000900063254390006190929000619092001840Y     V2110  20232342023234                                                                                        0
4600701505000000900063254490006325439000619092001840Y     V2110  20232342023234                                                                                        0
4600701505000000900063254790006325439000619092001840Y     V2110  20232342023234                                                                                        0
4600701505000000900063254990006325439000619092001840Y     V2110  20232342023234                                                                                        0
4600701505000000100076301210000477899000619092001840I1    V3115  20232342023234                   0000000000000000000000000000000000000000000000000000000000000000000  0
4600701505000000100076301210000477899000619092001840F1    V3115  20232342023234                   0000000000000000000000000000000000000000000000000000000000000000000  0
4600701505000000100076301210000477899000619092001840C1    V3115  20232342023234                   0000000000000000000000000000000000000000000000000000000000000000000  0
4600701505000000100076301210000477899000619092001840T1    V3115  20232342023234                   0000000000000000000000000000000000000000000000000000000000000000000  0
4600701505000000100076301210000477899000619092001840I2    V3115  20232342023234              1001N0000000000000000000000000000000000001000000000000489000000000000489DB0
4600701505000000100076301210000477899000619092001840I2    V3115  20232342023234                   0000000000000000000000000000000000001000000000000489000000000000489DB0
4600701505000000100076301210000477899000619092001840F2    V3115  20232342023234                   0000000000000000000000000100000000000000000000000000000000000000001CR0
4600701505000000100076301210000477899000619092001840C2    V3115  20232342023234                   0000000000000000000000000000000000000000000000000005000000000000005DB0
4600701505000000100076301210000477899000619092001840T2    V3115  20232342023234                   0000000000000000000000000100000000001000000000000494000000000000493DB0
4600701505000000100076301210000477899000619092001840I3    V3115  20232342023234                   0000000000000000000000000000000000000000000000000000000000000000000  0
4600701505000000100076301210000477899000619092001840F3    V3115  20232342023234                   0000000000000000000000000000000000000000000000000000000000000000000  0
4600701505000000100076301210000477899000619092001840C3    V3115  20232342023234                   0000000000000000000000000000000000000000000000000000000000000000000  0
4600701505000000100076301210000477899000619092001840T3    V3115  20232342023234                   0000000000000000000000000000000000000000000000000000000000000000000  0
4600701505000000100076301210000477899000619092001840T9    V3115  20232342023234                   0000000000000000000000000100000000001000000000000494000000000000493DB0
4600701505000000100076302410000477899000619092001840I1    V3115  20232342023234                   0000000000000000000000000000000000000000000000000000000000000000000  0
4600701505000000100076302410000477899000619092001840F1    V3115  20232342023234                   0000000000000000000000000000000000000000000000000000000000000000000  0
4600701505000000100076302410000477899000619092001840C1    V3115  20232342023234                   0000000000000000000000000000000000000000000000000000000000000000000  0
4600701505000000100076302410000477899000619092001840T1    V3115  20232342023234                   0000000000000000000000000000000000000000000000000000000000000000000  0
4600701505000000100076302410000477899000619092001840I2    V3115  20232342023234              1001N0000000000000000000000000000000000002000000000002090000000000002090DB0
4600701505000000100076302410000477899000619092001840I2    V3115  20232342023234                   0000000000000000000000000000000000002000000000002090000000000002090DB0
4600701505000000100076302410000477899000619092001840F2    V3115  20232342023234                   0000000000000000000000000600000000000000000000000000000000000000006CR0
4600701505000000100076302410000477899000619092001840C2    V3115  20232342023234                   0000000000000000000000000000000000000000000000000021000000000000021DB0
4600701505000000100076302410000477899000619092001840T2    V3115  20232342023234                   0000000000000000000000000600000000002000000000002111000000000002105DB0
4600701505000000100076302410000477899000619092001840I3    V3115  20232342023234                   0000000000000000000000000000000000000000000000000000000000000000000  0
4600701505000000100076302410000477899000619092001840F3    V3115  20232342023234                   0000000000000000000000000000000000000000000000000000000000000000000  0
4600701505000000100076302410000477899000619092001840C3    V3115  20232342023234                   0000000000000000000000000000000000000000000000000000000000000000000  0
4600701505000000100076302410000477899000619092001840T3    V3115  20232342023234                   0000000000000000000000000000000000000000000000000000000000000000000  0
4600701505000000100076302410000477899000619092001840T9    V3115  20232342023234                   0000000000000000000000000600000000002000000000002111000000000002105DB0
4600701505000000900061909290006190929000619092001840I1    V3115  20232342023234                   0000000000000000000000000000000000000000000000000000000000000000000  0
4600701505000000900061909290006190929000619092001840F1    V3115  20232342023234                   0000000000000000000000000000000000000000000000000000000000000000000  0
4600701505000000900061909290006190929000619092001840C1    V3115  20232342023234                   0000000000000000000000000000000000000000000000000000000000000000000  0
4600701505000000900061909290006190929000619092001840T1    V3115  20232342023234                   0000000000000000000000000000000000000000000000000000000000000000000  0
4600701505000000900061909290006190929000619092001840I2    V3115  20232342023234              1001N0000000000000000000000000000000000004000000000003214000000000003214DB0
4600701505000000900061909290006190929000619092001840I2    V3115  20232342023234                   0000000000000000000000000000000000004000000000003214000000000003214DB0
4600701505000000900061909290006190929000619092001840F2    V3115  20232342023234                   0000000000000000000000000900000000000000000000000000000000000000009CR0
4600701505000000900061909290006190929000619092001840C2    V3115  20232342023234                   0000000000000000000000000000000000000000000000000032000000000000032DB0
4600701505000000900061909290006190929000619092001840T2    V3115  20232342023234                   0000000000000000000000000900000000004000000000003246000000000003237DB0
4600701505000000900061909290006190929000619092001840I3    V3115  20232342023234                   0000000000000000000000000000000000000000000000000000000000000000000  0
4600701505000000900061909290006190929000619092001840F3    V3115  20232342023234                   0000000000000000000000000000000000000000000000000000000000000000000  0
4600701505000000900061909290006190929000619092001840C3    V3115  20232342023234                   0000000000000000000000000000000000000000000000000000000000000000000  0
4600701505000000900061909290006190929000619092001840T3    V3115  20232342023234                   0000000000000000000000000000000000000000000000000000000000000000000  0
4600701505000000900061909290006190929000619092001840T9    V3115  20232342023234                   0000000000000000000000000900000000004000000000003246000000000003237DB0
4600701505000000900061909390006190929000619092001840  Y   V3115  20232342023234                                                                                        0
4600701505000000900061910190006190929000619092001840  Y   V3115  20232342023234                                                                                        0
4600701505000000900061938090006193869000619092001840  Y   V3115  20232342023234                                                                                        0
4600701505000000900061938190006193869000619092001840  Y   V3115  20232342023234                                                                                        0
4600701505000000900061938290006193869000619092001840  Y   V3115  20232342023234                                                                                        0
4600701505000000900061938690006190929000619092001840  Y   V3115  20232342023234                                                                                        0
4600701505000000900063254390006190929000619092001840  Y   V3115  20232342023234                                                                                        0
4600701505000000900063254490006325439000619092001840  Y   V3115  20232342023234                                                                                        0
4600701505000000900063254790006325439000619092001840  Y   V3115  20232342023234                                                                                        0
4600701505000000900063254990006325439000619092001840  Y   V3115  20232342023234                                                                                        0
4600701505000000900061938090006193869000619092001840  Y   V3116  20232342023234                                                                                        0
4600701505000000900061938190006193869000619092001840  Y   V3116  20232342023234                                                                                        0
4600701505000000900061938290006193869000619092001840  Y   V3116  20232342023234                                                                                        0
4600701505000000900061938690006190929000619092001840  Y   V3116  20232342023234                                                                                        0
4600701505000000900063254390006190929000619092001840  Y   V3116  20232342023234                                                                                        0
4600701505000000900063254490006325439000619092001840  Y   V3116  20232342023234                                                                                        0
4600701505000000900063254790006325439000619092001840  Y   V3116  20232342023234                                                                                        0
4600701505000000900063254990006325439000619092001840  Y   V3116  20232342023234                                                                                        0
46007015050000009000619092900061909290006190920018407642  V4120  20232342023234                 1001NN                              10                                 0
4601A0608  000000000000004               000000000116764DB000000000000000  000000000003214DB                                                                            
46007015050000009000619092900061909290006190920018407642  V4120  20232342023234                 100                                 05                                 0
4601       000000000000004               000000000116764DB000000000000000  000000000003214DB                                                                            
46007015050000009000619092900061909290006190920018407642  V4120  20232342023234                 100                                 06                                 0
4601                                                                       000000000003214DB                                                                            
46007015050000009000619092900061909290006190920018407642  V4120  20232342023234                                                     01                                 0
4601       000000000000004               000000000116764DB000000000000000  000000000003214DB                                                                            
46007015050000009000619092900061909290006190920018407642  V4120  20232342023234                                                     02                                 0
4601                                                                       000000000003214DB                                                                            
4600701505000000900061909390006190929000619092001       Y V4120  20232342023234                                                                                        0
4600701505000000900061910190006190929000619092001       Y V4120  20232342023234                                                                                        0
4600701505000000900061938090006193869000619092001       Y V4120  20232342023234                                                                                        0
4600701505000000900061938190006193869000619092001       Y V4120  20232342023234                                                                                        0
4600701505000000900061938290006193869000619092001       Y V4120  20232342023234                                                                                        0
4600701505000000900061938690006190929000619092001       Y V4120  20232342023234                                                                                        0
4600701505000000900063254390006190929000619092001       Y V4120  20232342023234                                                                                        0
4600701505000000900063254490006325439000619092001       Y V4120  20232342023234                                                                                        0
4600701505000000900063254790006325439000619092001       Y V4120  20232342023234                                                                                        0
4600701505000000900063254990006325439000619092001       Y V4120  20232342023234                                                                                        0
4600701505000000900061909290006190929000619092001840   2  V4130  20232342023234                 1001N 00Y      EUAPEEAINT CN CR     10                                 0
4601       000000000000004               000000000003214DB000000000000009CR000000000000000  000000000000000                                                             
4600701505000000900061909290006190929000619092001840   2  V4130  20232342023234                 100                                 05                                 0
4601       000000000000004               000000000003214DB000000000000009CR000000000000000                                                                              
4600701505000000900061909290006190929000619092001840   2  V4130  20232342023234                 100                                 06                                 0
4601                                                      000000000000009CR                                                                                             
4600701505000000900061909290006190929000619092001840   2  V4130  20232342023234                                                     01                                 0
4601                                                      000000000000009CR000000000000000                                                                              
4600701505000000900061909290006190929000619092001840   2  V4130  20232342023234                                                     02                                 0
4601                                                      000000000000009CR                                                                                             
4600701505000000900061909390006190929000619092001       Y V4130  20232342023234                                                                                        0
4600701505000000900061910190006190929000619092001       Y V4130  20232342023234                                                                                        0
4600701505000000900061938090006193869000619092001       Y V4130  20232342023234                                                                                        0
4600701505000000900061938190006193869000619092001       Y V4130  20232342023234                                                                                        0
4600701505000000900061938290006193869000619092001       Y V4130  20232342023234                                                                                        0
4600701505000000900061938690006190929000619092001       Y V4130  20232342023234                                                                                        0
4600701505000000900063254390006190929000619092001       Y V4130  20232342023234                                                                                        0
4600701505000000900063254490006325439000619092001       Y V4130  20232342023234                                                                                        0
4600701505000000900063254790006325439000619092001       Y V4130  20232342023234                                                                                        0
4600701505000000900063254990006325439000619092001       Y V4130  20232342023234                                                                                        0
4600701505000000100076301210000477899000619092001840   2  V4135  2023234202323420232132023234         00           EEAINT CN CR    D10                                 0
4601       000000000000001000000000000001000000000000489DB000000000000001CR000000000000489DB000000000000001CR000000000000000  000000000000000                           
4600701505000000100076301210000477899000619092001840   2  V4135  2023234202323420232132023234         00           EEAINT CN CR    C10                                 0
4601       000000000000000000000000000000000000000000000  000000000000000  000000000000000  000000000000000  000000000000000  000000000000000                           
4600701505000000100076301210000477899000619092001840   2  V4135  2023234202323420232132023234         00           EEAINT CN CR    N10                                 0
4601       000000000000001000000000000001000000000000489DB000000000000001CR000000000000489DB000000000000001CR                                                           
4600701505000000100076301210000477899000619092001840   2  V4135  2023234202323420232132023234         00                            08                                 0
4601       000000000000001000000000000001000000000000489DB000000000000001CR000000000000489DB000000000000001CR                                                           
4600701505000000100076301210000477899000619092001840   2  V4135  2023234202323420232132023234                                       01                                 0
4601       000000000000001000000000000001000000000000489DB000000000000001CR000000000000489DB000000000000001CR                                                           
4600701505000000100076302410000477899000619092001840   2  V4135  2023234202323420232132023234         00           EEAINT CN CR    D10                                 0
4601       000000000000002000000000000002000000000002090DB000000000000006CR000000000002090DB000000000000006CR000000000000000  000000000000000                           
4600701505000000100076302410000477899000619092001840   2  V4135  2023234202323420232132023234         00           EEAINT CN CR    C10                                 0
4601       000000000000000000000000000000000000000000000  000000000000000  000000000000000  000000000000000  000000000000000  000000000000000                           
910070150523234000000000000000000000000000000003000000000141000000        000000124000000000000000000000000000000000000000000000000000000000000000000000000000000       
4600701505000000100076302410000477899000619092001840   2  V4135  2023234202323420232132023234         00           EEAINT CN CR    N10                                 0
4601       000000000000002000000000000002000000000002090DB000000000000006CR000000000002090DB000000000000006CR                                                           
4600701505000000100076302410000477899000619092001840   2  V4135  2023234202323420232132023234         00                            08                                 0
4601       000000000000002000000000000002000000000002090DB000000000000006CR000000000002090DB000000000000006CR                                                           
4600701505000000100076302410000477899000619092001840   2  V4135  2023234202323420232132023234                                       01                                 0
4601       000000000000002000000000000002000000000002090DB000000000000006CR000000000002090DB000000000000006CR                                                           
4600701505000000900061909290006190929000619092001840   2  V4135  2023234202323420232132023234         00           EEAINT CN CR    D10                                 0
4601       000000000000004000000000000004000000000003214DB000000000000009CR000000000003214DB000000000000009CR000000000000000  000000000000000                           
4600701505000000900061909290006190929000619092001840   2  V4135  2023234202323420232132023234         00           EEAINT CN CR    C10                                 0
4601       000000000000000000000000000000000000000000000  000000000000000  000000000000000  000000000000000  000000000000000  000000000000000                           
4600701505000000900061909290006190929000619092001840   2  V4135  2023234202323420232132023234         00           EEAINT CN CR    N10                                 0
4601       000000000000004000000000000004000000000003214DB000000000000009CR000000000003214DB000000000000009CR                                                           
4600701505000000900061909290006190929000619092001840   2  V4135  2023234202323420232132023234         00                            08                                 0
4601       000000000000004000000000000004000000000003214DB000000000000009CR000000000003214DB000000000000009CR                                                           
4600701505000000900061909290006190929000619092001840   2  V4135  2023234202323420232132023234                                       01                                 0
4601       000000000000004000000000000004000000000003214DB000000000000009CR000000000003214DB000000000000009CR                                                           
4600701505000000900061938090006193869000619092001      0Y V4135  2023234202323420232132023234                                                                          0
4600701505000000900061938190006193869000619092001      0Y V4135  2023234202323420232132023234                                                                          0
4600701505000000900061938290006193869000619092001      0Y V4135  2023234202323420232132023234                                                                          0
4600701505000000900061938690006190929000619092001      0Y V4135  2023234202323420232132023234                                                                          0
4600701505000000900063254390006190929000619092001      0Y V4135  2023234202323420232132023234                                                                          0
4600701505000000900063254490006325439000619092001      0Y V4135  2023234202323420232132023234                                                                          0
4600701505000000900063254790006325439000619092001      0Y V4135  2023234202323420232132023234                                                                          0
4600701505000000900063254990006325439000619092001      0Y V4135  2023234202323420232132023234                                                                          0
4600701505000000900061909290006190929000619092001840   2  V4140  20232342023234              0041001N 00Y      EUAP                 09                                 0
4601       000000000000004               000000000003214DB000000000000000  000000000000000                                                                              
4600701505000000900061909290006190929000619092001840   2  V4140  20232342023234              004100                                 05                                 0
4601       000000000000004               000000000003214DB000000000000000  000000000000000                                                                              
4600701505000000900061909290006190929000619092001840   2  V4140  20232342023234              004100                                 06                                 0
4601                                                                                                                                                                    
4600701505000000900061909290006190929000619092001840   2  V4140  20232342023234              004                                    03                                 0
4601       000000000000004               000000000003214DB000000000000000  000000000000000                                                                              
4600701505000000900061909290006190929000619092001840   2  V4140  20232342023234              004                                    04                                 0
4601                                                                                                                                                                    
4600701505000000900061909290006190929000619092001840   2  V4140  20232342023234              0111001N 00Y      EUAP                 09                                 0
4601       000000000000004               000000000003214DB000000000000000  000000000000032DB                                                                            
4600701505000000900061909290006190929000619092001840   2  V4140  20232342023234              011100                                 05                                 0
4601       000000000000004               000000000003214DB000000000000000  000000000000032DB                                                                            
4600701505000000900061909290006190929000619092001840   2  V4140  20232342023234              011100                                 06                                 0
4601                                                                       000000000000032DB                                                                            
4600701505000000900061909290006190929000619092001840   2  V4140  20232342023234              011                                    03                                 0
4601       000000000000004               000000000003214DB000000000000000  000000000000032DB                                                                            
4600701505000000900061909290006190929000619092001840   2  V4140  20232342023234              011                                    04                                 0
4601                                                                       000000000000032DB                                                                            
4600701505000000900061909290006190929000619092001840   2  V4140  20232342023234                                                     01                                 0
4601                                                      000000000000000  000000000000032DB                                                                            
4600701505000000900061909290006190929000619092001840   2  V4140  20232342023234                                                     02                                 0
4601                                                                       000000000000032DB                                                                            
4600701505000000900061909390006190929000619092001       Y V4140  20232342023234                                                                                        0
4600701505000000900061910190006190929000619092001       Y V4140  20232342023234                                                                                        0
4600701505000000900061938090006193869000619092001       Y V4140  20232342023234                                                                                        0
4600701505000000900061938190006193869000619092001       Y V4140  20232342023234                                                                                        0
4600701505000000900061938290006193869000619092001       Y V4140  20232342023234                                                                                        0
4600701505000000900061938690006190929000619092001       Y V4140  20232342023234                                                                                        0
4600701505000000900063254390006190929000619092001       Y V4140  20232342023234                                                                                        0
4600701505000000900063254490006325439000619092001       Y V4140  20232342023234                                                                                        0
4600701505000000900063254790006325439000619092001       Y V4140  20232342023234                                                                                        0
4600701505000000900063254990006325439000619092001       Y V4140  20232342023234                                                                                        0
46007015050000009000619092900061909290006190920018407642  V4210  20232342023234                 1001N 00                            08                                 0
4601                                     000000000003214DB000000000000000  000000000113916DB000000000000000  000000000002848DB                                          
46007015050000009000619092900061909290006190920018407642  V4210  20232342023234                 100                                 05                                 0
4601                                     000000000003214DB000000000000000  000000000113916DB000000000000000  000000000002848DB                                          
46007015050000009000619092900061909290006190920018407642  V4210  20232342023234                                                     01                                 0
4601                                     000000000003214DB000000000000000  000000000113916DB000000000000000  000000000002848DB                                          
4600701505000000900061909390006190929000619092001       Y V4210  20232342023234                                                                                        0
4600701505000000900061910190006190929000619092001       Y V4210  20232342023234                                                                                        0
4600701505000000900061938090006193869000619092001       Y V4210  20232342023234                                                                                        0
4600701505000000900061938190006193869000619092001       Y V4210  20232342023234                                                                                        0
4600701505000000900061938290006193869000619092001       Y V4210  20232342023234                                                                                        0
4600701505000000900061938690006190929000619092001       Y V4210  20232342023234                                                                                        0
4600701505000000900063254390006190929000619092001       Y V4210  20232342023234                                                                                        0
4600701505000000900063254490006325439000619092001       Y V4210  20232342023234                                                                                        0
4600701505000000900063254790006325439000619092001       Y V4210  20232342023234                                                                                        0
4600701505000000900063254990006325439000619092001       Y V4210  20232342023234                                                                                        0
46007015050000001000763012100004778990006190920018407642  V4215  20232342023234                 1001N 00                            08                                 0
4601                                     000000000000489DB000000000000005DB000000000017318DB000000000000173DB000000000000000                                            
46007015050000001000763012100004778990006190920018407642  V4215  20232342023234                 100                                 05                                 0
4601                                     000000000000489DB000000000000005DB000000000017318DB000000000000173DB000000000000000                                            
46007015050000001000763012100004778990006190920018407642  V4215  20232342023234                                                     01                                 0
4601                                     000000000000489DB000000000000005DB000000000017318DB000000000000173DB000000000000000                                            
46007015050000001000763024100004778990006190920018407642  V4215  20232342023234                 1001N 00                            08                                 0
4601                                     000000000002090DB000000000000021DB000000000074084DB000000000000740DB000000000000000                                            
