9070150523252      2325200400TEST 0000      000000000000000000CRDX2022      001                                                                                         
5600701505400020A00484009090712827107128271A00497109090510000005100000A00884009090710050308995917A01284009090872933208729253A03184009090911799409117302A0622            
5601A03194409090920000009200000A03284009090815122408285735A03682609090651282506510430A03684009090664179906636501A03697809090659825206594779A04484009090510000005100000  
5600701505400020A04884009090526590005265900A05084009090891324208909091A05184009090825997008258625A05284009090650251306502513A06084009090510000005100000A0622            
5601A06435609090510000005100000A06484009090712063407120204A06884009090614577306143678A07284009090773200007730000A07684009090620150306200164A08484009090650441406504414  
5600701505400020A09084009090612280006115300A09670209090510000005100000A09684009090673453706731423A10484009090947619009474766A10884009090935578209355782A0622            
5601A11684009090924050009240500A12403609090511512305114202A12482609090658910506585174A12484009090673496906730301A12497809090668634506682079A13284009090897456008969665  
5600701505400020A13684009090512000005120000A14484009090831140508310198A15284009090811176908111371A15684009090613633606136268A17084009090924716809247168A0622            
5601A17484009090821842908217332A18884009090818735008184969A19184009090614262406141907A19284009090741666707416667A19684009090518360605182684A20382609090735308207350341  
5600701505400020A20384009090744109207437063A20397809090741124007408682A20882609090611522106114857A20884009090614407806143351A20897809090613414606133998A0622            
5601A21484009090717658807175715A22284009090611428606114286A22684009090816382208162999A23084009090718136007179564A23284009090766666707666667A23384009090768679407683344  
5600701505400020A23882609090510000005100000A23884009090512517005124490A24284009090644000006428000A26284009090856322208563222A27084009090716736407167364A0622            
5601A28884009090787719307872600A28893609090510000005100000A29282609090510000005100000A29284009090512517005124490A32084009090612712906126807A32484009090911788309117883  
5600701505400020A32884009090847796608477966A33284009090873631108736311A34084009090740733207407332A34482609090610244506101932A34484009090612763106127507A0622            
5601A34497809090611934306118752A34884009090827929008275657A35220809090752058107518344A35284009090874646408746464A35684009090712063407120204A36084009091065240110651636  
5600701505400020A36484009091023809510238095A36584009090911805009118050A36884009090976335909763359A37684009090626132806259061A38884009090865197508651975A0622            
5601A39203609090710683407105889A39234409090753454907530173A39282609090854613708542144A39284009090868226708676133A39297809090863679708631418A39884009090821559208215109  
5600701505400020A40084009090514124305140845A40484009090868422908683293A40884009090645454506454545A41084009090975128709750235A41484009090532418105324076A0622            
5601A41784009090711363607113636A41884009091054033610502639A42284009091011695910116959A42671009090510000005100000A42684009090752584207520563A42884009090515290205152134  
5600701505400020A43084009090853475908534759A43484009090620643706206437A44084009090631122506309662A44684009090612396706123725A45084009091044793810447938A0622            
5601A45096909090620000006200000A45484009090990514509887493A45884009090621411006213447A46284009090764850807645161A47084009090525031405249057A47884009090826371308263713  
5600701505400020A48084009090722130307218804A48412409090778381207774280A48484009090757356807568935A49684009090928918409289184A49884009090756084607560846A0622            
5601A50484009090798685607986856A50884009091015810310158103A50894309090810000008100000A51284009090525980805259707A51671009090510000005100000A51684009090752584207520563  
5600701505400020A52406409090662500006625000A52435609090662500006625000A52484009090875396508751275A53284009090655865906558659A53384009090655865906558659A0622            
5601A54884009090883626008788861A55403609090692456306920123A55484009090659209906586801A55884009090727389207273892A56684009090812976108129761A57820809090665405806649787  
5600701505400020A57882609090775252507746960A57884009090794127307931308A57897809090787709207870916A58684009090832813908327709A59084009090510000005100000A0622            
5601A59884009090627700006269500A60084009090913780709137648A60484009090626946906269027A60884009090717649107176429A62484009090816382208162999A62684009090510000005100000  
5600701505400020A63484009090627472506274725A64284009091021658610214962A64294609090910000009100000A64384009090710299607100857A64684009090984359709831670A0622            
5601A65482609090510000005100000A65484009090512517005124490A67884009091043743010437430A68284009090626662406266596A69084009090772851307728513A69484009091045473810450213  
5600701505400020A69492509090810000008100000A70203609090511511405114385A70284009090673453706731423A70384009090735670107354910A70484009091041493810414938A0622            
5601A70584009090844842208446170A70684009090817667808176678A71082609090742064007417030A71084009090752584207520563A71097809090749051607486089A71684009090827631908276319  
5600701505400020A72884009090810085409978729A73684009091016690110165659A73693809090710000007100000A73784009090838565408385654A74084009090726130107256049A0622            
5601A74871009090510000005100000A74884009090752584207520563A75220809090662800706624654A75257809090696645406956432A75282609090772284207718069A75284009090790424807895537  
5600701505400020A75297809090784182007836981A75682609090689990406897023A75684009090511244805111782A75697809090510487605104463A76084009090915309209153092A0622            
5601A76484009090728232607280427A77684009090642765006408150A78084009090614862406148624A78484009090627230906272213A78884009090631918306318066A79284009091237309512371424  
5600701505400020A79294909091110000011100000A79584009091057290210572902A79593409090920000009200000A80084009090926806909268069A80784009090717396707173967A0622            
5601A81064309090510000005100000A81084009090710299607100857A81884009090732437207323012A82684009090512517005124490A82697809090511669505116371A83484009090940980609405749  
5600701505400020A84084009090510000005100000A85884009090726235007262350A86084009091082439610824396A86284009090730069107299939A86293709090810000008100000A0622            
5601A88284009090636870006349200A88684009090840000008399202A89184009090891499708914077A89194109090510000005100000A89484009091048010010473732A90184009090731175007311653  
5600701505400020A92584009090745473807450213A92884009090730069107299939A92984009090726371307263713A93084009090743743007437430A93284009090922846909203260A0622            
5601A93384009090630509206305092A93484009090628645106286451A93684009090787719307872600A93784009090730069107299939A93792809091010000010100000A93884009090816690108165659  
5600701505400020A94184009090891499708914077A94384009090715810307158103A94484009090658997106586510A94684009090621658606214962A94982609090729922307296799A0622            
5601A94984009090737309507371424A94997809090734878807345742A95084009090816382208162999A95184009090637200006372000A95284009090816382208162999A95384009090890051408895990  
5600701505400020A96784009090748010007473732A96884009090726130107256049A96984009090922396909223969A97184009090712827107128271A97284009090791238407912384A0622            
5601A97384009090812119408121194A97484009091030509210305092A97584009090654943406546674A97684009090941185509395704A97784009090654943406546674A97813209090311026503110265  
5600701505400020A97817409090349196803491968A97819109090575345005753450A97819609090658527406585274A97822609090365595703655957A97823309090415646604156466A0622            
5601A97842809090670280406702804A97844009090534528005345280A97847009090642930006429300A97862409090365595703655957A97870309090430126004301260A97870509090323964003239640  
5600701505400020A97884009090510746005106920A97895009090365595703655957A97895209090365595703655957A97895309090311933203119332A97897509090519558305195583A0622            
5601A97897709090519558305195583A98084009090727345907273459A98184009090638485206377886A98582609090618671806185049A98584009090623322506230761A98597809090621764706215672  
5600701505400020A98684009090620150306200164                                                                                                            A0622            
910070150523252000000000000000000000000000000001000000000050000000        000000026000000000000000000000000000000000000000000000000000000000000000000000000000000       
46007015050000009000619092001202325212023250              V1100W 9000619092CARDX          Y                                     N          N    840000                 0
46007015050000009000619092001202325222023250              V1100W 1000047788SUM-490733 (I) N                                     N          N    840000                 0
46007015050000009000619092001202325232023250              V1100W 0006490733SCBS 490733 (I)NB000000000000490733                  Y3200320000Y9999840000000              0
46007015050000009000619092001202325232023250              V1100W 0006490733SCBS 490733 (I)NB000000000000490733                  Y7015050000Y9999840000000              0
46007015050000009000619092001202325232023250              V1100W 1000032976SCBS490733-2(I)NB000000000000490733                  Y4367610004Y0002840000000              0
46007015050000009000619092001202325232023250              V1100W 1000032977BOAS490733-2(I)NB000000000000490733                  Y7030310002Y0002840000000              0
46007015050000009000619092001202325232023250              V1100W 1000032978SCBS490733-4(I)NB000000000000490733                  Y4367610004Y0004840000000              0
46007015050000009000619092001202325232023250              V1100W 1000032979BOAS490733-4(I)NB000000000000490733                  Y7030310004Y0004840000000              0
46007015050000009000619092001202325232023250              V1100W 1000762515BIN 49073304   NB000000000000706808                  Y4367610004Y0002840000000              0
46007015050000009000619092001202325232023250              V1100W 1000762516BIN 49073304   NB000000000000706808                  Y7030310002Y0002840000000              0
46007015050000009000619092001202325232023250              V1100W 1000762517BIN 49073304   NB000000000000706808                  Y4367610004Y0004840000000              0
46007015050000009000619092001202325232023250              V1100W 1000762518BIN 49073304   NB000000000000706808                  Y7030310004Y0004840000000              0
46007015050000009000619092001202325232023250              V1100W 1000762519BIN 49073304   NB000000000000706808                  Y3200320000Y9999840000000              0
46007015050000009000619092001202325232023250              V1100W 1000762519BIN 49073304   NB000000000000706808                  Y7015050000Y9999840000000              0
46007015050000009000619092001202325232023250              V1100W 1000762521BIN 49073307   NB000000000000706809                  Y4367610004Y0002840000000              0
46007015050000009000619092001202325232023250              V1100W 1000762522BIN 49073307   NB000000000000706809                  Y7030310002Y0002840000000              0
46007015050000009000619092001202325232023250              V1100W 1000762523BIN 49073307   NB000000000000706809                  Y4367610004Y0004840000000              0
46007015050000009000619092001202325232023250              V1100W 1000762524BIN 49073307   NB000000000000706809                  Y7030310004Y0004840000000              0
46007015050000009000619092001202325232023250              V1100W 1000762525BIN 49073307   NB000000000000706809                  Y3200320000Y9999840000000              0
46007015050000009000619092001202325232023250              V1100W 1000762525BIN 49073307   NB000000000000706809                  Y7015050000Y9999840000000              0
46007015050000009000619092001202325232023250              V1100W 1000762527BIN 49073308   NB000000000000706810                  Y4367610004Y0002840000000              0
46007015050000009000619092001202325232023250              V1100W 1000762528BIN 49073308   NB000000000000706810                  Y7030310002Y0002840000000              0
46007015050000009000619092001202325232023250              V1100W 1000762529BIN 49073308   NB000000000000706810                  Y4367610004Y0004840000000              0
46007015050000009000619092001202325232023250              V1100W 1000762530BIN 49073308   NB000000000000706810                  Y7030310004Y0004840000000              0
46007015050000009000619092001202325232023250              V1100W 1000762531BIN 49073308   NB000000000000706810                  Y3200320000Y9999840000000              0
46007015050000009000619092001202325232023250              V1100W 1000762531BIN 49073308   NB000000000000706810                  Y7015050000Y9999840000000              0
46007015050000009000619092001202325232023250              V1100W 1000762533BIN 49073312   NB000000000000706811                  Y4367610004Y0002840000000              0
46007015050000009000619092001202325232023250              V1100W 1000762534BIN 49073312   NB000000000000706811                  Y7030310002Y0002840000000              0
46007015050000009000619092001202325232023250              V1100W 1000762535BIN 49073312   NB000000000000706811                  Y4367610004Y0004840000000              0
46007015050000009000619092001202325232023250              V1100W 1000762536BIN 49073312   NB000000000000706811                  Y7030310004Y0004840000000              0
46007015050000009000619092001202325232023250              V1100W 1000762537BIN 49073312   NB000000000000706811                  Y3200320000Y9999840000000              0
46007015050000009000619092001202325232023250              V1100W 1000762537BIN 49073312   NB000000000000706811                  Y7015050000Y9999840000000              0
46007015050000009000619092001202325232023250              V1100W 1000762539BIN 49073317   NB000000000000706812                  Y4367610004Y0002840000000              0
46007015050000009000619092001202325232023250              V1100W 1000762540BIN 49073317   NB000000000000706812                  Y7030310002Y0002840000000              0
46007015050000009000619092001202325232023250              V1100W 1000762541BIN 49073317   NB000000000000706812                  Y4367610004Y0004840000000              0
46007015050000009000619092001202325232023250              V1100W 1000762542BIN 49073317   NB000000000000706812                  Y7030310004Y0004840000000              0
46007015050000009000619092001202325232023250              V1100W 1000762543BIN 49073317   NB000000000000706812                  Y3200320000Y9999840000000              0
46007015050000009000619092001202325232023250              V1100W 1000762543BIN 49073317   NB000000000000706812                  Y7015050000Y9999840000000              0
46007015050000009000619092001202325232023250              V1100W 1000762545BIN 49073318   NB000000000000706813                  Y4367610004Y0002840000000              0
46007015050000009000619092001202325232023250              V1100W 1000762546BIN 49073318   NB000000000000706813                  Y7030310002Y0002840000000              0
46007015050000009000619092001202325232023250              V1100W 1000762547BIN 49073318   NB000000000000706813                  Y4367610004Y0004840000000              0
46007015050000009000619092001202325232023250              V1100W 1000762548BIN 49073318   NB000000000000706813                  Y7030310004Y0004840000000              0
46007015050000009000619092001202325232023250              V1100W 1000762549BIN 49073318   NB000000000000706813                  Y3200320000Y9999840000000              0
46007015050000009000619092001202325232023250              V1100W 1000762549BIN 49073318   NB000000000000706813                  Y7015050000Y9999840000000              0
46007015050000009000619092001202325232023250              V1100W 1000762551BIN 49073319   NB000000000000706814                  Y4367610004Y0002840000000              0
46007015050000009000619092001202325232023250              V1100W 1000762552BIN 49073319   NB000000000000706814                  Y7030310002Y0002840000000              0
46007015050000009000619092001202325232023250              V1100W 1000762553BIN 49073319   NB000000000000706814                  Y4367610004Y0004840000000              0
46007015050000009000619092001202325232023250              V1100W 1000762554BIN 49073319   NB000000000000706814                  Y7030310004Y0004840000000              0
46007015050000009000619092001202325232023250              V1100W 1000762555BIN 49073319   NB000000000000706814                  Y3200320000Y9999840000000              0
46007015050000009000619092001202325232023250              V1100W 1000762555BIN 49073319   NB000000000000706814                  Y7015050000Y9999840000000              0
46007015050000009000619092001202325232023250              V1100W 1000762557BIN 49073320   NB000000000000706815                  Y4367610004Y0002840000000              0
46007015050000009000619092001202325232023250              V1100W 1000762558BIN 49073320   NB000000000000706815                  Y7030310002Y0002840000000              0
46007015050000009000619092001202325232023250              V1100W 1000762559BIN 49073320   NB000000000000706815                  Y4367610004Y0004840000000              0
46007015050000009000619092001202325232023250              V1100W 1000762560BIN 49073320   NB000000000000706815                  Y7030310004Y0004840000000              0
46007015050000009000619092001202325232023250              V1100W 1000762561BIN 49073320   NB000000000000706815                  Y3200320000Y9999840000000              0
46007015050000009000619092001202325232023250              V1100W 1000762561BIN 49073320   NB000000000000706815                  Y7015050000Y9999840000000              0
46007015050000009000619092001202325232023250              V1100W 1000762563BIN 49073390   NB000000000000706816                  Y4367610004Y0002840000000              0
46007015050000009000619092001202325232023250              V1100W 1000762564BIN 49073390   NB000000000000706816                  Y7030310002Y0002840000000              0
46007015050000009000619092001202325232023250              V1100W 1000762565BIN 49073390   NB000000000000706816                  Y4367610004Y0004840000000              0
46007015050000009000619092001202325232023250              V1100W 1000762566BIN 49073390   NB000000000000706816                  Y7030310004Y0004840000000              0
46007015050000009000619092001202325232023250              V1100W 1000762567BIN 49073390   NB000000000000706816                  Y3200320000Y9999840000000              0
46007015050000009000619092001202325232023250              V1100W 1000762567BIN 49073390   NB000000000000706816                  Y7015050000Y9999840000000              0
46007015050000009000619092001202325222023250              V1100W 1000047789SUM-490734 (I) N                                     N          N    840000                 0
46007015050000009000619092001202325232023250              V1100W 0006490734SCBS49073400(I)NB000000000000490734                  Y3200320000Y9999840000000              0
46007015050000009000619092001202325232023250              V1100W 0006490734SCBS49073400(I)NB000000000000490734                  Y4548520000Y9999840000000              0
46007015050000009000619092001202325232023250              V1100W 1000032980BIN 49073400   NB000000000000490734                  Y4367610004Y0002840000000              0
46007015050000009000619092001202325232023250              V1100W 1000032981BIN 49073400   NB000000000000490734                  Y7030310002Y0002840000000              0
46007015050000009000619092001202325232023250              V1100W 1000032982BIN 49073400   NB000000000000490734                  Y4367610004Y0004840000000              0
46007015050000009000619092001202325232023250              V1100W 1000032983BIN 49073400   NB000000000000490734                  Y7030310004Y0004840000000              0
46007015050000009000619092001202325232023250              V1100W 1000762960BIN 49073402   NB000000000000706817                  Y4367610004Y0002840000000              0
46007015050000009000619092001202325232023250              V1100W 1000762961BIN 49073402   NB000000000000706817                  Y7030310002Y0002840000000              0
46007015050000009000619092001202325232023250              V1100W 1000762962BIN 49073402   NB000000000000706817                  Y4367610004Y0004840000000              0
46007015050000009000619092001202325232023250              V1100W 1000762963BIN 49073402   NB000000000000706817                  Y7030310004Y0004840000000              0
46007015050000009000619092001202325232023250              V1100W 1000762964BIN 49073402   NB000000000000706817                  Y3200320000Y9999840000000              0
46007015050000009000619092001202325232023250              V1100W 1000762964BIN 49073402   NB000000000000706817                  Y7015050000Y9999840000000              0
46007015050000009000619092001202325232023250              V1100W 1000762966BIN 49073403   NB000000000000706818                  Y4367610004Y0002840000000              0
46007015050000009000619092001202325232023250              V1100W 1000762967BIN 49073403   NB000000000000706818                  Y7030310002Y0002840000000              0
46007015050000009000619092001202325232023250              V1100W 1000762968BIN 49073403   NB000000000000706818                  Y4367610004Y0004840000000              0
46007015050000009000619092001202325232023250              V1100W 1000762969BIN 49073403   NB000000000000706818                  Y7030310004Y0004840000000              0
46007015050000009000619092001202325232023250              V1100W 1000762970BIN 49073403   NB000000000000706818                  Y3200320000Y9999840000000              0
46007015050000009000619092001202325232023250              V1100W 1000762970BIN 49073403   NB000000000000706818                  Y7015050000Y9999840000000              0
46007015050000009000619092001202325232023250              V1100W 1000762978BIN 49073405   NB000000000000706819                  Y4367610004Y0002840000000              0
46007015050000009000619092001202325232023250              V1100W 1000762979BIN 49073405   NB000000000000706819                  Y7030310002Y0002840000000              0
46007015050000009000619092001202325232023250              V1100W 1000762980BIN 49073405   NB000000000000706819                  Y4367610004Y0004840000000              0
46007015050000009000619092001202325232023250              V1100W 1000762981BIN 49073405   NB000000000000706819                  Y7030310004Y0004840000000              0
46007015050000009000619092001202325232023250              V1100W 1000762982BIN 49073405   NB000000000000706819                  Y3200320000Y9999840000000              0
46007015050000009000619092001202325232023250              V1100W 1000762982BIN 49073405   NB000000000000706819                  Y7015050000Y9999840000000              0
46007015050000009000619092001202325232023250              V1100W 1000762990BIN 49073407   NB000000000000706820                  Y4367610004Y0002840000000              0
46007015050000009000619092001202325232023250              V1100W 1000762991BIN 49073407   NB000000000000706820                  Y7030310002Y0002840000000              0
46007015050000009000619092001202325232023250              V1100W 1000762992BIN 49073407   NB000000000000706820                  Y4367610004Y0004840000000              0
46007015050000009000619092001202325232023250              V1100W 1000762993BIN 49073407   NB000000000000706820                  Y7030310004Y0004840000000              0
46007015050000009000619092001202325232023250              V1100W 1000762994BIN 49073407   NB000000000000706820                  Y3200320000Y9999840000000              0
46007015050000009000619092001202325232023250              V1100W 1000762994BIN 49073407   NB000000000000706820                  Y7015050000Y9999840000000              0
46007015050000009000619092001202325232023250              V1100W 1000763008BIN 49073410   NB000000000000706821                  Y4367610004Y0002840000000              0
46007015050000009000619092001202325232023250              V1100W 1000763009BIN 49073410   NB000000000000706821                  Y7030310002Y0002840000000              0
46007015050000009000619092001202325232023250              V1100W 1000763010BIN 49073410   NB000000000000706821                  Y4367610004Y0004840000000              0
46007015050000009000619092001202325232023250              V1100W 1000763011BIN 49073410   NB000000000000706821                  Y7030310004Y0004840000000              0
46007015050000009000619092001202325232023250              V1100W 1000763012BIN 49073410   NB000000000000706821                  Y3200320000Y9999840000000              0
46007015050000009000619092001202325232023250              V1100W 1000763012BIN 49073410   NB000000000000706821                  Y4548520000Y9999840000000              0
46007015050000009000619092001202325232023250              V1100W 1000763014BIN 49073411   NB000000000000706822                  Y4367610004Y0002840000000              0
46007015050000009000619092001202325232023250              V1100W 1000763015BIN 49073411   NB000000000000706822                  Y7030310002Y0002840000000              0
46007015050000009000619092001202325232023250              V1100W 1000763016BIN 49073411   NB000000000000706822                  Y4367610004Y0004840000000              0
46007015050000009000619092001202325232023250              V1100W 1000763017BIN 49073411   NB000000000000706822                  Y7030310004Y0004840000000              0
46007015050000009000619092001202325232023250              V1100W 1000763018BIN 49073411   NB000000000000706822                  Y3200320000Y9999840000000              0
46007015050000009000619092001202325232023250              V1100W 1000763018BIN 49073411   NB000000000000706822                  Y7015050000Y9999840000000              0
46007015050000009000619092001202325232023250              V1100W 1000763020BIN 49073412   NB000000000000706873                  Y4367610004Y0002840000000              0
46007015050000009000619092001202325232023250              V1100W 1000763021BIN 49073412   NB000000000000706873                  Y7030310002Y0002840000000              0
46007015050000009000619092001202325232023250              V1100W 1000763022BIN 49073412   NB000000000000706873                  Y4367610004Y0004840000000              0
46007015050000009000619092001202325232023250              V1100W 1000763023BIN 49073412   NB000000000000706873                  Y7030310004Y0004840000000              0
46007015050000009000619092001202325232023250              V1100W 1000763024BIN 49073412   NB000000000000706873                  Y3200320000Y9999840000000              0
46007015050000009000619092001202325232023250              V1100W 1000763024BIN 49073412   NB000000000000706873                  Y7015050000Y9999840000000              0
46007015050000009000619092001202325232023250              V1100W 1000763026BIN 49073413   NB000000000000706874                  Y4367610004Y0002840000000              0
46007015050000009000619092001202325232023250              V1100W 1000763027BIN 49073413   NB000000000000706874                  Y7030310002Y0002840000000              0
46007015050000009000619092001202325232023250              V1100W 1000763028BIN 49073413   NB000000000000706874                  Y4367610004Y0004840000000              0
46007015050000009000619092001202325232023250              V1100W 1000763029BIN 49073413   NB000000000000706874                  Y7030310004Y0004840000000              0
46007015050000009000619092001202325232023250              V1100W 1000763030BIN 49073413   NB000000000000706874                  Y3200320000Y9999840000000              0
46007015050000009000619092001202325232023250              V1100W 1000763030BIN 49073413   NB000000000000706874                  Y7015050000Y9999840000000              0
46007015050000009000619092001202325232023250              V1100W 1000763032BIN 49073468   NB000000000000706875                  Y4367610004Y0002840000000              0
46007015050000009000619092001202325232023250              V1100W 1000763033BIN 49073468   NB000000000000706875                  Y7030310002Y0002840000000              0
46007015050000009000619092001202325232023250              V1100W 1000763034BIN 49073468   NB000000000000706875                  Y4367610004Y0004840000000              0
46007015050000009000619092001202325232023250              V1100W 1000763035BIN 49073468   NB000000000000706875                  Y7030310004Y0004840000000              0
46007015050000009000619092001202325232023250              V1100W 1000763036BIN 49073468   NB000000000000706875                  Y3200320000Y9999840000000              0
46007015050000009000619092001202325232023250              V1100W 1000763036BIN 49073468   NB000000000000706875                  Y7015050000Y9999840000000              0
46007015050000009000619092001202325232023250              V1100W 1000763038BIN 49073490   NB000000000000706876                  Y4367610004Y0002840000000              0
46007015050000009000619092001202325232023250              V1100W 1000763039BIN 49073490   NB000000000000706876                  Y7030310002Y0002840000000              0
46007015050000009000619092001202325232023250              V1100W 1000763040BIN 49073490   NB000000000000706876                  Y4367610004Y0004840000000              0
46007015050000009000619092001202325232023250              V1100W 1000763041BIN 49073490   NB000000000000706876                  Y7030310004Y0004840000000              0
46007015050000009000619092001202325232023250              V1100W 1000763042BIN 49073490   NB000000000000706876                  Y3200320000Y9999840000000              0
46007015050000009000619092001202325232023250              V1100W 1000763042BIN 49073490   NB000000000000706876                  Y7015050000Y9999840000000              0
46007015050000009000619092001202325222023250              V1100W 1000751992SUM-477376 (I) N                                     N          N    840000                 0
46007015050000009000619092001202325232023250              V1100W 1000152284SIAM COMMERCIALNB000000000000477376                  Y3200320000Y9999840000000              0
46007015050000009000619092001202325232023250              V1100W 1000152284SIAM COMMERCIALNB000000000000477376                  Y4548520000Y9999840000000              0
46007015050000009000619092001202325232023250              V1100W 1000157762THE SIAM COMMERNB000000000000477376                  Y4367610004Y0002840000000              0
46007015050000009000619092001202325232023250              V1100W 1000157763THE SIAM COMMERNB000000000000477376                  Y7030310002Y0002840000000              0
46007015050000009000619092001202325232023250              V1100W 1000157764THE SIAM COMMERNB000000000000477376                  Y4367610004Y0004840000000              0
46007015050000009000619092001202325232023250              V1100W 1000157765THE SIAM COMMERNB000000000000477376                  Y7030310004Y0004840000000              0
46007015050000009000619092001202325232023250              V1100W 1000761791BIN 47737601   NB000000000000706802                  Y4367610004Y0002840000000              0
46007015050000009000619092001202325232023250              V1100W 1000761792BIN 47737601   NB000000000000706802                  Y7030310002Y0002840000000              0
46007015050000009000619092001202325232023250              V1100W 1000761793BIN 47737601   NB000000000000706802                  Y4367610004Y0004840000000              0
46007015050000009000619092001202325232023250              V1100W 1000761794BIN 47737601   NB000000000000706802                  Y7030310004Y0004840000000              0
46007015050000009000619092001202325232023250              V1100W 1000761795BIN 47737601   NB000000000000706802                  Y3200320000Y9999840000000              0
46007015050000009000619092001202325232023250              V1100W 1000761795BIN 47737601   NB000000000000706802                  Y4548520000Y9999840000000              0
46007015050000009000619092001202325232023250              V1100W 1000761797BIN 47737606   NB000000000000706803                  Y4367610004Y0002840000000              0
46007015050000009000619092001202325232023250              V1100W 1000761798BIN 47737606   NB000000000000706803                  Y7030310002Y0002840000000              0
46007015050000009000619092001202325232023250              V1100W 1000761799BIN 47737606   NB000000000000706803                  Y4367610004Y0004840000000              0
46007015050000009000619092001202325232023250              V1100W 1000761800BIN 47737606   NB000000000000706803                  Y7030310004Y0004840000000              0
46007015050000009000619092001202325232023250              V1100W 1000761801BIN 47737606   NB000000000000706803                  Y3200320000Y9999840000000              0
46007015050000009000619092001202325232023250              V1100W 1000761801BIN 47737606   NB000000000000706803                  Y7015050000Y9999840000000              0
46007015050000009000619092001202325232023250              V1100W 1000761803BIN 47737609   NB000000000000706804                  Y4367610004Y0002840000000              0
46007015050000009000619092001202325232023250              V1100W 1000761804BIN 47737609   NB000000000000706804                  Y7030310002Y0002840000000              0
46007015050000009000619092001202325232023250              V1100W 1000761805BIN 47737609   NB000000000000706804                  Y4367610004Y0004840000000              0
46007015050000009000619092001202325232023250              V1100W 1000761806BIN 47737609   NB000000000000706804                  Y7030310004Y0004840000000              0
46007015050000009000619092001202325232023250              V1100W 1000761807BIN 47737609   NB000000000000706804                  Y3200320000Y9999840000000              0
46007015050000009000619092001202325232023250              V1100W 1000761807BIN 47737609   NB000000000000706804                  Y4548520000Y9999840000000              0
46007015050000009000619092001202325232023250              V1100W 1000761809BIN 47737690   NB000000000000706805                  Y4367610004Y0002840000000              0
46007015050000009000619092001202325232023250              V1100W 1000761810BIN 47737690   NB000000000000706805                  Y7030310002Y0002840000000              0
46007015050000009000619092001202325232023250              V1100W 1000761811BIN 47737690   NB000000000000706805                  Y4367610004Y0004840000000              0
46007015050000009000619092001202325232023250              V1100W 1000761812BIN 47737690   NB000000000000706805                  Y7030310004Y0004840000000              0
46007015050000009000619092001202325232023250              V1100W 1000761813BIN 47737690   NB000000000000706805                  Y3200320000Y9999840000000              0
46007015050000009000619092001202325232023250              V1100W 1000761813BIN 47737690   NB000000000000706805                  Y7015050000Y9999840000000              0
46007015050000009000619092001202325222023250              V1100W 1000761737BIN 45485201   NB000000000000702800                  Y4367610004Y0002840000000              0
46007015050000009000619092001202325222023250              V1100W 1000761738BIN 45485201   NB000000000000702800                  Y7030310002Y0002840000000              0
46007015050000009000619092001202325222023250              V1100W 1000761739BIN 45485201   NB000000000000702800                  Y4367610004Y0004840000000              0
46007015050000009000619092001202325222023250              V1100W 1000761740BIN 45485201   NB000000000000702800                  Y7030310004Y0004840000000              0
46007015050000009000619092001202325222023250              V1100W 1000761741BIN 45485201   NB000000000000702800                  Y3200320000Y9999840000000              0
46007015050000009000619092001202325222023250              V1100W 1000761741BIN 45485201   NB000000000000702800                  Y7015050000Y9999840000000              0
46007015050000009000619092001202325222023250              V1100W 1000761767BIN 45485200   NB000000000000706799                  Y4367610004Y0002840000000              0
46007015050000009000619092001202325222023250              V1100W 1000761768BIN 45485200   NB000000000000706799                  Y7030310002Y0002840000000              0
46007015050000009000619092001202325222023250              V1100W 1000761769BIN 45485200   NB000000000000706799                  Y4367610004Y0004840000000              0
46007015050000009000619092001202325222023250              V1100W 1000761770BIN 45485200   NB000000000000706799                  Y7030310004Y0004840000000              0
46007015050000009000619092001202325222023250              V1100W 1000761771BIN 45485200   NB000000000000706799                  Y3200320000Y9999840000000              0
46007015050000009000619092001202325222023250              V1100W 1000761771BIN 45485200   NB000000000000706799                  Y7015050000Y9999840000000              0
46007015050000009000619092001202325222023250              V1100W 1000761773BIN 47737604   NB000000000000706774                  Y4367610004Y0002840000000              0
46007015050000009000619092001202325222023250              V1100W 1000761774BIN 47737604   NB000000000000706774                  Y7030310002Y0002840000000              0
46007015050000009000619092001202325222023250              V1100W 1000761775BIN 47737604   NB000000000000706774                  Y4367610004Y0004840000000              0
46007015050000009000619092001202325222023250              V1100W 1000761776BIN 47737604   NB000000000000706774                  Y7030310004Y0004840000000              0
46007015050000009000619092001202325222023250              V1100W 1000761777BIN 47737604   NB000000000000706774                  Y3200320000Y9999840000000              0
46007015050000009000619092001202325222023250              V1100W 1000761777BIN 47737604   NB000000000000706774                  Y7015050000Y9999840000000              0
46007015050000009000619092001202325222023250              V1100W 1000761779BIN 47737605   NB000000000000706775                  Y4367610004Y0002840000000              0
46007015050000009000619092001202325222023250              V1100W 1000761780BIN 47737605   NB000000000000706775                  Y7030310002Y0002840000000              0
46007015050000009000619092001202325222023250              V1100W 1000761781BIN 47737605   NB000000000000706775                  Y4367610004Y0004840000000              0
46007015050000009000619092001202325222023250              V1100W 1000761782BIN 47737605   NB000000000000706775                  Y7030310004Y0004840000000              0
46007015050000009000619092001202325222023250              V1100W 1000761783BIN 47737605   NB000000000000706775                  Y3200320000Y9999840000000              0
46007015050000009000619092001202325222023250              V1100W 1000761783BIN 47737605   NB000000000000706775                  Y7015050000Y9999840000000              0
46007015050000009000619092001202325222023250              V1100W 1000762467BIN 49073302   NB000000000000706776                  Y4367610004Y0002840000000              0
46007015050000009000619092001202325222023250              V1100W 1000762468BIN 49073302   NB000000000000706776                  Y7030310002Y0002840000000              0
46007015050000009000619092001202325222023250              V1100W 1000762469BIN 49073302   NB000000000000706776                  Y4367610004Y0004840000000              0
46007015050000009000619092001202325222023250              V1100W 1000762470BIN 49073302   NB000000000000706776                  Y7030310004Y0004840000000              0
46007015050000009000619092001202325222023250              V1100W 1000762471BIN 49073302   NB000000000000706776                  Y3200320000Y9999840000000              0
46007015050000009000619092001202325222023250              V1100W 1000762471BIN 49073302   NB000000000000706776                  Y7015050000Y9999840000000              0
46007015050000009000619092001202325222023250              V1100W 1000762473BIN 49073303   NB000000000000706777                  Y4367610004Y0002840000000              0
46007015050000009000619092001202325222023250              V1100W 1000762474BIN 49073303   NB000000000000706777                  Y7030310002Y0002840000000              0
46007015050000009000619092001202325222023250              V1100W 1000762475BIN 49073303   NB000000000000706777                  Y4367610004Y0004840000000              0
46007015050000009000619092001202325222023250              V1100W 1000762476BIN 49073303   NB000000000000706777                  Y7030310004Y0004840000000              0
46007015050000009000619092001202325222023250              V1100W 1000762477BIN 49073303   NB000000000000706777                  Y3200320000Y9999840000000              0
46007015050000009000619092001202325222023250              V1100W 1000762477BIN 49073303   NB000000000000706777                  Y7015050000Y9999840000000              0
46007015050000009000619092001202325222023250              V1100W 1000762479BIN 49073309   NB000000000000706778                  Y4367610004Y0002840000000              0
46007015050000009000619092001202325222023250              V1100W 1000762480BIN 49073309   NB000000000000706778                  Y7030310002Y0002840000000              0
46007015050000009000619092001202325222023250              V1100W 1000762481BIN 49073309   NB000000000000706778                  Y4367610004Y0004840000000              0
46007015050000009000619092001202325222023250              V1100W 1000762482BIN 49073309   NB000000000000706778                  Y7030310004Y0004840000000              0
46007015050000009000619092001202325222023250              V1100W 1000762483BIN 49073309   NB000000000000706778                  Y3200320000Y9999840000000              0
46007015050000009000619092001202325222023250              V1100W 1000762483BIN 49073309   NB000000000000706778                  Y7015050000Y9999840000000              0
46007015050000009000619092001202325222023250              V1100W 1000762485BIN 49073310   NB000000000000706779                  Y4367610004Y0002840000000              0
46007015050000009000619092001202325222023250              V1100W 1000762486BIN 49073310   NB000000000000706779                  Y7030310002Y0002840000000              0
46007015050000009000619092001202325222023250              V1100W 1000762487BIN 49073310   NB000000000000706779                  Y4367610004Y0004840000000              0
46007015050000009000619092001202325222023250              V1100W 1000762488BIN 49073310   NB000000000000706779                  Y7030310004Y0004840000000              0
46007015050000009000619092001202325222023250              V1100W 1000762489BIN 49073310   NB000000000000706779                  Y3200320000Y9999840000000              0
46007015050000009000619092001202325222023250              V1100W 1000762489BIN 49073310   NB000000000000706779                  Y7015050000Y9999840000000              0
46007015050000009000619092001202325222023250              V1100W 1000762491BIN 49073311   NB000000000000706780                  Y4367610004Y0002840000000              0
46007015050000009000619092001202325222023250              V1100W 1000762492BIN 49073311   NB000000000000706780                  Y7030310002Y0002840000000              0
46007015050000009000619092001202325222023250              V1100W 1000762493BIN 49073311   NB000000000000706780                  Y4367610004Y0004840000000              0
46007015050000009000619092001202325222023250              V1100W 1000762494BIN 49073311   NB000000000000706780                  Y7030310004Y0004840000000              0
46007015050000009000619092001202325222023250              V1100W 1000762495BIN 49073311   NB000000000000706780                  Y3200320000Y9999840000000              0
46007015050000009000619092001202325222023250              V1100W 1000762495BIN 49073311   NB000000000000706780                  Y7015050000Y9999840000000              0
46007015050000009000619092001202325222023250              V1100W 1000762497BIN 49073313   NB000000000000706781                  Y4367610004Y0002840000000              0
46007015050000009000619092001202325222023250              V1100W 1000762498BIN 49073313   NB000000000000706781                  Y7030310002Y0002840000000              0
46007015050000009000619092001202325222023250              V1100W 1000762499BIN 49073313   NB000000000000706781                  Y4367610004Y0004840000000              0
46007015050000009000619092001202325222023250              V1100W 1000762500BIN 49073313   NB000000000000706781                  Y7030310004Y0004840000000              0
46007015050000009000619092001202325222023250              V1100W 1000762501BIN 49073313   NB000000000000706781                  Y3200320000Y9999840000000              0
46007015050000009000619092001202325222023250              V1100W 1000762501BIN 49073313   NB000000000000706781                  Y7015050000Y9999840000000              0
46007015050000009000619092001202325222023250              V1100W 1000762503BIN 49073315   NB000000000000706782                  Y4367610004Y0002840000000              0
46007015050000009000619092001202325222023250              V1100W 1000762504BIN 49073315   NB000000000000706782                  Y7030310002Y0002840000000              0
46007015050000009000619092001202325222023250              V1100W 1000762505BIN 49073315   NB000000000000706782                  Y4367610004Y0004840000000              0
46007015050000009000619092001202325222023250              V1100W 1000762506BIN 49073315   NB000000000000706782                  Y7030310004Y0004840000000              0
46007015050000009000619092001202325222023250              V1100W 1000762507BIN 49073315   NB000000000000706782                  Y3200320000Y9999840000000              0
46007015050000009000619092001202325222023250              V1100W 1000762507BIN 49073315   NB000000000000706782                  Y7015050000Y9999840000000              0
46007015050000009000619092001202325222023250              V1100W 1000762509BIN 49073316   NB000000000000706783                  Y4367610004Y0002840000000              0
46007015050000009000619092001202325222023250              V1100W 1000762510BIN 49073316   NB000000000000706783                  Y7030310002Y0002840000000              0
46007015050000009000619092001202325222023250              V1100W 1000762511BIN 49073316   NB000000000000706783                  Y4367610004Y0004840000000              0
46007015050000009000619092001202325222023250              V1100W 1000762512BIN 49073316   NB000000000000706783                  Y7030310004Y0004840000000              0
46007015050000009000619092001202325222023250              V1100W 1000762513BIN 49073316   NB000000000000706783                  Y3200320000Y9999840000000              0
46007015050000009000619092001202325222023250              V1100W 1000762513BIN 49073316   NB000000000000706783                  Y4548520000Y9999840000000              0
46007015050000009000619092001202325222023250              V1100W 1000762972BIN 49073404   NB000000000000706785                  Y4367610004Y0002840000000              0
46007015050000009000619092001202325222023250              V1100W 1000762973BIN 49073404   NB000000000000706785                  Y7030310002Y0002840000000              0
46007015050000009000619092001202325222023250              V1100W 1000762974BIN 49073404   NB000000000000706785                  Y4367610004Y0004840000000              0
46007015050000009000619092001202325222023250              V1100W 1000762975BIN 49073404   NB000000000000706785                  Y7030310004Y0004840000000              0
46007015050000009000619092001202325222023250              V1100W 1000762976BIN 49073404   NB000000000000706785                  Y3200320000Y9999840000000              0
46007015050000009000619092001202325222023250              V1100W 1000762976BIN 49073404   NB000000000000706785                  Y4548520000Y9999840000000              0
46007015050000009000619092001202325222023250              V1100W 1000762984BIN 49073406   NB000000000000706786                  Y4367610004Y0002840000000              0
46007015050000009000619092001202325222023250              V1100W 1000762985BIN 49073406   NB000000000000706786                  Y7030310002Y0002840000000              0
46007015050000009000619092001202325222023250              V1100W 1000762986BIN 49073406   NB000000000000706786                  Y4367610004Y0004840000000              0
46007015050000009000619092001202325222023250              V1100W 1000762987BIN 49073406   NB000000000000706786                  Y7030310004Y0004840000000              0
46007015050000009000619092001202325222023250              V1100W 1000762988BIN 49073406   NB000000000000706786                  Y3200320000Y9999840000000              0
46007015050000009000619092001202325222023250              V1100W 1000762988BIN 49073406   NB000000000000706786                  Y4548520000Y9999840000000              0
46007015050000009000619092001202325222023250              V1100W 1000762996BIN 49073408   NB000000000000706787                  Y4367610004Y0002840000000              0
46007015050000009000619092001202325222023250              V1100W 1000762997BIN 49073408   NB000000000000706787                  Y7030310002Y0002840000000              0
46007015050000009000619092001202325222023250              V1100W 1000762998BIN 49073408   NB000000000000706787                  Y4367610004Y0004840000000              0
46007015050000009000619092001202325222023250              V1100W 1000762999BIN 49073408   NB000000000000706787                  Y7030310004Y0004840000000              0
46007015050000009000619092001202325222023250              V1100W 1000763000BIN 49073408   NB000000000000706787                  Y3200320000Y9999840000000              0
46007015050000009000619092001202325222023250              V1100W 1000763000BIN 49073408   NB000000000000706787                  Y4548520000Y9999840000000              0
46007015050000009000619092001202325222023250              V1100W 1000763002BIN 49073409   NB000000000000706788                  Y4367610004Y0002840000000              0
46007015050000009000619092001202325222023250              V1100W 1000763003BIN 49073409   NB000000000000706788                  Y7030310002Y0002840000000              0
46007015050000009000619092001202325222023250              V1100W 1000763004BIN 49073409   NB000000000000706788                  Y4367610004Y0004840000000              0
46007015050000009000619092001202325222023250              V1100W 1000763005BIN 49073409   NB000000000000706788                  Y7030310004Y0004840000000              0
46007015050000009000619092001202325222023250              V1100W 1000763006BIN 49073409   NB000000000000706788                  Y3200320000Y9999840000000              0
46007015050000009000619092001202325222023250              V1100W 1000763006BIN 49073409   NB000000000000706788                  Y4548520000Y9999840000000              0
46007015050000009000619092001202325222023250              V1100W 1000763179BIN 49661500   NB000000000000706789                  Y4367610004Y0002840000000              0
46007015050000009000619092001202325222023250              V1100W 1000763180BIN 49661500   NB000000000000706789                  Y7030310002Y0002840000000              0
46007015050000009000619092001202325222023250              V1100W 1000763181BIN 49661500   NB000000000000706789                  Y4367610004Y0004840000000              0
46007015050000009000619092001202325222023250              V1100W 1000763182BIN 49661500   NB000000000000706789                  Y7030310004Y0004840000000              0
46007015050000009000619092001202325222023250              V1100W 1000763183BIN 49661500   NB000000000000706789                  Y3200320000Y9999840000000              0
46007015050000009000619092001202325222023250              V1100W 1000763183BIN 49661500   NB000000000000706789                  Y4548520000Y9999840000000              0
46007015050000009000619092001202325222023250              V1100W 900061909347285800 (I)   NB000000000000701505                  Y3200320000Y9999840000000              0
46007015050000009000619092001202325222023250              V1100W 900061909347285800 (I)   NB000000000000701505                  Y7015050000Y9999840000000              0
46007015050000009000619092001202325222023250              V1100W 900061910148637200 (I)   NB000000000000701749                  Y3200320000Y9999840000000              0
46007015050000009000619092001202325222023250              V1100W 900061910148637200 (I)   NB000000000000701749                  Y7015050000Y9999840000000              0
46007015050000009000619092001202325222023250              V1100W 9000619386MVISA ORIG SUM N                                     N          N    840000                 0
46007015050000009000619092001202325232023250              V1100W 9000619380425317 INT     NB000000000000425317                  Y7015050000Y9999840000000              0
46007015050000009000619092001202325232023250              V1100W 9000619381425317MVISA INTNB000000000000425317                  Y4253170002Y0002840000000              0
46007015050000009000619092001202325232023250              V1100W 9000619382425317VROL INT NB000000000000425317                  Y7018970002Y0002840000000              0
46007015050000009000619092001202325222023250              V1100W 9000632543410517 SUM     N                                     N          N    840000                 0
46007015050000009000619092001202325232023250              V1100W 9000632544BIN 410517     NB000000000000410517                  Y7015050000Y9999840000000              0
46007015050000009000619092001202325232023250              V1100W 9000632547BIN 4105170002 NB000000000000410517                  Y4105170002Y0002840000000              0
46007015050000009000619092001202325232023250              V1100W 9000632549VROL 410517    NB000000000000410517                  Y7018970002Y0002840000000              0
910070150523252000000000000000000000000000000002000000000275000000        000000275000000000000000000000000000000000000000000000000000000000000000000000000000000       
46007015050000009000619093001202325212022009              V1100W 900061909347285800 (I)   NB000000000000701505                  Y3200320000Y9999840000000              0
46007015050000009000619093001202325212022009              V1100W 900061909347285800 (I)   NB000000000000701505                  Y7015050000Y9999840000000              0
46007015050000009000619101001202325212022009              V1100W 900061910148637200 (I)   NB000000000000701749                  Y3200320000Y9999840000000              0
46007015050000009000619101001202325212022009              V1100W 900061910148637200 (I)   NB000000000000701749                  Y7015050000Y9999840000000              0
46007015050000009000619380001202325212022009              V1100W 9000619380425317 INT     NB000000000000425317                  Y7015050000Y9999840000000              0
46007015050000009000619381001202325212022009              V1100W 9000619381425317MVISA INTNB000000000000425317                  Y4253170002Y0002840000000              0
46007015050000009000619382001202325212022009              V1100W 9000619382425317VROL INT NB000000000000425317                  Y7018970002Y0002840000000              0
46007015050000009000619386001202325212022009              V1100W 9000619386MVISA ORIG SUM N                                     N          N    840000                 0
46007015050000009000619386001202325222022009              V1100W 9000619380425317 INT     NB000000000000425317                  Y7015050000Y9999840000000              0
46007015050000009000619386001202325222022009              V1100W 9000619381425317MVISA INTNB000000000000425317                  Y4253170002Y0002840000000              0
46007015050000009000619386001202325222022009              V1100W 9000619382425317VROL INT NB000000000000425317                  Y7018970002Y0002840000000              0
46007015050000009000632543001202325212022100              V1100W 9000632543410517 SUM     N                                     N          N    840000                 0
46007015050000009000632543001202325222022100              V1100W 9000632544BIN 410517     NB000000000000410517                  Y7015050000Y9999840000000              0
46007015050000009000632543001202325222022100              V1100W 9000632547BIN 4105170002 NB000000000000410517                  Y4105170002Y0002840000000              0
46007015050000009000632543001202325222022100              V1100W 9000632549VROL 410517    NB000000000000410517                  Y7018970002Y0002840000000              0
46007015050000009000632544001202325212022100              V1100W 9000632544BIN 410517     NB000000000000410517                  Y7015050000Y9999840000000              0
46007015050000009000632547001202325212022100              V1100W 9000632547BIN 4105170002 NB000000000000410517                  Y4105170002Y0002840000000              0
46007015050000009000632549001202325212022100              V1100W 9000632549VROL 410517    NB000000000000410517                  Y7018970002Y0002840000000              0
4600701505000000900061909290006190929000619092001840Y     V2110  20232522023252                                                                                        0
4600701505000000900061909390006190929000619092001840Y     V2110  20232522023252                                                                                        0
4600701505000000900061910190006190929000619092001840Y     V2110  20232522023252                                                                                        0
4600701505000000900061938090006193869000619092001840Y     V2110  20232522023252                                                                                        0
4600701505000000900061938190006193869000619092001840Y     V2110  20232522023252                                                                                        0
4600701505000000900061938290006193869000619092001840Y     V2110  20232522023252                                                                                        0
4600701505000000900061938690006190929000619092001840Y     V2110  20232522023252                                                                                        0
4600701505000000900063254390006190929000619092001840Y     V2110  20232522023252                                                                                        0
4600701505000000900063254490006325439000619092001840Y     V2110  20232522023252                                                                                        0
4600701505000000900063254790006325439000619092001840Y     V2110  20232522023252                                                                                        0
4600701505000000900063254990006325439000619092001840Y     V2110  20232522023252                                                                                        0
4600701505000000900061909290006190929000619092001840  Y   V3115  20232522023252                                                                                        0
4600701505000000900061909390006190929000619092001840  Y   V3115  20232522023252                                                                                        0
4600701505000000900061910190006190929000619092001840  Y   V3115  20232522023252                                                                                        0
4600701505000000900061938090006193869000619092001840  Y   V3115  20232522023252                                                                                        0
4600701505000000900061938190006193869000619092001840  Y   V3115  20232522023252                                                                                        0
4600701505000000900061938290006193869000619092001840  Y   V3115  20232522023252                                                                                        0
4600701505000000900061938690006190929000619092001840  Y   V3115  20232522023252                                                                                        0
4600701505000000900063254390006190929000619092001840  Y   V3115  20232522023252                                                                                        0
4600701505000000900063254490006325439000619092001840  Y   V3115  20232522023252                                                                                        0
4600701505000000900063254790006325439000619092001840  Y   V3115  20232522023252                                                                                        0
4600701505000000900063254990006325439000619092001840  Y   V3115  20232522023252                                                                                        0
4600701505000000900061938090006193869000619092001840  Y   V3116  20232522023252                                                                                        0
4600701505000000900061938190006193869000619092001840  Y   V3116  20232522023252                                                                                        0
4600701505000000900061938290006193869000619092001840  Y   V3116  20232522023252                                                                                        0
4600701505000000900061938690006190929000619092001840  Y   V3116  20232522023252                                                                                        0
4600701505000000900063254390006190929000619092001840  Y   V3116  20232522023252                                                                                        0
4600701505000000900063254490006325439000619092001840  Y   V3116  20232522023252                                                                                        0
4600701505000000900063254790006325439000619092001840  Y   V3116  20232522023252                                                                                        0
4600701505000000900063254990006325439000619092001840  Y   V3116  20232522023252                                                                                        0
4600701505000000900061909290006190929000619092001       Y V4120  20232522023252                                                                                        0
4600701505000000900061909390006190929000619092001       Y V4120  20232522023252                                                                                        0
4600701505000000900061910190006190929000619092001       Y V4120  20232522023252                                                                                        0
4600701505000000900061938090006193869000619092001       Y V4120  20232522023252                                                                                        0
4600701505000000900061938190006193869000619092001       Y V4120  20232522023252                                                                                        0
4600701505000000900061938290006193869000619092001       Y V4120  20232522023252                                                                                        0
4600701505000000900061938690006190929000619092001       Y V4120  20232522023252                                                                                        0
4600701505000000900063254390006190929000619092001       Y V4120  20232522023252                                                                                        0
4600701505000000900063254490006325439000619092001       Y V4120  20232522023252                                                                                        0
4600701505000000900063254790006325439000619092001       Y V4120  20232522023252                                                                                        0
4600701505000000900063254990006325439000619092001       Y V4120  20232522023252                                                                                        0
4600701505000000900061909290006190929000619092001       Y V4130  20232522023252                                                                                        0
4600701505000000900061909390006190929000619092001       Y V4130  20232522023252                                                                                        0
4600701505000000900061910190006190929000619092001       Y V4130  20232522023252                                                                                        0
4600701505000000900061938090006193869000619092001       Y V4130  20232522023252                                                                                        0
4600701505000000900061938190006193869000619092001       Y V4130  20232522023252                                                                                        0
4600701505000000900061938290006193869000619092001       Y V4130  20232522023252                                                                                        0
4600701505000000900061938690006190929000619092001       Y V4130  20232522023252                                                                                        0
4600701505000000900063254390006190929000619092001       Y V4130  20232522023252                                                                                        0
4600701505000000900063254490006325439000619092001       Y V4130  20232522023252                                                                                        0
4600701505000000900063254790006325439000619092001       Y V4130  20232522023252                                                                                        0
4600701505000000900063254990006325439000619092001       Y V4130  20232522023252                                                                                        0
4600701505000000900061909290006190929000619092001      0Y V4135  2023252202325220232442023252                                                                          0
4600701505000000900061938090006193869000619092001      0Y V4135  2023252202325220232442023252                                                                          0
910070150523252000000000000000000000000000000003000000000073000000        000000073000000000000000000000000000000000000000000000000000000000000000000000000000000       
4600701505000000900061938190006193869000619092001      0Y V4135  2023252202325220232442023252                                                                          0
4600701505000000900061938290006193869000619092001      0Y V4135  2023252202325220232442023252                                                                          0
4600701505000000900061938690006190929000619092001      0Y V4135  2023252202325220232442023252                                                                          0
4600701505000000900063254390006190929000619092001      0Y V4135  2023252202325220232442023252                                                                          0
4600701505000000900063254490006325439000619092001      0Y V4135  2023252202325220232442023252                                                                          0
4600701505000000900063254790006325439000619092001      0Y V4135  2023252202325220232442023252                                                                          0
4600701505000000900063254990006325439000619092001      0Y V4135  2023252202325220232442023252                                                                          0
4600701505000000900061909290006190929000619092001       Y V4140  20232522023252                                                                                        0
4600701505000000900061909390006190929000619092001       Y V4140  20232522023252                                                                                        0
4600701505000000900061910190006190929000619092001       Y V4140  20232522023252                                                                                        0
4600701505000000900061938090006193869000619092001       Y V4140  20232522023252                                                                                        0
4600701505000000900061938190006193869000619092001       Y V4140  20232522023252                                                                                        0
4600701505000000900061938290006193869000619092001       Y V4140  20232522023252                                                                                        0
4600701505000000900061938690006190929000619092001       Y V4140  20232522023252                                                                                        0
4600701505000000900063254390006190929000619092001       Y V4140  20232522023252                                                                                        0
4600701505000000900063254490006325439000619092001       Y V4140  20232522023252                                                                                        0
4600701505000000900063254790006325439000619092001       Y V4140  20232522023252                                                                                        0
4600701505000000900063254990006325439000619092001       Y V4140  20232522023252                                                                                        0
4600701505000000900061909290006190929000619092001       Y V4210  20232522023252                                                                                        0
4600701505000000900061909390006190929000619092001       Y V4210  20232522023252                                                                                        0
4600701505000000900061910190006190929000619092001       Y V4210  20232522023252                                                                                        0
4600701505000000900061938090006193869000619092001       Y V4210  20232522023252                                                                                        0
4600701505000000900061938190006193869000619092001       Y V4210  20232522023252                                                                                        0
4600701505000000900061938290006193869000619092001       Y V4210  20232522023252                                                                                        0
4600701505000000900061938690006190929000619092001       Y V4210  20232522023252                                                                                        0
4600701505000000900063254390006190929000619092001       Y V4210  20232522023252                                                                                        0
4600701505000000900063254490006325439000619092001       Y V4210  20232522023252                                                                                        0
4600701505000000900063254790006325439000619092001       Y V4210  20232522023252                                                                                        0
4600701505000000900063254990006325439000619092001       Y V4210  20232522023252                                                                                        0
4600701505000000900061909290006190929000619092001       Y V4215  20232522023252                                                                                        0
4600701505000000900061909390006190929000619092001       Y V4215  20232522023252                                                                                        0
4600701505000000900061910190006190929000619092001       Y V4215  20232522023252                                                                                        0
4600701505000000900061938090006193869000619092001       Y V4215  20232522023252                                                                                        0
4600701505000000900061938190006193869000619092001       Y V4215  20232522023252                                                                                        0
4600701505000000900061938290006193869000619092001       Y V4215  20232522023252                                                                                        0
4600701505000000900061938690006190929000619092001       Y V4215  20232522023252                                                                                        0
4600701505000000900063254390006190929000619092001       Y V4215  20232522023252                                                                                        0
4600701505000000900063254490006325439000619092001       Y V4215  20232522023252                                                                                        0
4600701505000000900063254790006325439000619092001       Y V4215  20232522023252                                                                                        0
4600701505000000900063254990006325439000619092001       Y V4215  20232522023252                                                                                        0
4600701505000000900061909290006190929000619092001       Y V4230  20232522023252                                                                                        0
4600701505000000900061909390006190929000619092001       Y V4230  20232522023252                                                                                        0
4600701505000000900061910190006190929000619092001       Y V4230  20232522023252                                                                                        0
4600701505000000900061938090006193869000619092001       Y V4230  20232522023252                                                                                        0
4600701505000000900061938190006193869000619092001       Y V4230  20232522023252                                                                                        0
4600701505000000900061938290006193869000619092001       Y V4230  20232522023252                                                                                        0
4600701505000000900061938690006190929000619092001       Y V4230  20232522023252                                                                                        0
4600701505000000900063254390006190929000619092001       Y V4230  20232522023252                                                                                        0
4600701505000000900063254490006325439000619092001       Y V4230  20232522023252                                                                                        0
4600701505000000900063254790006325439000619092001       Y V4230  20232522023252                                                                                        0
4600701505000000900063254990006325439000619092001       Y V4230  20232522023252                                                                                        0
46007015050000009000619092          001840 Y              V5300  20232522023252                                                                                        0
46007015050000009000619093          001840 Y              V5300  20232522023252                                                                                        0
46007015050000009000619101          001840 Y              V5300  20232522023252                                                                                        0
46007015050000009000619380          001840 Y              V5300  20232522023252                                                                                        0
46007015050000009000619381          001840 Y              V5300  20232522023252                                                                                        0
46007015050000009000619382          001840 Y              V5300  20232522023252                                                                                        0
46007015050000009000619386          001840 Y              V5300  20232522023252                                                                                        0
46007015050000009000632543          001840 Y              V5300  20232522023252                                                                                        0
46007015050000009000632544          001840 Y              V5300  20232522023252                                                                                        0
46007015050000009000632547          001840 Y              V5300  20232522023252                                                                                        0
46007015050000009000632549          001840 Y              V5300  20232522023252                                                                                        0
4600701505000000900061938090006193869000619092001       Y V4640  20232522023252                                                                                        0
4600701505000000900061938690006190929000619092001       Y V4640  20232522023252                                                                                        0
4600701505000000900063254390006190929000619092001       Y V4640  20232522023252                                                                                        0
4600701505000000900063254490006325439000619092001       Y V4640  20232522023252                                                                                        0
4600701505000000900063254790006325439000619092001       Y V4640  20232522023252                                                                                        0
4600701505000000900063254990006325439000619092001       Y V4640  20232522023252                                                                                        0
46007015050000009000619092          00000000000000013     V6900  20232522023252NN7560N50000000000000025000000000000000  08                                             0
46007015050000009000619092          00000000000000013     V6900  20232522023252NN7560N75000000000000025000000000000000  08                                             0
46007015050000009000619092          00000000000000013     V6900  20232522023252NN7560N84000000000000025000000000000000  08                                             0
46007015050000009000619092          00000000000000013     V6900  20232522023252NN     50000000000000025000000000000000  06                                             0
46007015050000009000619092          00000000000000013     V6900  20232522023252NN     75000000000000025000000000000000  06                                             0
46007015050000009000619092          00000000000000013     V6900  20232522023252NN     84000000000000025000000000000000  06                                             0
46007015050000009000619092          00000000000000013     V6900  20232522023252       90000000000000025000000000000000  06                                             0
46007015050000009000619092                    0000013     V6900S 2023252202325210     50000000000000025                 06                                             0
46007015050000009000619092                    0000013     V6900S 2023252202325210     84000000000000025                 06                                             0
46007015050000009000619092                    0000013     V6900S 2023252202325210     90000000000000025000000000000000  06                                             0
46007015050000009000619092                    000001      V6900S 2023252202325210     50000000000000025                 05                                             0
46007015050000009000619092                    000001      V6900S 2023252202325210     84000000000000025                 05                                             0
46007015050000009000619092                    000001      V6900S 2023252202325210     90000000000000025000000000000000  05                                             0
46007015050000009000619092                       001      V6900S 2023252202325210     50000000000000025                 04                                             0
46007015050000009000619092                       001      V6900S 2023252202325210     84000000000000025                 04                                             0
46007015050000009000619092                       001      V6900S 2023252202325210     90000000000000025                 04                                             0
46007015050000009000619093          00000000000000013     V6900  20232522023252NN7560N50000000000000025000000000000000  08                                             0
46007015050000009000619093          00000000000000013     V6900  20232522023252NN7560N75000000000000025000000000000000  08                                             0
46007015050000009000619093          00000000000000013     V6900  20232522023252NN7560N84000000000000025000000000000000  08                                             0
46007015050000009000619093          00000000000000013     V6900  20232522023252NN     50000000000000025000000000000000  06                                             0
46007015050000009000619093          00000000000000013     V6900  20232522023252NN     75000000000000025000000000000000  06                                             0
46007015050000009000619093          00000000000000013     V6900  20232522023252NN     84000000000000025000000000000000  06                                             0
46007015050000009000619093          00000000000000013     V6900  20232522023252       90000000000000025000000000000000  06                                             0
46007015050000009000619093                    0000013     V6900S 2023252202325210     50000000000000025                 06                                             0
46007015050000009000619093                    0000013     V6900S 2023252202325210     84000000000000025                 06                                             0
46007015050000009000619093                    0000013     V6900S 2023252202325210     90000000000000025000000000000000  06                                             0
46007015050000009000619093                    000001      V6900S 2023252202325210     50000000000000025                 05                                             0
46007015050000009000619093                    000001      V6900S 2023252202325210     84000000000000025                 05                                             0
46007015050000009000619093                    000001      V6900S 2023252202325210     90000000000000025000000000000000  05                                             0
46007015050000009000619093                       001      V6900S 2023252202325210     50000000000000025                 04                                             0
46007015050000009000619093                       001      V6900S 2023252202325210     84000000000000025                 04                                             0
46007015050000009000619093                       001      V6900S 2023252202325210     90000000000000025                 04                                             0
46007015050000009000619101          0000000000000001 Y    V6900  20232522023252         000000000000000000000000000000                                                 0
46007015050000009000619101                       001 Y    V6900S 20232522023252                                                                                        0
46007015050000009000619380          0000000000000001 Y    V6900  20232522023252         000000000000000000000000000000                                                 0
46007015050000009000619380                       001 Y    V6900S 20232522023252                                                                                        0
46007015050000009000619381          0000000000000001 Y    V6900  20232522023252         000000000000000000000000000000                                                 0
46007015050000009000619381                       001 Y    V6900S 20232522023252                                                                                        0
46007015050000009000619382          0000000000000001 Y    V6900  20232522023252         000000000000000000000000000000                                                 0
46007015050000009000619382                       001 Y    V6900S 20232522023252                                                                                        0
46007015050000009000619386          0000000000000001 Y    V6900  20232522023252         000000000000000000000000000000                                                 0
910070150523252000000000000000000000000000000004000000000110000000        000000110000000000000000000000000000000000000000000000000000000000000000000000000000000       
46007015050000009000619386                       001 Y    V6900S 20232522023252                                                                                        0
46007015050000009000632543          0000000000000001 Y    V6900  20232522023252         000000000000000000000000000000                                                 0
46007015050000009000632543                       001 Y    V6900S 20232522023252                                                                                        0
46007015050000009000632544          0000000000000001 Y    V6900  20232522023252         000000000000000000000000000000                                                 0
46007015050000009000632544                       001 Y    V6900S 20232522023252                                                                                        0
46007015050000009000632547          0000000000000001 Y    V6900  20232522023252         000000000000000000000000000000                                                 0
46007015050000009000632547                       001 Y    V6900S 20232522023252                                                                                        0
46007015050000009000632549          0000000000000001 Y    V6900  20232522023252         000000000000000000000000000000                                                 0
46007015050000009000632549                       001 Y    V6900S 20232522023252                                                                                        0
4600701505000000100076296410000477899000619092001         VB950  20232522023252              110  115  120  130  135  140  210  215  230  300                          0
4600701505000000100076297010000477899000619092001         VB950  20232522023252              110  115  120  130  135  140  210  215  230  300                          0
4600701505000000100076298210000477899000619092001         VB950  20232522023252              110  115  120  130  135  140  210  215  230  300                          0
4600701505000000100076299410000477899000619092001         VB950  20232522023252              110  115  120  130  135  140  210  215  230  300                          0
4600701505000000100076301810000477899000619092001         VB950  20232522023252              110  115  120  130  135  140  210  215  230  300                          0
4600701505000000100076302410000477899000619092001         VB950  20232522023252              110  115  120  130  135  140  210  215  230  300                          0
4600701505000000100076303010000477899000619092001         VB950  20232522023252              110  115  120  130  135  140  210  215  230  300                          0
4600701505000000100076303610000477899000619092001         VB950  20232522023252              110  115  120  130  135  140  210  215  230  300                          0
910070150523252000000000000000000000000000000005000000000018000000        000000018000000000000000000000000000000000000000000000000000000000000000000000000000000       
46007015050000009000619094036202325312023250              V1100W 9000619094CARDX          Y                                     N          N    764000                 0
46007015050000009000619094036202325322023250              V1100W 1000047793SUM-490733 (N) N                                     N          N    764000                 0
46007015050000009000619094036202325332023250              V1100W 0013490733SCBS 490733 (N)NB000000000000490733                  Y3200320000Y9999764000000              0
46007015050000009000619094036202325332023250              V1100W 0013490733SCBS 490733 (N)NB000000000000490733                  Y7015050000Y9999764000000              0
46007015050000009000619094036202325332023250              V1100W 1000762520BIN 49073304   NB000000000000706808                  Y3200320000Y9999764000000              0
46007015050000009000619094036202325332023250              V1100W 1000762520BIN 49073304   NB000000000000706808                  Y7015050000Y9999764000000              0
46007015050000009000619094036202325332023250              V1100W 1000762526BIN 49073307   NB000000000000706809                  Y3200320000Y9999764000000              0
46007015050000009000619094036202325332023250              V1100W 1000762526BIN 49073307   NB000000000000706809                  Y7015050000Y9999764000000              0
46007015050000009000619094036202325332023250              V1100W 1000762532BIN 49073308   NB000000000000706810                  Y3200320000Y9999764000000              0
46007015050000009000619094036202325332023250              V1100W 1000762532BIN 49073308   NB000000000000706810                  Y7015050000Y9999764000000              0
46007015050000009000619094036202325332023250              V1100W 1000762538BIN 49073312   NB000000000000706811                  Y3200320000Y9999764000000              0
46007015050000009000619094036202325332023250              V1100W 1000762538BIN 49073312   NB000000000000706811                  Y7015050000Y9999764000000              0
46007015050000009000619094036202325332023250              V1100W 1000762544BIN 49073317   NB000000000000706812                  Y3200320000Y9999764000000              0
46007015050000009000619094036202325332023250              V1100W 1000762544BIN 49073317   NB000000000000706812                  Y7015050000Y9999764000000              0
46007015050000009000619094036202325332023250              V1100W 1000762550BIN 49073318   NB000000000000706813                  Y3200320000Y9999764000000              0
46007015050000009000619094036202325332023250              V1100W 1000762550BIN 49073318   NB000000000000706813                  Y7015050000Y9999764000000              0
46007015050000009000619094036202325332023250              V1100W 1000762556BIN 49073319   NB000000000000706814                  Y3200320000Y9999764000000              0
46007015050000009000619094036202325332023250              V1100W 1000762556BIN 49073319   NB000000000000706814                  Y7015050000Y9999764000000              0
46007015050000009000619094036202325332023250              V1100W 1000762562BIN 49073320   NB000000000000706815                  Y3200320000Y9999764000000              0
46007015050000009000619094036202325332023250              V1100W 1000762562BIN 49073320   NB000000000000706815                  Y7015050000Y9999764000000              0
46007015050000009000619094036202325332023250              V1100W 1000762568BIN 49073390   NB000000000000706816                  Y3200320000Y9999764000000              0
46007015050000009000619094036202325332023250              V1100W 1000762568BIN 49073390   NB000000000000706816                  Y7015050000Y9999764000000              0
46007015050000009000619094036202325322023250              V1100W 1000047794SUM-490734 (N) N                                     N          N    764000                 0
46007015050000009000619094036202325332023250              V1100W 0013490734SCBS49073400(N)NB000000000000490734                  Y3200320000Y9999764000000              0
46007015050000009000619094036202325332023250              V1100W 0013490734SCBS49073400(N)NB000000000000490734                  Y4548520000Y9999764000000              0
46007015050000009000619094036202325332023250              V1100W 1000762965BIN 49073402   NB000000000000706817                  Y3200320000Y9999764000000              0
46007015050000009000619094036202325332023250              V1100W 1000762965BIN 49073402   NB000000000000706817                  Y7015050000Y9999764000000              0
46007015050000009000619094036202325332023250              V1100W 1000762971BIN 49073403   NB000000000000706818                  Y3200320000Y9999764000000              0
46007015050000009000619094036202325332023250              V1100W 1000762971BIN 49073403   NB000000000000706818                  Y7015050000Y9999764000000              0
46007015050000009000619094036202325332023250              V1100W 1000762983BIN 49073405   NB000000000000706819                  Y3200320000Y9999764000000              0
46007015050000009000619094036202325332023250              V1100W 1000762983BIN 49073405   NB000000000000706819                  Y7015050000Y9999764000000              0
46007015050000009000619094036202325332023250              V1100W 1000762995BIN 49073407   NB000000000000706820                  Y3200320000Y9999764000000              0
46007015050000009000619094036202325332023250              V1100W 1000762995BIN 49073407   NB000000000000706820                  Y7015050000Y9999764000000              0
46007015050000009000619094036202325332023250              V1100W 1000763013BIN 49073410   NB000000000000706821                  Y3200320000Y9999764000000              0
46007015050000009000619094036202325332023250              V1100W 1000763013BIN 49073410   NB000000000000706821                  Y4548520000Y9999764000000              0
46007015050000009000619094036202325332023250              V1100W 1000763019BIN 49073411   NB000000000000706822                  Y3200320000Y9999764000000              0
46007015050000009000619094036202325332023250              V1100W 1000763019BIN 49073411   NB000000000000706822                  Y7015050000Y9999764000000              0
46007015050000009000619094036202325332023250              V1100W 1000763025BIN 49073412   NB000000000000706873                  Y3200320000Y9999764000000              0
46007015050000009000619094036202325332023250              V1100W 1000763025BIN 49073412   NB000000000000706873                  Y7015050000Y9999764000000              0
46007015050000009000619094036202325332023250              V1100W 1000763031BIN 49073413   NB000000000000706874                  Y3200320000Y9999764000000              0
46007015050000009000619094036202325332023250              V1100W 1000763031BIN 49073413   NB000000000000706874                  Y7015050000Y9999764000000              0
46007015050000009000619094036202325332023250              V1100W 1000763037BIN 49073468   NB000000000000706875                  Y3200320000Y9999764000000              0
46007015050000009000619094036202325332023250              V1100W 1000763037BIN 49073468   NB000000000000706875                  Y7015050000Y9999764000000              0
46007015050000009000619094036202325332023250              V1100W 1000763043BIN 49073490   NB000000000000706876                  Y3200320000Y9999764000000              0
46007015050000009000619094036202325332023250              V1100W 1000763043BIN 49073490   NB000000000000706876                  Y7015050000Y9999764000000              0
46007015050000009000619094036202325322023250              V1100W 1000751994SUM-477376 (N) N                                     N          N    764000                 0
46007015050000009000619094036202325332023250              V1100W 1000152285SIAM COMMERCIALNB000000000000477376                  Y3200320000Y9999764000000              0
46007015050000009000619094036202325332023250              V1100W 1000152285SIAM COMMERCIALNB000000000000477376                  Y4548520000Y9999764000000              0
46007015050000009000619094036202325332023250              V1100W 1000761796BIN 47737601   NB000000000000706802                  Y3200320000Y9999764000000              0
46007015050000009000619094036202325332023250              V1100W 1000761796BIN 47737601   NB000000000000706802                  Y4548520000Y9999764000000              0
46007015050000009000619094036202325332023250              V1100W 1000761802BIN 47737606   NB000000000000706803                  Y3200320000Y9999764000000              0
46007015050000009000619094036202325332023250              V1100W 1000761802BIN 47737606   NB000000000000706803                  Y7015050000Y9999764000000              0
46007015050000009000619094036202325332023250              V1100W 1000761808BIN 47737609   NB000000000000706804                  Y3200320000Y9999764000000              0
46007015050000009000619094036202325332023250              V1100W 1000761808BIN 47737609   NB000000000000706804                  Y4548520000Y9999764000000              0
46007015050000009000619094036202325332023250              V1100W 1000761814BIN 47737690   NB000000000000706805                  Y3200320000Y9999764000000              0
46007015050000009000619094036202325332023250              V1100W 1000761814BIN 47737690   NB000000000000706805                  Y7015050000Y9999764000000              0
46007015050000009000619094036202325322023250              V1100W 1000761742BIN 45485201   NB000000000000702800                  Y3200320000Y9999764000000              0
46007015050000009000619094036202325322023250              V1100W 1000761742BIN 45485201   NB000000000000702800                  Y7015050000Y9999764000000              0
46007015050000009000619094036202325322023250              V1100W 1000761772BIN 45485200   NB000000000000706799                  Y3200320000Y9999764000000              0
46007015050000009000619094036202325322023250              V1100W 1000761772BIN 45485200   NB000000000000706799                  Y7015050000Y9999764000000              0
46007015050000009000619094036202325322023250              V1100W 1000761778BIN 47737604   NB000000000000706774                  Y3200320000Y9999764000000              0
46007015050000009000619094036202325322023250              V1100W 1000761778BIN 47737604   NB000000000000706774                  Y7015050000Y9999764000000              0
46007015050000009000619094036202325322023250              V1100W 1000761784BIN 47737605   NB000000000000706775                  Y3200320000Y9999764000000              0
46007015050000009000619094036202325322023250              V1100W 1000761784BIN 47737605   NB000000000000706775                  Y7015050000Y9999764000000              0
