4600701505000000900061909290006190929000619092001840Y     V2110  20232292023229                                                                                        0
4600701505000000900061909390006190929000619092001840Y     V2110  20232292023229                                                                                        0
4600701505000000900061910190006190929000619092001840Y     V2110  20232292023229                                                                                        0
4600701505000000900061938090006193869000619092001840Y     V2110  20232292023229                                                                                        0
4600701505000000900061938190006193869000619092001840Y     V2110  20232292023229                                                                                        0
4600701505000000900061938290006193869000619092001840Y     V2110  20232292023229                                                                                        0
4600701505000000900061938690006190929000619092001840Y     V2110  20232292023229                                                                                        0
4600701505000000900063254390006190929000619092001840Y     V2110  20232292023229                                                                                        0
4600701505000000900063254490006325439000619092001840Y     V2110  20232292023229                                                                                        0
4600701505000000900063254790006325439000619092001840Y     V2110  20232292023229                                                                                        0
4600701505000000900063254990006325439000619092001840Y     V2110  20232292023229                                                                                        0
4600701505000000900061909290006190929000619092001840Y     V2110  20232292023229                                                                                        0
4600701505000000900061909390006190929000619092001840Y     V2110  20232292023229                                                                                        0
4600701505000000900061910190006190929000619092001840Y     V2110  20232292023229                                                                                        0
4600701505000000900061938090006193869000619092001840Y     V2110  20232292023229                                                                                        0
4600701505000000900061938190006193869000619092001840Y     V2110  20232292023229                                                                                        0
4600701505000000900061938290006193869000619092001840Y     V2110  20232292023229                                                                                        0
4600701505000000900061938690006190929000619092001840Y     V2110  20232292023229                                                                                        0
4600701505000000900063254390006190929000619092001840Y     V2110  20232292023229                                                                                        0
4600701505000000900063254490006325439000619092001840Y     V2110  20232292023229                                                                                        0
4600701505000000900063254790006325439000619092001840Y     V2110  20232292023229                                                                                        0
4600701505000000900063254990006325439000619092001840Y     V2110  20232292023229                                                                                        0
4600701505000000900061909490006190949000619094036764      V2110  20232292023229              I1000000000000010000000000040000000000000020000000000000000000            0
4600701505000000900061909490006190949000619094036764      V2110  20232292023229              I2000000000000005000000000010000000000000020000000000000030000DB          0
4600701505000000900061909490006190949000619094036764      V2110  20232292023229              I3000000000000000000000000000000000000000000000000000000000000            0
4600701505000000900061909490006190949000619094036764      V2110  20232292023229              I9000000000000015000000000050000000000000040000000000000030000DB          0
4600701505000000900061909490006190949000619094036764      V2110  20232292023229              F1               000000000000500000000000000600000000000000000            0
4600701505000000900061909490006190949000619094036764      V2110  20232292023229              F2               000000000000500000000000000100000000000000400CR          0
4600701505000000900061909490006190949000619094036764      V2110  20232292023229              F3               000000000000000000000000000000000000000000000            0
4600701505000000900061909490006190949000619094036764      V2110  20232292023229              F9               000000000001000000000000000700000000000000400CR          0
4600701505000000900061909490006190949000619094036764      V2110  20232292023229              C1               000000000000000000000000000000000000000000000            0
4600701505000000900061909490006190949000619094036764      V2110  20232292023229              C2               000000000000000000000000000000000000000000000            0
4600701505000000900061909490006190949000619094036764      V2110  20232292023229              C3               000000000000000000000000000000000000000000000            0
4600701505000000900061909490006190949000619094036764      V2110  20232292023229              C9               000000000000000000000000000000000000000000000            0
4600701505000000900061909490006190949000619094036764      V2110  20232292023229              T1               000000000029000000000000025000000000000000000            0
4600701505000000900061909490006190949000619094036764      V2110  20232292023229              T2               000000000001000000000000025000000000000020000DB          0
4600701505000000900061909490006190949000619094036764      V2110  20232292023229              T3               000000000000000000000000000000000000000000000            0
4600701505000000900061909490006190949000619094036764      V2110  20232292023229              T9               000000000030000000000000050000000000000020000DB          0
4600701505000000900061909590006190949000619094036764      V2110  20232292023229              I1000000000000000000000000000000000000000000000000000000000000            0
4600701505000000900061909590006190949000619094036764      V2110  20232292023229              I2000000000000009000000000007000000000000030000000000000020000DB          0
4600701505000000900061909590006190949000619094036764      V2110  20232292023229              I3000000000000000000000000000000000000000000000000000000000000            0
4600701505000000900061909590006190949000619094036764      V2110  20232292023229              I9000000000000009000000000007000000000000030000000000000020000DB          0
4600701505000000900061909590006190949000619094036764      V2110  20232292023229              F1               000000000000000000000000000000000000000000000            0
4600701505000000900061909590006190949000619094036764      V2110  20232292023229              F2               000000000000600000000000000150000000000000407CR          0
4600701505000000900061909590006190949000619094036764      V2110  20232292023229              F3               000000000000000000000000000000000000000000000            0
4600701505000000900061909590006190949000619094036764      V2110  20232292023229              F9               000000000000600000000000000150000000000000407CR          0
4600701505000000900061909590006190949000619094036764      V2110  20232292023229              C1               000000000000000000000000000000000000000000000            0
4600701505000000900061909590006190949000619094036764      V2110  20232292023229              C2               000000000000000000000000000000000000000000000            0
4600701505000000900061909590006190949000619094036764      V2110  20232292023229              C3               000000000000000000000000000000000000000000000            0
4600701505000000900061909590006190949000619094036764      V2110  20232292023229              C9               000000000000000000000000000000000000000000000            0
4600701505000000900061909590006190949000619094036764      V2110  20232292023229              T1               000000000000000000000000000000000000000000000            0
4600701505000000900061909590006190949000619094036764      V2110  20232292023229              T2               000000000007000000000000028900000000000021593DB          0
4600701505000000900061909590006190949000619094036764      V2110  20232292023229              T3               000000000000000000000000000000000000000000000            0
4600701505000000900061909590006190949000619094036764      V2110  20232292023229              T9               000000000007000000000000028900000000000021593DB          0
4600701505000000900063254590006190949000619094036764      V2110  20232292023229              I1000000000000010000000000040000000000000020000000000000000000            0
4600701505000000900063254590006190949000619094036764      V2110  20232292023229              I2000000000000000000000000000000000000000000000000000000000000            0
4600701505000000900063254590006190949000619094036764      V2110  20232292023229              I3000000000000000000000000000000000000000000000000000000000000            0
4600701505000000900063254590006190949000619094036764      V2110  20232292023229              I9000000000000010000000000040000000000000020000000000000000000            0
4600701505000000900063254590006190949000619094036764      V2110  20232292023229              F1               000000000000400000000000000400000000000000000            0
4600701505000000900063254590006190949000619094036764      V2110  20232292023229              F2               000000000000000000000000000000000000000000000            0
4600701505000000900063254590006190949000619094036764      V2110  20232292023229              F3               000000000000000000000000000000000000000000000            0
4600701505000000900063254590006190949000619094036764      V2110  20232292023229              F9               000000000000400000000000000400000000000000000            0
4600701505000000900063254590006190949000619094036764      V2110  20232292023229              C1               000000000000000000000000000000000000000000000            0
4600701505000000900063254590006190949000619094036764      V2110  20232292023229              C2               000000000000000000000000000000000000000000000            0
4600701505000000900063254590006190949000619094036764      V2110  20232292023229              C3               000000000000000000000000000000000000000000000            0
4600701505000000900063254590006190949000619094036764      V2110  20232292023229              C9               000000000000000000000000000000000000000000000            0
4600701505000000900063254590006190949000619094036764      V2110  20232292023229              T1               000000000040000000000000055500000000000000000            0
4600701505000000900063254590006190949000619094036764      V2110  20232292023229              T2               000000000000000000000000000000000000000000000            0
4600701505000000900063254590006190949000619094036764      V2110  20232292023229              T3               000000000000000000000000000000000000000000000            0
4600701505000000900063254590006190949000619094036764      V2110  20232292023229              T9               000000000040000000000000055500000000000000000            0
4600701505000000900063254890006325459000619094036764      V2110  20232292023229              I1000000000000010000000000035500000000000027700000000000000000            0
4600701505000000900063254890006325459000619094036764      V2110  20232292023229              I2000000000000000000000000000000000000000000000000000000000000            0
4600701505000000900063254890006325459000619094036764      V2110  20232292023229              I3000000000000000000000000000000000000000000000000000000000000            0
4600701505000000900063254890006325459000619094036764      V2110  20232292023229              I9000000000000010000000000035500000000000027700000000000000000            0
4600701505000000900063254890006325459000619094036764      V2110  20232292023229              F1               000000000000800000000000000900000000000000000            0
4600701505000000900063254890006325459000619094036764      V2110  20232292023229              F2               000000000000000000000000000000000000000000000            0
4600701505000000900063254890006325459000619094036764      V2110  20232292023229              F3               000000000000000000000000000000000000000000000            0
4600701505000000900063254890006325459000619094036764      V2110  20232292023229              F9               000000000000800000000000000900000000000000000            0
4600701505000000900063254890006325459000619094036764      V2110  20232292023229              C1               000000000000000000000000000000000000000000000            0
4600701505000000900063254890006325459000619094036764      V2110  20232292023229              C2               000000000000000000000000000000000000000000000            0
4600701505000000900063254890006325459000619094036764      V2110  20232292023229              C3               000000000000000000000000000000000000000000000            0
4600701505000000900063254890006325459000619094036764      V2110  20232292023229              C9               000000000000000000000000000000000000000000000            0
4600701505000000900063254890006325459000619094036764      V2110  20232292023229              T1               000000000029900000000000071700000000000000000            0
4600701505000000900063254890006325459000619094036764      V2110  20232292023229              T2               000000000000000000000000000000000000000000000            0
4600701505000000900063254890006325459000619094036764      V2110  20232292023229              T3               000000000000000000000000000000000000000000000            0
4600701505000000900063254890006325459000619094036764      V2110  20232292023229              T9               000000000029900000000000071700000000000000000            0



9070150523233      2323300400TEST 0000      000000000000000000CRDX2022      001                                                                                         
46007015050000009000619092001202323312023201              V1100W 9000619092CARDX          Y                                     N          N    840000                 0
46007015050000009000619092001202323322023201              V1100W 1000047788SUM-490733 (I) N                                     N          N    840000                 0
46007015050000009000619092001202323332023201              V1100W 0006490733SCBS 490733 (I)NB000000000000490733                  Y3200320000Y9999840000000              0
46007015050000009000619092001202323332023201              V1100W 0006490733SCBS 490733 (I)NB000000000000490733                  Y7015050000Y9999840000000              0
46007015050000009000619092001202323332023201              V1100W 1000032976SCBS490733-2(I)NB000000000000490733                  Y4367610004Y0002840000000              0
46007015050000009000619092001202323332023201              V1100W 1000032977BOAS490733-2(I)NB000000000000490733                  Y7030310002Y0002840000000              0
46007015050000009000619092001202323332023201              V1100W 1000032978SCBS490733-4(I)NB000000000000490733                  Y4367610004Y0004840000000              0
46007015050000009000619092001202323332023201              V1100W 1000032979BOAS490733-4(I)NB000000000000490733                  Y7030310004Y0004840000000              0
46007015050000009000619092001202323332023201              V1100W 1000762515BIN 49073304   NB000000000000706808                  Y4367610004Y0002840000000              0
46007015050000009000619092001202323332023201              V1100W 1000762516BIN 49073304   NB000000000000706808                  Y7030310002Y0002840000000              0
46007015050000009000619092001202323332023201              V1100W 1000762517BIN 49073304   NB000000000000706808                  Y4367610004Y0004840000000              0
46007015050000009000619092001202323332023201              V1100W 1000762518BIN 49073304   NB000000000000706808                  Y7030310004Y0004840000000              0
46007015050000009000619092001202323332023201              V1100W 1000762519BIN 49073304   NB000000000000706808                  Y3200320000Y9999840000000              0
46007015050000009000619092001202323332023201              V1100W 1000762519BIN 49073304   NB000000000000706808                  Y7015050000Y9999840000000              0
46007015050000009000619092001202323332023201              V1100W 1000762521BIN 49073307   NB000000000000706809                  Y4367610004Y0002840000000              0
46007015050000009000619092001202323332023201              V1100W 1000762522BIN 49073307   NB000000000000706809                  Y7030310002Y0002840000000              0
46007015050000009000619092001202323332023201              V1100W 1000762523BIN 49073307   NB000000000000706809                  Y4367610004Y0004840000000              0
46007015050000009000619092001202323332023201              V1100W 1000762524BIN 49073307   NB000000000000706809                  Y7030310004Y0004840000000              0
46007015050000009000619092001202323332023201              V1100W 1000762525BIN 49073307   NB000000000000706809                  Y3200320000Y9999840000000              0
46007015050000009000619092001202323332023201              V1100W 1000762525BIN 49073307   NB000000000000706809                  Y7015050000Y9999840000000              0
46007015050000009000619092001202323332023201              V1100W 1000762527BIN 49073308   NB000000000000706810                  Y4367610004Y0002840000000              0
46007015050000009000619092001202323332023201              V1100W 1000762528BIN 49073308   NB000000000000706810                  Y7030310002Y0002840000000              0
46007015050000009000619092001202323332023201              V1100W 1000762529BIN 49073308   NB000000000000706810                  Y4367610004Y0004840000000              0
46007015050000009000619092001202323332023201              V1100W 1000762530BIN 49073308   NB000000000000706810                  Y7030310004Y0004840000000              0
46007015050000009000619092001202323332023201              V1100W 1000762531BIN 49073308   NB000000000000706810                  Y3200320000Y9999840000000              0
46007015050000009000619092001202323332023201              V1100W 1000762531BIN 49073308   NB000000000000706810                  Y7015050000Y9999840000000              0
46007015050000009000619092001202323332023201              V1100W 1000762533BIN 49073312   NB000000000000706811                  Y4367610004Y0002840000000              0
46007015050000009000619092001202323332023201              V1100W 1000762534BIN 49073312   NB000000000000706811                  Y7030310002Y0002840000000              0
46007015050000009000619092001202323332023201              V1100W 1000762535BIN 49073312   NB000000000000706811                  Y4367610004Y0004840000000              0
46007015050000009000619092001202323332023201              V1100W 1000762536BIN 49073312   NB000000000000706811                  Y7030310004Y0004840000000              0
46007015050000009000619092001202323332023201              V1100W 1000762537BIN 49073312   NB000000000000706811                  Y3200320000Y9999840000000              0
46007015050000009000619092001202323332023201              V1100W 1000762537BIN 49073312   NB000000000000706811                  Y7015050000Y9999840000000              0
46007015050000009000619092001202323332023201              V1100W 1000762539BIN 49073317   NB000000000000706812                  Y4367610004Y0002840000000              0
46007015050000009000619092001202323332023201              V1100W 1000762540BIN 49073317   NB000000000000706812                  Y7030310002Y0002840000000              0
46007015050000009000619092001202323332023201              V1100W 1000762541BIN 49073317   NB000000000000706812                  Y4367610004Y0004840000000              0
46007015050000009000619092001202323332023201              V1100W 1000762542BIN 49073317   NB000000000000706812                  Y7030310004Y0004840000000              0
46007015050000009000619092001202323332023201              V1100W 1000762543BIN 49073317   NB000000000000706812                  Y3200320000Y9999840000000              0
46007015050000009000619092001202323332023201              V1100W 1000762543BIN 49073317   NB000000000000706812                  Y7015050000Y9999840000000              0
46007015050000009000619092001202323332023201              V1100W 1000762545BIN 49073318   NB000000000000706813                  Y4367610004Y0002840000000              0
46007015050000009000619092001202323332023201              V1100W 1000762546BIN 49073318   NB000000000000706813                  Y7030310002Y0002840000000              0
46007015050000009000619092001202323332023201              V1100W 1000762547BIN 49073318   NB000000000000706813                  Y4367610004Y0004840000000              0
46007015050000009000619092001202323332023201              V1100W 1000762548BIN 49073318   NB000000000000706813                  Y7030310004Y0004840000000              0
46007015050000009000619092001202323332023201              V1100W 1000762549BIN 49073318   NB000000000000706813                  Y3200320000Y9999840000000              0
46007015050000009000619092001202323332023201              V1100W 1000762549BIN 49073318   NB000000000000706813                  Y7015050000Y9999840000000              0
46007015050000009000619092001202323332023201              V1100W 1000762551BIN 49073319   NB000000000000706814                  Y4367610004Y0002840000000              0
46007015050000009000619092001202323332023201              V1100W 1000762552BIN 49073319   NB000000000000706814                  Y7030310002Y0002840000000              0
46007015050000009000619092001202323332023201              V1100W 1000762553BIN 49073319   NB000000000000706814                  Y4367610004Y0004840000000              0
46007015050000009000619092001202323332023201              V1100W 1000762554BIN 49073319   NB000000000000706814                  Y7030310004Y0004840000000              0
46007015050000009000619092001202323332023201              V1100W 1000762555BIN 49073319   NB000000000000706814                  Y3200320000Y9999840000000              0
46007015050000009000619092001202323332023201              V1100W 1000762555BIN 49073319   NB000000000000706814                  Y7015050000Y9999840000000              0
46007015050000009000619092001202323332023201              V1100W 1000762557BIN 49073320   NB000000000000706815                  Y4367610004Y0002840000000              0
46007015050000009000619092001202323332023201              V1100W 1000762558BIN 49073320   NB000000000000706815                  Y7030310002Y0002840000000              0
46007015050000009000619092001202323332023201              V1100W 1000762559BIN 49073320   NB000000000000706815                  Y4367610004Y0004840000000              0
46007015050000009000619092001202323332023201              V1100W 1000762560BIN 49073320   NB000000000000706815                  Y7030310004Y0004840000000              0
46007015050000009000619092001202323332023201              V1100W 1000762561BIN 49073320   NB000000000000706815                  Y3200320000Y9999840000000              0
46007015050000009000619092001202323332023201              V1100W 1000762561BIN 49073320   NB000000000000706815                  Y7015050000Y9999840000000              0
46007015050000009000619092001202323332023201              V1100W 1000762563BIN 49073390   NB000000000000706816                  Y4367610004Y0002840000000              0
46007015050000009000619092001202323332023201              V1100W 1000762564BIN 49073390   NB000000000000706816                  Y7030310002Y0002840000000              0
46007015050000009000619092001202323332023201              V1100W 1000762565BIN 49073390   NB000000000000706816                  Y4367610004Y0004840000000              0
46007015050000009000619092001202323332023201              V1100W 1000762566BIN 49073390   NB000000000000706816                  Y7030310004Y0004840000000              0
46007015050000009000619092001202323332023201              V1100W 1000762567BIN 49073390   NB000000000000706816                  Y3200320000Y9999840000000              0
46007015050000009000619092001202323332023201              V1100W 1000762567BIN 49073390   NB000000000000706816                  Y7015050000Y9999840000000              0
46007015050000009000619092001202323322023201              V1100W 1000047789SUM-490734 (I) N                                     N          N    840000                 0
46007015050000009000619092001202323332023201              V1100W 0006490734SCBS49073400(I)NB000000000000490734                  Y3200320000Y9999840000000              0
46007015050000009000619092001202323332023201              V1100W 0006490734SCBS49073400(I)NB000000000000490734                  Y4548520000Y9999840000000              0
46007015050000009000619092001202323332023201              V1100W 1000032980BIN 49073400   NB000000000000490734                  Y4367610004Y0002840000000              0
46007015050000009000619092001202323332023201              V1100W 1000032981BIN 49073400   NB000000000000490734                  Y7030310002Y0002840000000              0
46007015050000009000619092001202323332023201              V1100W 1000032982BIN 49073400   NB000000000000490734                  Y4367610004Y0004840000000              0
46007015050000009000619092001202323332023201              V1100W 1000032983BIN 49073400   NB000000000000490734                  Y7030310004Y0004840000000              0
46007015050000009000619092001202323332023201              V1100W 1000762960BIN 49073402   NB000000000000706817                  Y4367610004Y0002840000000              0
46007015050000009000619092001202323332023201              V1100W 1000762961BIN 49073402   NB000000000000706817                  Y7030310002Y0002840000000              0
46007015050000009000619092001202323332023201              V1100W 1000762962BIN 49073402   NB000000000000706817                  Y4367610004Y0004840000000              0
46007015050000009000619092001202323332023201              V1100W 1000762963BIN 49073402   NB000000000000706817                  Y7030310004Y0004840000000              0
46007015050000009000619092001202323332023201              V1100W 1000762964BIN 49073402   NB000000000000706817                  Y3200320000Y9999840000000              0
46007015050000009000619092001202323332023201              V1100W 1000762964BIN 49073402   NB000000000000706817                  Y7015050000Y9999840000000              0
46007015050000009000619092001202323332023201              V1100W 1000762966BIN 49073403   NB000000000000706818                  Y4367610004Y0002840000000              0
46007015050000009000619092001202323332023201              V1100W 1000762967BIN 49073403   NB000000000000706818                  Y7030310002Y0002840000000              0
46007015050000009000619092001202323332023201              V1100W 1000762968BIN 49073403   NB000000000000706818                  Y4367610004Y0004840000000              0
46007015050000009000619092001202323332023201              V1100W 1000762969BIN 49073403   NB000000000000706818                  Y7030310004Y0004840000000              0
46007015050000009000619092001202323332023201              V1100W 1000762970BIN 49073403   NB000000000000706818                  Y3200320000Y9999840000000              0
46007015050000009000619092001202323332023201              V1100W 1000762970BIN 49073403   NB000000000000706818                  Y7015050000Y9999840000000              0
46007015050000009000619092001202323332023201              V1100W 1000762978BIN 49073405   NB000000000000706819                  Y4367610004Y0002840000000              0
46007015050000009000619092001202323332023201              V1100W 1000762979BIN 49073405   NB000000000000706819                  Y7030310002Y0002840000000              0
46007015050000009000619092001202323332023201              V1100W 1000762980BIN 49073405   NB000000000000706819                  Y4367610004Y0004840000000              0
46007015050000009000619092001202323332023201              V1100W 1000762981BIN 49073405   NB000000000000706819                  Y7030310004Y0004840000000              0
46007015050000009000619092001202323332023201              V1100W 1000762982BIN 49073405   NB000000000000706819                  Y3200320000Y9999840000000              0
46007015050000009000619092001202323332023201              V1100W 1000762982BIN 49073405   NB000000000000706819                  Y7015050000Y9999840000000              0
46007015050000009000619092001202323332023201              V1100W 1000762990BIN 49073407   NB000000000000706820                  Y4367610004Y0002840000000              0
46007015050000009000619092001202323332023201              V1100W 1000762991BIN 49073407   NB000000000000706820                  Y7030310002Y0002840000000              0
46007015050000009000619092001202323332023201              V1100W 1000762992BIN 49073407   NB000000000000706820                  Y4367610004Y0004840000000              0
46007015050000009000619092001202323332023201              V1100W 1000762993BIN 49073407   NB000000000000706820                  Y7030310004Y0004840000000              0
46007015050000009000619092001202323332023201              V1100W 1000762994BIN 49073407   NB000000000000706820                  Y3200320000Y9999840000000              0
46007015050000009000619092001202323332023201              V1100W 1000762994BIN 49073407   NB000000000000706820                  Y7015050000Y9999840000000              0
46007015050000009000619092001202323332023201              V1100W 1000763008BIN 49073410   NB000000000000706821                  Y4367610004Y0002840000000              0
46007015050000009000619092001202323332023201              V1100W 1000763009BIN 49073410   NB000000000000706821                  Y7030310002Y0002840000000              0
46007015050000009000619092001202323332023201              V1100W 1000763010BIN 49073410   NB000000000000706821                  Y4367610004Y0004840000000              0
46007015050000009000619092001202323332023201              V1100W 1000763011BIN 49073410   NB000000000000706821                  Y7030310004Y0004840000000              0
46007015050000009000619092001202323332023201              V1100W 1000763012BIN 49073410   NB000000000000706821                  Y3200320000Y9999840000000              0
46007015050000009000619092001202323332023201              V1100W 1000763012BIN 49073410   NB000000000000706821                  Y7015050000Y9999840000000              0
46007015050000009000619092001202323332023201              V1100W 1000763014BIN 49073411   NB000000000000706822                  Y4367610004Y0002840000000              0
46007015050000009000619092001202323332023201              V1100W 1000763015BIN 49073411   NB000000000000706822                  Y7030310002Y0002840000000              0
46007015050000009000619092001202323332023201              V1100W 1000763016BIN 49073411   NB000000000000706822                  Y4367610004Y0004840000000              0
46007015050000009000619092001202323332023201              V1100W 1000763017BIN 49073411   NB000000000000706822                  Y7030310004Y0004840000000              0
46007015050000009000619092001202323332023201              V1100W 1000763018BIN 49073411   NB000000000000706822                  Y3200320000Y9999840000000              0
46007015050000009000619092001202323332023201              V1100W 1000763018BIN 49073411   NB000000000000706822                  Y7015050000Y9999840000000              0
46007015050000009000619092001202323332023201              V1100W 1000763020BIN 49073412   NB000000000000706873                  Y4367610004Y0002840000000              0
46007015050000009000619092001202323332023201              V1100W 1000763021BIN 49073412   NB000000000000706873                  Y7030310002Y0002840000000              0
46007015050000009000619092001202323332023201              V1100W 1000763022BIN 49073412   NB000000000000706873                  Y4367610004Y0004840000000              0
46007015050000009000619092001202323332023201              V1100W 1000763023BIN 49073412   NB000000000000706873                  Y7030310004Y0004840000000              0
46007015050000009000619092001202323332023201              V1100W 1000763024BIN 49073412   NB000000000000706873                  Y3200320000Y9999840000000              0
46007015050000009000619092001202323332023201              V1100W 1000763024BIN 49073412   NB000000000000706873                  Y7015050000Y9999840000000              0
46007015050000009000619092001202323332023201              V1100W 1000763026BIN 49073413   NB000000000000706874                  Y4367610004Y0002840000000              0
46007015050000009000619092001202323332023201              V1100W 1000763027BIN 49073413   NB000000000000706874                  Y7030310002Y0002840000000              0
46007015050000009000619092001202323332023201              V1100W 1000763028BIN 49073413   NB000000000000706874                  Y4367610004Y0004840000000              0
46007015050000009000619092001202323332023201              V1100W 1000763029BIN 49073413   NB000000000000706874                  Y7030310004Y0004840000000              0
46007015050000009000619092001202323332023201              V1100W 1000763030BIN 49073413   NB000000000000706874                  Y3200320000Y9999840000000              0
46007015050000009000619092001202323332023201              V1100W 1000763030BIN 49073413   NB000000000000706874                  Y7015050000Y9999840000000              0
46007015050000009000619092001202323332023201              V1100W 1000763032BIN 49073468   NB000000000000706875                  Y4367610004Y0002840000000              0
46007015050000009000619092001202323332023201              V1100W 1000763033BIN 49073468   NB000000000000706875                  Y7030310002Y0002840000000              0
46007015050000009000619092001202323332023201              V1100W 1000763034BIN 49073468   NB000000000000706875                  Y4367610004Y0004840000000              0
46007015050000009000619092001202323332023201              V1100W 1000763035BIN 49073468   NB000000000000706875                  Y7030310004Y0004840000000              0
46007015050000009000619092001202323332023201              V1100W 1000763036BIN 49073468   NB000000000000706875                  Y3200320000Y9999840000000              0
46007015050000009000619092001202323332023201              V1100W 1000763036BIN 49073468   NB000000000000706875                  Y7015050000Y9999840000000              0
46007015050000009000619092001202323332023201              V1100W 1000763038BIN 49073490   NB000000000000706876                  Y4367610004Y0002840000000              0
46007015050000009000619092001202323332023201              V1100W 1000763039BIN 49073490   NB000000000000706876                  Y7030310002Y0002840000000              0
46007015050000009000619092001202323332023201              V1100W 1000763040BIN 49073490   NB000000000000706876                  Y4367610004Y0004840000000              0
46007015050000009000619092001202323332023201              V1100W 1000763041BIN 49073490   NB000000000000706876                  Y7030310004Y0004840000000              0
46007015050000009000619092001202323332023201              V1100W 1000763042BIN 49073490   NB000000000000706876                  Y3200320000Y9999840000000              0
46007015050000009000619092001202323332023201              V1100W 1000763042BIN 49073490   NB000000000000706876                  Y7015050000Y9999840000000              0
46007015050000009000619092001202323322023201              V1100W 1000751992SUM-477376 (I) N                                     N          N    840000                 0
46007015050000009000619092001202323332023201              V1100W 1000152284SIAM COMMERCIALNB000000000000477376                  Y3200320000Y9999840000000              0
46007015050000009000619092001202323332023201              V1100W 1000152284SIAM COMMERCIALNB000000000000477376                  Y7015050000Y9999840000000              0
46007015050000009000619092001202323332023201              V1100W 1000157762THE SIAM COMMERNB000000000000477376                  Y4367610004Y0002840000000              0
46007015050000009000619092001202323332023201              V1100W 1000157763THE SIAM COMMERNB000000000000477376                  Y7030310002Y0002840000000              0
46007015050000009000619092001202323332023201              V1100W 1000157764THE SIAM COMMERNB000000000000477376                  Y4367610004Y0004840000000              0
46007015050000009000619092001202323332023201              V1100W 1000157765THE SIAM COMMERNB000000000000477376                  Y7030310004Y0004840000000              0
46007015050000009000619092001202323332023201              V1100W 1000761791BIN 47737601   NB000000000000706802                  Y4367610004Y0002840000000              0
46007015050000009000619092001202323332023201              V1100W 1000761792BIN 47737601   NB000000000000706802                  Y7030310002Y0002840000000              0
46007015050000009000619092001202323332023201              V1100W 1000761793BIN 47737601   NB000000000000706802                  Y4367610004Y0004840000000              0
46007015050000009000619092001202323332023201              V1100W 1000761794BIN 47737601   NB000000000000706802                  Y7030310004Y0004840000000              0
46007015050000009000619092001202323332023201              V1100W 1000761795BIN 47737601   NB000000000000706802                  Y3200320000Y9999840000000              0
46007015050000009000619092001202323332023201              V1100W 1000761795BIN 47737601   NB000000000000706802                  Y7015050000Y9999840000000              0
46007015050000009000619092001202323332023201              V1100W 1000761797BIN 47737606   NB000000000000706803                  Y4367610004Y0002840000000              0
46007015050000009000619092001202323332023201              V1100W 1000761798BIN 47737606   NB000000000000706803                  Y7030310002Y0002840000000              0
46007015050000009000619092001202323332023201              V1100W 1000761799BIN 47737606   NB000000000000706803                  Y4367610004Y0004840000000              0
46007015050000009000619092001202323332023201              V1100W 1000761800BIN 47737606   NB000000000000706803                  Y7030310004Y0004840000000              0
46007015050000009000619092001202323332023201              V1100W 1000761801BIN 47737606   NB000000000000706803                  Y3200320000Y9999840000000              0
46007015050000009000619092001202323332023201              V1100W 1000761801BIN 47737606   NB000000000000706803                  Y7015050000Y9999840000000              0
46007015050000009000619092001202323332023201              V1100W 1000761803BIN 47737609   NB000000000000706804                  Y4367610004Y0002840000000              0
46007015050000009000619092001202323332023201              V1100W 1000761804BIN 47737609   NB000000000000706804                  Y7030310002Y0002840000000              0
46007015050000009000619092001202323332023201              V1100W 1000761805BIN 47737609   NB000000000000706804                  Y4367610004Y0004840000000              0
46007015050000009000619092001202323332023201              V1100W 1000761806BIN 47737609   NB000000000000706804                  Y7030310004Y0004840000000              0
46007015050000009000619092001202323332023201              V1100W 1000761807BIN 47737609   NB000000000000706804                  Y3200320000Y9999840000000              0
46007015050000009000619092001202323332023201              V1100W 1000761807BIN 47737609   NB000000000000706804                  Y7015050000Y9999840000000              0
46007015050000009000619092001202323332023201              V1100W 1000761809BIN 47737690   NB000000000000706805                  Y4367610004Y0002840000000              0
46007015050000009000619092001202323332023201              V1100W 1000761810BIN 47737690   NB000000000000706805                  Y7030310002Y0002840000000              0
46007015050000009000619092001202323332023201              V1100W 1000761811BIN 47737690   NB000000000000706805                  Y4367610004Y0004840000000              0
46007015050000009000619092001202323332023201              V1100W 1000761812BIN 47737690   NB000000000000706805                  Y7030310004Y0004840000000              0
46007015050000009000619092001202323332023201              V1100W 1000761813BIN 47737690   NB000000000000706805                  Y3200320000Y9999840000000              0
46007015050000009000619092001202323332023201              V1100W 1000761813BIN 47737690   NB000000000000706805                  Y7015050000Y9999840000000              0
46007015050000009000619092001202323322023201              V1100W 1000761737BIN 45485201   NB000000000000702800                  Y4367610004Y0002840000000              0
46007015050000009000619092001202323322023201              V1100W 1000761738BIN 45485201   NB000000000000702800                  Y7030310002Y0002840000000              0
46007015050000009000619092001202323322023201              V1100W 1000761739BIN 45485201   NB000000000000702800                  Y4367610004Y0004840000000              0
46007015050000009000619092001202323322023201              V1100W 1000761740BIN 45485201   NB000000000000702800                  Y7030310004Y0004840000000              0
46007015050000009000619092001202323322023201              V1100W 1000761741BIN 45485201   NB000000000000702800                  Y3200320000Y9999840000000              0
46007015050000009000619092001202323322023201              V1100W 1000761741BIN 45485201   NB000000000000702800                  Y7015050000Y9999840000000              0
46007015050000009000619092001202323322023201              V1100W 1000761767BIN 45485200   NB000000000000706799                  Y4367610004Y0002840000000              0
46007015050000009000619092001202323322023201              V1100W 1000761768BIN 45485200   NB000000000000706799                  Y7030310002Y0002840000000              0
46007015050000009000619092001202323322023201              V1100W 1000761769BIN 45485200   NB000000000000706799                  Y4367610004Y0004840000000              0
46007015050000009000619092001202323322023201              V1100W 1000761770BIN 45485200   NB000000000000706799                  Y7030310004Y0004840000000              0
46007015050000009000619092001202323322023201              V1100W 1000761771BIN 45485200   NB000000000000706799                  Y3200320000Y9999840000000              0
46007015050000009000619092001202323322023201              V1100W 1000761771BIN 45485200   NB000000000000706799                  Y7015050000Y9999840000000              0
46007015050000009000619092001202323322023201              V1100W 1000761773BIN 47737604   NB000000000000706774                  Y4367610004Y0002840000000              0
46007015050000009000619092001202323322023201              V1100W 1000761774BIN 47737604   NB000000000000706774                  Y7030310002Y0002840000000              0
46007015050000009000619092001202323322023201              V1100W 1000761775BIN 47737604   NB000000000000706774                  Y4367610004Y0004840000000              0
46007015050000009000619092001202323322023201              V1100W 1000761776BIN 47737604   NB000000000000706774                  Y7030310004Y0004840000000              0
46007015050000009000619092001202323322023201              V1100W 1000761777BIN 47737604   NB000000000000706774                  Y3200320000Y9999840000000              0
46007015050000009000619092001202323322023201              V1100W 1000761777BIN 47737604   NB000000000000706774                  Y7015050000Y9999840000000              0
46007015050000009000619092001202323322023201              V1100W 1000761779BIN 47737605   NB000000000000706775                  Y4367610004Y0002840000000              0
46007015050000009000619092001202323322023201              V1100W 1000761780BIN 47737605   NB000000000000706775                  Y7030310002Y0002840000000              0
46007015050000009000619092001202323322023201              V1100W 1000761781BIN 47737605   NB000000000000706775                  Y4367610004Y0004840000000              0
46007015050000009000619092001202323322023201              V1100W 1000761782BIN 47737605   NB000000000000706775                  Y7030310004Y0004840000000              0
46007015050000009000619092001202323322023201              V1100W 1000761783BIN 47737605   NB000000000000706775                  Y3200320000Y9999840000000              0
46007015050000009000619092001202323322023201              V1100W 1000761783BIN 47737605   NB000000000000706775                  Y7015050000Y9999840000000              0
46007015050000009000619092001202323322023201              V1100W 1000762467BIN 49073302   NB000000000000706776                  Y4367610004Y0002840000000              0
46007015050000009000619092001202323322023201              V1100W 1000762468BIN 49073302   NB000000000000706776                  Y7030310002Y0002840000000              0
46007015050000009000619092001202323322023201              V1100W 1000762469BIN 49073302   NB000000000000706776                  Y4367610004Y0004840000000              0
46007015050000009000619092001202323322023201              V1100W 1000762470BIN 49073302   NB000000000000706776                  Y7030310004Y0004840000000              0
46007015050000009000619092001202323322023201              V1100W 1000762471BIN 49073302   NB000000000000706776                  Y3200320000Y9999840000000              0
46007015050000009000619092001202323322023201              V1100W 1000762471BIN 49073302   NB000000000000706776                  Y7015050000Y9999840000000              0
46007015050000009000619092001202323322023201              V1100W 1000762473BIN 49073303   NB000000000000706777                  Y4367610004Y0002840000000              0
46007015050000009000619092001202323322023201              V1100W 1000762474BIN 49073303   NB000000000000706777                  Y7030310002Y0002840000000              0
46007015050000009000619092001202323322023201              V1100W 1000762475BIN 49073303   NB000000000000706777                  Y4367610004Y0004840000000              0
46007015050000009000619092001202323322023201              V1100W 1000762476BIN 49073303   NB000000000000706777                  Y7030310004Y0004840000000              0
46007015050000009000619092001202323322023201              V1100W 1000762477BIN 49073303   NB000000000000706777                  Y3200320000Y9999840000000              0
46007015050000009000619092001202323322023201              V1100W 1000762477BIN 49073303   NB000000000000706777                  Y7015050000Y9999840000000              0
46007015050000009000619092001202323322023201              V1100W 1000762479BIN 49073309   NB000000000000706778                  Y4367610004Y0002840000000              0
46007015050000009000619092001202323322023201              V1100W 1000762480BIN 49073309   NB000000000000706778                  Y7030310002Y0002840000000              0
46007015050000009000619092001202323322023201              V1100W 1000762481BIN 49073309   NB000000000000706778                  Y4367610004Y0004840000000              0
46007015050000009000619092001202323322023201              V1100W 1000762482BIN 49073309   NB000000000000706778                  Y7030310004Y0004840000000              0
46007015050000009000619092001202323322023201              V1100W 1000762483BIN 49073309   NB000000000000706778                  Y3200320000Y9999840000000              0
46007015050000009000619092001202323322023201              V1100W 1000762483BIN 49073309   NB000000000000706778                  Y7015050000Y9999840000000              0
46007015050000009000619092001202323322023201              V1100W 1000762485BIN 49073310   NB000000000000706779                  Y4367610004Y0002840000000              0
46007015050000009000619092001202323322023201              V1100W 1000762486BIN 49073310   NB000000000000706779                  Y7030310002Y0002840000000              0
46007015050000009000619092001202323322023201              V1100W 1000762487BIN 49073310   NB000000000000706779                  Y4367610004Y0004840000000              0
46007015050000009000619092001202323322023201              V1100W 1000762488BIN 49073310   NB000000000000706779                  Y7030310004Y0004840000000              0
46007015050000009000619092001202323322023201              V1100W 1000762489BIN 49073310   NB000000000000706779                  Y3200320000Y9999840000000              0
46007015050000009000619092001202323322023201              V1100W 1000762489BIN 49073310   NB000000000000706779                  Y7015050000Y9999840000000              0
46007015050000009000619092001202323322023201              V1100W 1000762491BIN 49073311   NB000000000000706780                  Y4367610004Y0002840000000              0
46007015050000009000619092001202323322023201              V1100W 1000762492BIN 49073311   NB000000000000706780                  Y7030310002Y0002840000000              0
46007015050000009000619092001202323322023201              V1100W 1000762493BIN 49073311   NB000000000000706780                  Y4367610004Y0004840000000              0
46007015050000009000619092001202323322023201              V1100W 1000762494BIN 49073311   NB000000000000706780                  Y7030310004Y0004840000000              0
46007015050000009000619092001202323322023201              V1100W 1000762495BIN 49073311   NB000000000000706780                  Y3200320000Y9999840000000              0
46007015050000009000619092001202323322023201              V1100W 1000762495BIN 49073311   NB000000000000706780                  Y7015050000Y9999840000000              0
46007015050000009000619092001202323322023201              V1100W 1000762497BIN 49073313   NB000000000000706781                  Y4367610004Y0002840000000              0
46007015050000009000619092001202323322023201              V1100W 1000762498BIN 49073313   NB000000000000706781                  Y7030310002Y0002840000000              0
46007015050000009000619092001202323322023201              V1100W 1000762499BIN 49073313   NB000000000000706781                  Y4367610004Y0004840000000              0
46007015050000009000619092001202323322023201              V1100W 1000762500BIN 49073313   NB000000000000706781                  Y7030310004Y0004840000000              0
46007015050000009000619092001202323322023201              V1100W 1000762501BIN 49073313   NB000000000000706781                  Y3200320000Y9999840000000              0
46007015050000009000619092001202323322023201              V1100W 1000762501BIN 49073313   NB000000000000706781                  Y7015050000Y9999840000000              0
46007015050000009000619092001202323322023201              V1100W 1000762503BIN 49073315   NB000000000000706782                  Y4367610004Y0002840000000              0
46007015050000009000619092001202323322023201              V1100W 1000762504BIN 49073315   NB000000000000706782                  Y7030310002Y0002840000000              0
46007015050000009000619092001202323322023201              V1100W 1000762505BIN 49073315   NB000000000000706782                  Y4367610004Y0004840000000              0
46007015050000009000619092001202323322023201              V1100W 1000762506BIN 49073315   NB000000000000706782                  Y7030310004Y0004840000000              0
46007015050000009000619092001202323322023201              V1100W 1000762507BIN 49073315   NB000000000000706782                  Y3200320000Y9999840000000              0
46007015050000009000619092001202323322023201              V1100W 1000762507BIN 49073315   NB000000000000706782                  Y7015050000Y9999840000000              0
46007015050000009000619092001202323322023201              V1100W 1000762509BIN 49073316   NB000000000000706783                  Y4367610004Y0002840000000              0
46007015050000009000619092001202323322023201              V1100W 1000762510BIN 49073316   NB000000000000706783                  Y7030310002Y0002840000000              0
46007015050000009000619092001202323322023201              V1100W 1000762511BIN 49073316   NB000000000000706783                  Y4367610004Y0004840000000              0
46007015050000009000619092001202323322023201              V1100W 1000762512BIN 49073316   NB000000000000706783                  Y7030310004Y0004840000000              0
46007015050000009000619092001202323322023201              V1100W 1000762513BIN 49073316   NB000000000000706783                  Y3200320000Y9999840000000              0
46007015050000009000619092001202323322023201              V1100W 1000762513BIN 49073316   NB000000000000706783                  Y4548520000Y9999840000000              0
46007015050000009000619092001202323322023201              V1100W 1000762972BIN 49073404   NB000000000000706785                  Y4367610004Y0002840000000              0
46007015050000009000619092001202323322023201              V1100W 1000762973BIN 49073404   NB000000000000706785                  Y7030310002Y0002840000000              0
46007015050000009000619092001202323322023201              V1100W 1000762974BIN 49073404   NB000000000000706785                  Y4367610004Y0004840000000              0
46007015050000009000619092001202323322023201              V1100W 1000762975BIN 49073404   NB000000000000706785                  Y7030310004Y0004840000000              0
46007015050000009000619092001202323322023201              V1100W 1000762976BIN 49073404   NB000000000000706785                  Y3200320000Y9999840000000              0
46007015050000009000619092001202323322023201              V1100W 1000762976BIN 49073404   NB000000000000706785                  Y4548520000Y9999840000000              0
46007015050000009000619092001202323322023201              V1100W 1000762984BIN 49073406   NB000000000000706786                  Y4367610004Y0002840000000              0
46007015050000009000619092001202323322023201              V1100W 1000762985BIN 49073406   NB000000000000706786                  Y7030310002Y0002840000000              0
46007015050000009000619092001202323322023201              V1100W 1000762986BIN 49073406   NB000000000000706786                  Y4367610004Y0004840000000              0
46007015050000009000619092001202323322023201              V1100W 1000762987BIN 49073406   NB000000000000706786                  Y7030310004Y0004840000000              0
46007015050000009000619092001202323322023201              V1100W 1000762988BIN 49073406   NB000000000000706786                  Y3200320000Y9999840000000              0
46007015050000009000619092001202323322023201              V1100W 1000762988BIN 49073406   NB000000000000706786                  Y4548520000Y9999840000000              0
46007015050000009000619092001202323322023201              V1100W 1000762996BIN 49073408   NB000000000000706787                  Y4367610004Y0002840000000              0
46007015050000009000619092001202323322023201              V1100W 1000762997BIN 49073408   NB000000000000706787                  Y7030310002Y0002840000000              0
46007015050000009000619092001202323322023201              V1100W 1000762998BIN 49073408   NB000000000000706787                  Y4367610004Y0004840000000              0
46007015050000009000619092001202323322023201              V1100W 1000762999BIN 49073408   NB000000000000706787                  Y7030310004Y0004840000000              0
46007015050000009000619092001202323322023201              V1100W 1000763000BIN 49073408   NB000000000000706787                  Y3200320000Y9999840000000              0
46007015050000009000619092001202323322023201              V1100W 1000763000BIN 49073408   NB000000000000706787                  Y4548520000Y9999840000000              0
46007015050000009000619092001202323322023201              V1100W 1000763002BIN 49073409   NB000000000000706788                  Y4367610004Y0002840000000              0
46007015050000009000619092001202323322023201              V1100W 1000763003BIN 49073409   NB000000000000706788                  Y7030310002Y0002840000000              0
46007015050000009000619092001202323322023201              V1100W 1000763004BIN 49073409   NB000000000000706788                  Y4367610004Y0004840000000              0
46007015050000009000619092001202323322023201              V1100W 1000763005BIN 49073409   NB000000000000706788                  Y7030310004Y0004840000000              0
46007015050000009000619092001202323322023201              V1100W 1000763006BIN 49073409   NB000000000000706788                  Y3200320000Y9999840000000              0
46007015050000009000619092001202323322023201              V1100W 1000763006BIN 49073409   NB000000000000706788                  Y4548520000Y9999840000000              0
46007015050000009000619092001202323322023201              V1100W 1000763179BIN 49661500   NB000000000000706789                  Y4367610004Y0002840000000              0
46007015050000009000619092001202323322023201              V1100W 1000763180BIN 49661500   NB000000000000706789                  Y7030310002Y0002840000000              0
46007015050000009000619092001202323322023201              V1100W 1000763181BIN 49661500   NB000000000000706789                  Y4367610004Y0004840000000              0
46007015050000009000619092001202323322023201              V1100W 1000763182BIN 49661500   NB000000000000706789                  Y7030310004Y0004840000000              0
46007015050000009000619092001202323322023201              V1100W 1000763183BIN 49661500   NB000000000000706789                  Y3200320000Y9999840000000              0
46007015050000009000619092001202323322023201              V1100W 1000763183BIN 49661500   NB000000000000706789                  Y4548520000Y9999840000000              0
46007015050000009000619092001202323322023201              V1100W 900061909347285800 (I)   NB000000000000701505                  Y3200320000Y9999840000000              0
46007015050000009000619092001202323322023201              V1100W 900061909347285800 (I)   NB000000000000701505                  Y7015050000Y9999840000000              0
46007015050000009000619092001202323322023201              V1100W 900061910148637200 (I)   NB000000000000701749                  Y3200320000Y9999840000000              0
46007015050000009000619092001202323322023201              V1100W 900061910148637200 (I)   NB000000000000701749                  Y7015050000Y9999840000000              0
46007015050000009000619092001202323322023201              V1100W 9000619386MVISA ORIG SUM N                                     N          N    840000                 0
46007015050000009000619092001202323332023201              V1100W 9000619380425317 INT     NB000000000000425317                  Y7015050000Y9999840000000              0
46007015050000009000619092001202323332023201              V1100W 9000619381425317MVISA INTNB000000000000425317                  Y4253170002Y0002840000000              0
46007015050000009000619092001202323332023201              V1100W 9000619382425317VROL INT NB000000000000425317                  Y7018970002Y0002840000000              0
46007015050000009000619092001202323322023201              V1100W 9000632543410517 SUM     N                                     N          N    840000                 0
46007015050000009000619092001202323332023201              V1100W 9000632544BIN 410517     NB000000000000410517                  Y7015050000Y9999840000000              0
46007015050000009000619092001202323332023201              V1100W 9000632547BIN 4105170002 NB000000000000410517                  Y4105170002Y0002840000000              0
46007015050000009000619092001202323332023201              V1100W 9000632549VROL 410517    NB000000000000410517                  Y7018970002Y0002840000000              0
46007015050000009000619093001202323312022009              V1100W 900061909347285800 (I)   NB000000000000701505                  Y3200320000Y9999840000000              0
46007015050000009000619093001202323312022009              V1100W 900061909347285800 (I)   NB000000000000701505                  Y7015050000Y9999840000000              0
46007015050000009000619101001202323312022009              V1100W 900061910148637200 (I)   NB000000000000701749                  Y3200320000Y9999840000000              0
46007015050000009000619101001202323312022009              V1100W 900061910148637200 (I)   NB000000000000701749                  Y7015050000Y9999840000000              0
46007015050000009000619380001202323312022009              V1100W 9000619380425317 INT     NB000000000000425317                  Y7015050000Y9999840000000              0
46007015050000009000619381001202323312022009              V1100W 9000619381425317MVISA INTNB000000000000425317                  Y4253170002Y0002840000000              0
46007015050000009000619382001202323312022009              V1100W 9000619382425317VROL INT NB000000000000425317                  Y7018970002Y0002840000000              0
46007015050000009000619386001202323312022009              V1100W 9000619386MVISA ORIG SUM N                                     N          N    840000                 0
46007015050000009000619386001202323322022009              V1100W 9000619380425317 INT     NB000000000000425317                  Y7015050000Y9999840000000              0
46007015050000009000619386001202323322022009              V1100W 9000619381425317MVISA INTNB000000000000425317                  Y4253170002Y0002840000000              0
46007015050000009000619386001202323322022009              V1100W 9000619382425317VROL INT NB000000000000425317                  Y7018970002Y0002840000000              0
46007015050000009000632543001202323312022100              V1100W 9000632543410517 SUM     N                                     N          N    840000                 0
46007015050000009000632543001202323322022100              V1100W 9000632544BIN 410517     NB000000000000410517                  Y7015050000Y9999840000000              0
46007015050000009000632543001202323322022100              V1100W 9000632547BIN 4105170002 NB000000000000410517                  Y4105170002Y0002840000000              0
46007015050000009000632543001202323322022100              V1100W 9000632549VROL 410517    NB000000000000410517                  Y7018970002Y0002840000000              0
46007015050000009000632544001202323312022100              V1100W 9000632544BIN 410517     NB000000000000410517                  Y7015050000Y9999840000000              0
46007015050000009000632547001202323312022100              V1100W 9000632547BIN 4105170002 NB000000000000410517                  Y4105170002Y0002840000000              0
46007015050000009000632549001202323312022100              V1100W 9000632549VROL 410517    NB000000000000410517                  Y7018970002Y0002840000000              0
4600701505000000900061909290006190929000619092001840Y     V2110  20232332023233                                                                                        0
4600701505000000900061909390006190929000619092001840Y     V2110  20232332023233                                                                                        0
4600701505000000900061910190006190929000619092001840Y     V2110  20232332023233                                                                                        0
4600701505000000900061938090006193869000619092001840Y     V2110  20232332023233                                                                                        0
4600701505000000900061938190006193869000619092001840Y     V2110  20232332023233                                                                                        0
4600701505000000900061938290006193869000619092001840Y     V2110  20232332023233                                                                                        0
4600701505000000900061938690006190929000619092001840Y     V2110  20232332023233                                                                                        0
4600701505000000900063254390006190929000619092001840Y     V2110  20232332023233                                                                                        0
4600701505000000900063254490006325439000619092001840Y     V2110  20232332023233                                                                                        0
4600701505000000900063254790006325439000619092001840Y     V2110  20232332023233                                                                                        0
4600701505000000900063254990006325439000619092001840Y     V2110  20232332023233                                                                                        0
4600701505000000900061909290006190929000619092001840  Y   V3115  20232332023233                                                                                        0
4600701505000000900061909390006190929000619092001840  Y   V3115  20232332023233                                                                                        0
4600701505000000900061910190006190929000619092001840  Y   V3115  20232332023233                                                                                        0
4600701505000000900061938090006193869000619092001840  Y   V3115  20232332023233                                                                                        0
4600701505000000900061938190006193869000619092001840  Y   V3115  20232332023233                                                                                        0
4600701505000000900061938290006193869000619092001840  Y   V3115  20232332023233                                                                                        0
910070150523233000000000000000000000000000000001000000000310000000        000000310000000000000000000000000000000000000000000000000000000000000000000000000000000       
4600701505000000900061938690006190929000619092001840  Y   V3115  20232332023233                                                                                        0
4600701505000000900063254390006190929000619092001840  Y   V3115  20232332023233                                                                                        0
4600701505000000900063254490006325439000619092001840  Y   V3115  20232332023233                                                                                        0
4600701505000000900063254790006325439000619092001840  Y   V3115  20232332023233                                                                                        0
4600701505000000900063254990006325439000619092001840  Y   V3115  20232332023233                                                                                        0
4600701505000000900061938090006193869000619092001840  Y   V3116  20232332023233                                                                                        0
4600701505000000900061938190006193869000619092001840  Y   V3116  20232332023233                                                                                        0
4600701505000000900061938290006193869000619092001840  Y   V3116  20232332023233                                                                                        0
4600701505000000900061938690006190929000619092001840  Y   V3116  20232332023233                                                                                        0
4600701505000000900063254390006190929000619092001840  Y   V3116  20232332023233                                                                                        0
4600701505000000900063254490006325439000619092001840  Y   V3116  20232332023233                                                                                        0
4600701505000000900063254790006325439000619092001840  Y   V3116  20232332023233                                                                                        0
4600701505000000900063254990006325439000619092001840  Y   V3116  20232332023233                                                                                        0
4600701505000000900061909290006190929000619092001       Y V4120  20232332023233                                                                                        0
4600701505000000900061909390006190929000619092001       Y V4120  20232332023233                                                                                        0
4600701505000000900061910190006190929000619092001       Y V4120  20232332023233                                                                                        0
4600701505000000900061938090006193869000619092001       Y V4120  20232332023233                                                                                        0
4600701505000000900061938190006193869000619092001       Y V4120  20232332023233                                                                                        0
4600701505000000900061938290006193869000619092001       Y V4120  20232332023233                                                                                        0
4600701505000000900061938690006190929000619092001       Y V4120  20232332023233                                                                                        0
4600701505000000900063254390006190929000619092001       Y V4120  20232332023233                                                                                        0
4600701505000000900063254490006325439000619092001       Y V4120  20232332023233                                                                                        0
4600701505000000900063254790006325439000619092001       Y V4120  20232332023233                                                                                        0
4600701505000000900063254990006325439000619092001       Y V4120  20232332023233                                                                                        0
4600701505000000900061909290006190929000619092001       Y V4130  20232332023233                                                                                        0
4600701505000000900061909390006190929000619092001       Y V4130  20232332023233                                                                                        0
4600701505000000900061910190006190929000619092001       Y V4130  20232332023233                                                                                        0
4600701505000000900061938090006193869000619092001       Y V4130  20232332023233                                                                                        0
4600701505000000900061938190006193869000619092001       Y V4130  20232332023233                                                                                        0
4600701505000000900061938290006193869000619092001       Y V4130  20232332023233                                                                                        0
4600701505000000900061938690006190929000619092001       Y V4130  20232332023233                                                                                        0
4600701505000000900063254390006190929000619092001       Y V4130  20232332023233                                                                                        0
4600701505000000900063254490006325439000619092001       Y V4130  20232332023233                                                                                        0
4600701505000000900063254790006325439000619092001       Y V4130  20232332023233                                                                                        0
4600701505000000900063254990006325439000619092001       Y V4130  20232332023233                                                                                        0
4600701505000000900061909290006190929000619092001      0Y V4135  2023233202323320232132023233                                                                          0
4600701505000000900061938090006193869000619092001      0Y V4135  2023233202323320232132023233                                                                          0
4600701505000000900061938190006193869000619092001      0Y V4135  2023233202323320232132023233                                                                          0
4600701505000000900061938290006193869000619092001      0Y V4135  2023233202323320232132023233                                                                          0
4600701505000000900061938690006190929000619092001      0Y V4135  2023233202323320232132023233                                                                          0
4600701505000000900063254390006190929000619092001      0Y V4135  2023233202323320232132023233                                                                          0
4600701505000000900063254490006325439000619092001      0Y V4135  2023233202323320232132023233                                                                          0
4600701505000000900063254790006325439000619092001      0Y V4135  2023233202323320232132023233                                                                          0
4600701505000000900063254990006325439000619092001      0Y V4135  2023233202323320232132023233                                                                          0
4600701505000000900061909290006190929000619092001       Y V4140  20232332023233                                                                                        0
4600701505000000900061909390006190929000619092001       Y V4140  20232332023233                                                                                        0
4600701505000000900061910190006190929000619092001       Y V4140  20232332023233                                                                                        0
4600701505000000900061938090006193869000619092001       Y V4140  20232332023233                                                                                        0
4600701505000000900061938190006193869000619092001       Y V4140  20232332023233                                                                                        0
4600701505000000900061938290006193869000619092001       Y V4140  20232332023233                                                                                        0
4600701505000000900061938690006190929000619092001       Y V4140  20232332023233                                                                                        0
4600701505000000900063254390006190929000619092001       Y V4140  20232332023233                                                                                        0
4600701505000000900063254490006325439000619092001       Y V4140  20232332023233                                                                                        0
4600701505000000900063254790006325439000619092001       Y V4140  20232332023233                                                                                        0
4600701505000000900063254990006325439000619092001       Y V4140  20232332023233                                                                                        0
4600701505000000900061909290006190929000619092001       Y V4210  20232332023233                                                                                        0
4600701505000000900061909390006190929000619092001       Y V4210  20232332023233                                                                                        0
4600701505000000900061910190006190929000619092001       Y V4210  20232332023233                                                                                        0
4600701505000000900061938090006193869000619092001       Y V4210  20232332023233                                                                                        0
4600701505000000900061938190006193869000619092001       Y V4210  20232332023233                                                                                        0
4600701505000000900061938290006193869000619092001       Y V4210  20232332023233                                                                                        0
4600701505000000900061938690006190929000619092001       Y V4210  20232332023233                                                                                        0
4600701505000000900063254390006190929000619092001       Y V4210  20232332023233                                                                                        0
4600701505000000900063254490006325439000619092001       Y V4210  20232332023233                                                                                        0
4600701505000000900063254790006325439000619092001       Y V4210  20232332023233                                                                                        0
4600701505000000900063254990006325439000619092001       Y V4210  20232332023233                                                                                        0
4600701505000000900061909290006190929000619092001       Y V4215  20232332023233                                                                                        0
4600701505000000900061909390006190929000619092001       Y V4215  20232332023233                                                                                        0
4600701505000000900061910190006190929000619092001       Y V4215  20232332023233                                                                                        0
4600701505000000900061938090006193869000619092001       Y V4215  20232332023233                                                                                        0
4600701505000000900061938190006193869000619092001       Y V4215  20232332023233                                                                                        0
4600701505000000900061938290006193869000619092001       Y V4215  20232332023233                                                                                        0
4600701505000000900061938690006190929000619092001       Y V4215  20232332023233                                                                                        0
4600701505000000900063254390006190929000619092001       Y V4215  20232332023233                                                                                        0
4600701505000000900063254490006325439000619092001       Y V4215  20232332023233                                                                                        0
4600701505000000900063254790006325439000619092001       Y V4215  20232332023233                                                                                        0
4600701505000000900063254990006325439000619092001       Y V4215  20232332023233                                                                                        0
4600701505000000900061909290006190929000619092001       Y V4230  20232332023233                                                                                        0
4600701505000000900061909390006190929000619092001       Y V4230  20232332023233                                                                                        0
4600701505000000900061910190006190929000619092001       Y V4230  20232332023233                                                                                        0
4600701505000000900061938090006193869000619092001       Y V4230  20232332023233                                                                                        0
4600701505000000900061938190006193869000619092001       Y V4230  20232332023233                                                                                        0
4600701505000000900061938290006193869000619092001       Y V4230  20232332023233                                                                                        0
4600701505000000900061938690006190929000619092001       Y V4230  20232332023233                                                                                        0
4600701505000000900063254390006190929000619092001       Y V4230  20232332023233                                                                                        0
4600701505000000900063254490006325439000619092001       Y V4230  20232332023233                                                                                        0
4600701505000000900063254790006325439000619092001       Y V4230  20232332023233                                                                                        0
910070150523233000000000000000000000000000000002000000000088000000        000000088000000000000000000000000000000000000000000000000000000000000000000000000000000       
4600701505000000900063254990006325439000619092001       Y V4230  20232332023233                                                                                        0
46007015050000009000619092          001840 Y              V5300  20232332023233                                                                                        0
46007015050000009000619093          001840 Y              V5300  20232332023233                                                                                        0
46007015050000009000619101          001840 Y              V5300  20232332023233                                                                                        0
46007015050000009000619380          001840 Y              V5300  20232332023233                                                                                        0
46007015050000009000619381          001840 Y              V5300  20232332023233                                                                                        0
46007015050000009000619382          001840 Y              V5300  20232332023233                                                                                        0
46007015050000009000619386          001840 Y              V5300  20232332023233                                                                                        0
46007015050000009000632543          001840 Y              V5300  20232332023233                                                                                        0
46007015050000009000632544          001840 Y              V5300  20232332023233                                                                                        0
46007015050000009000632547          001840 Y              V5300  20232332023233                                                                                        0
46007015050000009000632549          001840 Y              V5300  20232332023233                                                                                        0
4600701505000000900061938090006193869000619092001       Y V4640  20232332023233                                                                                        0
4600701505000000900061938690006190929000619092001       Y V4640  20232332023233                                                                                        0
4600701505000000900063254390006190929000619092001       Y V4640  20232332023233                                                                                        0
4600701505000000900063254490006325439000619092001       Y V4640  20232332023233                                                                                        0
4600701505000000900063254790006325439000619092001       Y V4640  20232332023233                                                                                        0
4600701505000000900063254990006325439000619092001       Y V4640  20232332023233                                                                                        0
46007015050000009000619092          0000000000000001 Y    V6900  20232332023233         000000000000000000000000000000                                                 0
46007015050000009000619092                       001 Y    V6900S 20232332023233                                                                                        0
46007015050000009000619093          0000000000000001 Y    V6900  20232332023233         000000000000000000000000000000                                                 0
46007015050000009000619093                       001 Y    V6900S 20232332023233                                                                                        0
46007015050000009000619101          0000000000000001 Y    V6900  20232332023233         000000000000000000000000000000                                                 0
46007015050000009000619101                       001 Y    V6900S 20232332023233                                                                                        0
46007015050000009000619380          0000000000000001 Y    V6900  20232332023233         000000000000000000000000000000                                                 0
46007015050000009000619380                       001 Y    V6900S 20232332023233                                                                                        0
46007015050000009000619381          0000000000000001 Y    V6900  20232332023233         000000000000000000000000000000                                                 0
46007015050000009000619381                       001 Y    V6900S 20232332023233                                                                                        0
46007015050000009000619382          0000000000000001 Y    V6900  20232332023233         000000000000000000000000000000                                                 0
46007015050000009000619382                       001 Y    V6900S 20232332023233                                                                                        0
46007015050000009000619386          0000000000000001 Y    V6900  20232332023233         000000000000000000000000000000                                                 0
46007015050000009000619386                       001 Y    V6900S 20232332023233                                                                                        0
46007015050000009000632543          0000000000000001 Y    V6900  20232332023233         000000000000000000000000000000                                                 0
46007015050000009000632543                       001 Y    V6900S 20232332023233                                                                                        0
46007015050000009000632544          0000000000000001 Y    V6900  20232332023233         000000000000000000000000000000                                                 0
46007015050000009000632544                       001 Y    V6900S 20232332023233                                                                                        0
46007015050000009000632547          0000000000000001 Y    V6900  20232332023233         000000000000000000000000000000                                                 0
46007015050000009000632547                       001 Y    V6900S 20232332023233                                                                                        0
46007015050000009000632549          0000000000000001 Y    V6900  20232332023233         000000000000000000000000000000                                                 0
46007015050000009000632549                       001 Y    V6900S 20232332023233                                                                                        0
4600701505000000100076296410000477899000619092001         VB950  20232332023233              110  115  120  130  135  140  210  215  230  300                          0
4600701505000000100076297010000477899000619092001         VB950  20232332023233              110  115  120  130  135  140  210  215  230  300                          0
4600701505000000100076298210000477899000619092001         VB950  20232332023233              110  115  120  130  135  140  210  215  230  300                          0
4600701505000000100076299410000477899000619092001         VB950  20232332023233              110  115  120  130  135  140  210  215  230  300                          0
4600701505000000100076301210000477899000619092001         VB950  20232332023233              110  115  120  130  135  140  210  215  230  300                          0
4600701505000000100076301810000477899000619092001         VB950  20232332023233              110  115  120  130  135  140  210  215  230  300                          0
4600701505000000100076302410000477899000619092001         VB950  20232332023233              110  115  120  130  135  140  210  215  230  300                          0
4600701505000000100076303010000477899000619092001         VB950  20232332023233              110  115  120  130  135  140  210  215  230  300                          0
4600701505000000100076303610000477899000619092001         VB950  20232332023233              110  115  120  130  135  140  210  215  230  300                          0
910070150523233000000000000000000000000000000003000000000050000000        000000050000000000000000000000000000000000000000000000000000000000000000000000000000000       
46007015050000009000619094036202323412023215              V1100W 9000619094CARDX          Y                                     N          N    764000                 0
46007015050000009000619094036202323422023215              V1100W 1000047793SUM-490733 (N) N                                     N          N    764000                 0
46007015050000009000619094036202323432023215              V1100W 0013490733SCBS 490733 (N)NB000000000000490733                  Y3200320000Y9999764000000              0
46007015050000009000619094036202323432023215              V1100W 0013490733SCBS 490733 (N)NB000000000000490733                  Y7015050000Y9999764000000              0
46007015050000009000619094036202323432023215              V1100W 1000762520BIN 49073304   NB000000000000706808                  Y3200320000Y9999764000000              0
46007015050000009000619094036202323432023215              V1100W 1000762520BIN 49073304   NB000000000000706808                  Y7015050000Y9999764000000              0
46007015050000009000619094036202323432023215              V1100W 1000762526BIN 49073307   NB000000000000706809                  Y3200320000Y9999764000000              0
46007015050000009000619094036202323432023215              V1100W 1000762526BIN 49073307   NB000000000000706809                  Y7015050000Y9999764000000              0
46007015050000009000619094036202323432023215              V1100W 1000762532BIN 49073308   NB000000000000706810                  Y3200320000Y9999764000000              0
46007015050000009000619094036202323432023215              V1100W 1000762532BIN 49073308   NB000000000000706810                  Y7015050000Y9999764000000              0
46007015050000009000619094036202323432023215              V1100W 1000762538BIN 49073312   NB000000000000706811                  Y3200320000Y9999764000000              0
46007015050000009000619094036202323432023215              V1100W 1000762538BIN 49073312   NB000000000000706811                  Y7015050000Y9999764000000              0
46007015050000009000619094036202323432023215              V1100W 1000762544BIN 49073317   NB000000000000706812                  Y3200320000Y9999764000000              0
46007015050000009000619094036202323432023215              V1100W 1000762544BIN 49073317   NB000000000000706812                  Y7015050000Y9999764000000              0
46007015050000009000619094036202323432023215              V1100W 1000762550BIN 49073318   NB000000000000706813                  Y3200320000Y9999764000000              0
46007015050000009000619094036202323432023215              V1100W 1000762550BIN 49073318   NB000000000000706813                  Y7015050000Y9999764000000              0
46007015050000009000619094036202323432023215              V1100W 1000762556BIN 49073319   NB000000000000706814                  Y3200320000Y9999764000000              0
46007015050000009000619094036202323432023215              V1100W 1000762556BIN 49073319   NB000000000000706814                  Y7015050000Y9999764000000              0
46007015050000009000619094036202323432023215              V1100W 1000762562BIN 49073320   NB000000000000706815                  Y3200320000Y9999764000000              0
46007015050000009000619094036202323432023215              V1100W 1000762562BIN 49073320   NB000000000000706815                  Y7015050000Y9999764000000              0
46007015050000009000619094036202323432023215              V1100W 1000762568BIN 49073390   NB000000000000706816                  Y3200320000Y9999764000000              0
46007015050000009000619094036202323432023215              V1100W 1000762568BIN 49073390   NB000000000000706816                  Y7015050000Y9999764000000              0
46007015050000009000619094036202323422023215              V1100W 1000047794SUM-490734 (N) N                                     N          N    764000                 0
46007015050000009000619094036202323432023215              V1100W 0013490734SCBS49073400(N)NB000000000000490734                  Y3200320000Y9999764000000              0
46007015050000009000619094036202323432023215              V1100W 0013490734SCBS49073400(N)NB000000000000490734                  Y4548520000Y9999764000000              0
46007015050000009000619094036202323432023215              V1100W 1000762965BIN 49073402   NB000000000000706817                  Y3200320000Y9999764000000              0
46007015050000009000619094036202323432023215              V1100W 1000762965BIN 49073402   NB000000000000706817                  Y7015050000Y9999764000000              0
46007015050000009000619094036202323432023215              V1100W 1000762971BIN 49073403   NB000000000000706818                  Y3200320000Y9999764000000              0
46007015050000009000619094036202323432023215              V1100W 1000762971BIN 49073403   NB000000000000706818                  Y7015050000Y9999764000000              0
46007015050000009000619094036202323432023215              V1100W 1000762983BIN 49073405   NB000000000000706819                  Y3200320000Y9999764000000              0
46007015050000009000619094036202323432023215              V1100W 1000762983BIN 49073405   NB000000000000706819                  Y7015050000Y9999764000000              0
46007015050000009000619094036202323432023215              V1100W 1000762995BIN 49073407   NB000000000000706820                  Y3200320000Y9999764000000              0
46007015050000009000619094036202323432023215              V1100W 1000762995BIN 49073407   NB000000000000706820                  Y7015050000Y9999764000000              0
46007015050000009000619094036202323432023215              V1100W 1000763013BIN 49073410   NB000000000000706821                  Y3200320000Y9999764000000              0
46007015050000009000619094036202323432023215              V1100W 1000763013BIN 49073410   NB000000000000706821                  Y7015050000Y9999764000000              0
46007015050000009000619094036202323432023215              V1100W 1000763019BIN 49073411   NB000000000000706822                  Y3200320000Y9999764000000              0
46007015050000009000619094036202323432023215              V1100W 1000763019BIN 49073411   NB000000000000706822                  Y7015050000Y9999764000000              0
46007015050000009000619094036202323432023215              V1100W 1000763025BIN 49073412   NB000000000000706873                  Y3200320000Y9999764000000              0
46007015050000009000619094036202323432023215              V1100W 1000763025BIN 49073412   NB000000000000706873                  Y7015050000Y9999764000000              0
46007015050000009000619094036202323432023215              V1100W 1000763031BIN 49073413   NB000000000000706874                  Y3200320000Y9999764000000              0
46007015050000009000619094036202323432023215              V1100W 1000763031BIN 49073413   NB000000000000706874                  Y7015050000Y9999764000000              0
46007015050000009000619094036202323432023215              V1100W 1000763037BIN 49073468   NB000000000000706875                  Y3200320000Y9999764000000              0
46007015050000009000619094036202323432023215              V1100W 1000763037BIN 49073468   NB000000000000706875                  Y7015050000Y9999764000000              0
46007015050000009000619094036202323432023215              V1100W 1000763043BIN 49073490   NB000000000000706876                  Y3200320000Y9999764000000              0
46007015050000009000619094036202323432023215              V1100W 1000763043BIN 49073490   NB000000000000706876                  Y7015050000Y9999764000000              0
46007015050000009000619094036202323422023215              V1100W 1000751994SUM-477376 (N) N                                     N          N    764000                 0
46007015050000009000619094036202323432023215              V1100W 1000152285SIAM COMMERCIALNB000000000000477376                  Y3200320000Y9999764000000              0
46007015050000009000619094036202323432023215              V1100W 1000152285SIAM COMMERCIALNB000000000000477376                  Y7015050000Y9999764000000              0
46007015050000009000619094036202323432023215              V1100W 1000761796BIN 47737601   NB000000000000706802                  Y3200320000Y9999764000000              0
46007015050000009000619094036202323432023215              V1100W 1000761796BIN 47737601   NB000000000000706802                  Y7015050000Y9999764000000              0
46007015050000009000619094036202323432023215              V1100W 1000761802BIN 47737606   NB000000000000706803                  Y3200320000Y9999764000000              0
46007015050000009000619094036202323432023215              V1100W 1000761802BIN 47737606   NB000000000000706803                  Y7015050000Y9999764000000              0
46007015050000009000619094036202323432023215              V1100W 1000761808BIN 47737609   NB000000000000706804                  Y3200320000Y9999764000000              0
46007015050000009000619094036202323432023215              V1100W 1000761808BIN 47737609   NB000000000000706804                  Y7015050000Y9999764000000              0
46007015050000009000619094036202323432023215              V1100W 1000761814BIN 47737690   NB000000000000706805                  Y3200320000Y9999764000000              0
46007015050000009000619094036202323432023215              V1100W 1000761814BIN 47737690   NB000000000000706805                  Y7015050000Y9999764000000              0
