9070150522349      2234900400TEST 0000      000000000000000000CRDX2022      001                                                                                         
46007015050000009000619092001202234912022209              V1100R 9000619092CARDX          Y                                     N          N    840000                 0
46007015050000009000619092001202234922022209              V1100R 1000047788SUM-490733 (I) N                                     N          N    840000                 0
46007015050000009000619092001202234932022209              V1100R 0006490733SCBS 490733 (I)NB000000000000490733                  Y3200320000Y9999840000000              0
46007015050000009000619092001202234932022209              V1100R 0006490733SCBS 490733 (I)NB000000000000490733                  Y4548520000Y9999840000000              0
46007015050000009000619092001202234932022209              V1100R 1000032976SCBS490733-2(I)NB000000000000490733                  Y4367610004Y0002840000000              0
46007015050000009000619092001202234932022209              V1100R 1000032977BOAS490733-2(I)NB000000000000490733                  Y7621970002Y0002840000000              0
46007015050000009000619092001202234932022209              V1100R 1000032978SCBS490733-4(I)NB000000000000490733                  Y4367610004Y0004840000000              0
46007015050000009000619092001202234932022209              V1100R 1000032979BOAS490733-4(I)NB000000000000490733                  Y7621970004Y0004840000000              0
46007015050000009000619092001202234922022209              V1100R 1000047789SUM-490734 (I) N                                     N          N    840000                 0
46007015050000009000619092001202234932022209              V1100R 0006490734SCBS 490734 (I)NB000000000000490734                  Y3200320000Y9999840000000              0
46007015050000009000619092001202234932022209              V1100R 0006490734SCBS 490734 (I)NB000000000000490734                  Y4548520000Y9999840000000              0
46007015050000009000619092001202234932022209              V1100R 1000032980SCBS490734-2(I)NB000000000000490734                  Y4367610004Y0002840000000              0
46007015050000009000619092001202234932022209              V1100R 1000032981BOAS490734-2(I)NB000000000000490734                  Y7621970002Y0002840000000              0
46007015050000009000619092001202234932022209              V1100R 1000032982SCBS490734-4(I)NB000000000000490734                  Y4367610004Y0004840000000              0
46007015050000009000619092001202234932022209              V1100R 1000032983BOAS490734-4(I)NB000000000000490734                  Y7621970004Y0004840000000              0
46007015050000009000619092001202234922022209              V1100R 1000751992SUM-477376 (I) N                                     N          N    840000                 0
46007015050000009000619092001202234932022209              V1100R 1000152284SIAM COMMERCIALNB000000000000477376                  Y3200320000Y9999840000000              0
46007015050000009000619092001202234932022209              V1100R 1000152284SIAM COMMERCIALNB000000000000477376                  Y4548520000Y9999840000000              0
46007015050000009000619092001202234932022209              V1100R 1000157762THE SIAM COMMERNB000000000000477376                  Y4367610004Y0002840000000              0
46007015050000009000619092001202234932022209              V1100R 1000157763THE SIAM COMMERNB000000000000477376                  Y7621970002Y0002840000000              0
46007015050000009000619092001202234932022209              V1100R 1000157764THE SIAM COMMERNB000000000000477376                  Y4367610004Y0004840000000              0
46007015050000009000619092001202234932022209              V1100R 1000157765THE SIAM COMMERNB000000000000477376                  Y7621970004Y0004840000000              0
46007015050000009000619092001202234922022209              V1100R 900061909347285800 (I)   NB000000000000701505                  Y3200320000Y9999840000000              0
46007015050000009000619092001202234922022209              V1100R 900061909347285800 (I)   NB000000000000701505                  Y7015050000Y9999840000000              0
46007015050000009000619092001202234922022209              V1100R 900061910148637200 (I)   NB000000000000701749                  Y3200320000Y9999840000000              0
46007015050000009000619092001202234922022209              V1100R 900061910148637200 (I)   NB000000000000701749                  Y7015050000Y9999840000000              0
46007015050000009000619092001202234922022209              V1100R 9000619386MVISA ORIG SUM N                                     N          N    840000                 0
46007015050000009000619092001202234932022209              V1100R 9000619380425317 INT     NB000000000000425317                  Y7015050000Y9999840000000              0
46007015050000009000619092001202234932022209              V1100R 9000619381425317MVISA INTNB000000000000425317                  Y4253170002Y0002840000000              0
46007015050000009000619092001202234932022209              V1100R 9000619382425317VROL INT NB000000000000425317                  Y7018970002Y0002840000000              0
46007015050000009000619092001202234922022209              V1100R 9000632543410517 SUM     N                                     N          N    840000                 0
46007015050000009000619092001202234932022209              V1100R 9000632544BIN 410517     NB000000000000410517                  Y7015050000Y9999840000000              0
46007015050000009000619092001202234932022209              V1100R 9000632547BIN 4105170002 NB000000000000410517                  Y4105170002Y0002840000000              0
46007015050000009000619092001202234932022209              V1100R 9000632549VROL 410517    NB000000000000410517                  Y7018970002Y0002840000000              0
46007015050000009000619092001202234912022209              V1100W 9000619092CARDX          Y                                     N          N    840000                 0
46007015050000009000619092001202234922022209              V1100W 1000047788SUM-490733 (I) N                                     N          N    840000                 0
46007015050000009000619092001202234932022209              V1100W 0006490733SCBS 490733 (I)NB000000000000490733                  Y3200320000Y9999840000000              0
46007015050000009000619092001202234932022209              V1100W 0006490733SCBS 490733 (I)NB000000000000490733                  Y4548520000Y9999840000000              0
46007015050000009000619092001202234932022209              V1100W 1000032976SCBS490733-2(I)NB000000000000490733                  Y4367610004Y0002840000000              0
46007015050000009000619092001202234932022209              V1100W 1000032977BOAS490733-2(I)NB000000000000490733                  Y7621970002Y0002840000000              0
46007015050000009000619092001202234932022209              V1100W 1000032978SCBS490733-4(I)NB000000000000490733                  Y4367610004Y0004840000000              0
46007015050000009000619092001202234932022209              V1100W 1000032979BOAS490733-4(I)NB000000000000490733                  Y7621970004Y0004840000000              0
46007015050000009000619092001202234922022209              V1100W 1000047789SUM-490734 (I) N                                     N          N    840000                 0
46007015050000009000619092001202234932022209              V1100W 0006490734SCBS 490734 (I)NB000000000000490734                  Y3200320000Y9999840000000              0
46007015050000009000619092001202234932022209              V1100W 0006490734SCBS 490734 (I)NB000000000000490734                  Y4548520000Y9999840000000              0
46007015050000009000619092001202234932022209              V1100W 1000032980SCBS490734-2(I)NB000000000000490734                  Y4367610004Y0002840000000              0
46007015050000009000619092001202234932022209              V1100W 1000032981BOAS490734-2(I)NB000000000000490734                  Y7621970002Y0002840000000              0
46007015050000009000619092001202234932022209              V1100W 1000032982SCBS490734-4(I)NB000000000000490734                  Y4367610004Y0004840000000              0
46007015050000009000619092001202234932022209              V1100W 1000032983BOAS490734-4(I)NB000000000000490734                  Y7621970004Y0004840000000              0
46007015050000009000619092001202234922022209              V1100W 1000751992SUM-477376 (I) N                                     N          N    840000                 0
46007015050000009000619092001202234932022209              V1100W 1000152284SIAM COMMERCIALNB000000000000477376                  Y3200320000Y9999840000000              0
46007015050000009000619092001202234932022209              V1100W 1000152284SIAM COMMERCIALNB000000000000477376                  Y4548520000Y9999840000000              0
46007015050000009000619092001202234932022209              V1100W 1000157762THE SIAM COMMERNB000000000000477376                  Y4367610004Y0002840000000              0
46007015050000009000619092001202234932022209              V1100W 1000157763THE SIAM COMMERNB000000000000477376                  Y7621970002Y0002840000000              0
46007015050000009000619092001202234932022209              V1100W 1000157764THE SIAM COMMERNB000000000000477376                  Y4367610004Y0004840000000              0
46007015050000009000619092001202234932022209              V1100W 1000157765THE SIAM COMMERNB000000000000477376                  Y7621970004Y0004840000000              0
46007015050000009000619092001202234922022209              V1100W 900061909347285800 (I)   NB000000000000701505                  Y3200320000Y9999840000000              0
46007015050000009000619092001202234922022209              V1100W 900061909347285800 (I)   NB000000000000701505                  Y7015050000Y9999840000000              0
46007015050000009000619092001202234922022209              V1100W 900061910148637200 (I)   NB000000000000701749                  Y3200320000Y9999840000000              0
46007015050000009000619092001202234922022209              V1100W 900061910148637200 (I)   NB000000000000701749                  Y7015050000Y9999840000000              0
46007015050000009000619092001202234922022209              V1100W 9000619386MVISA ORIG SUM N                                     N          N    840000                 0
46007015050000009000619092001202234932022209              V1100W 9000619380425317 INT     NB000000000000425317                  Y7015050000Y9999840000000              0
46007015050000009000619092001202234932022209              V1100W 9000619381425317MVISA INTNB000000000000425317                  Y4253170002Y0002840000000              0
46007015050000009000619092001202234932022209              V1100W 9000619382425317VROL INT NB000000000000425317                  Y7018970002Y0002840000000              0
46007015050000009000619092001202234922022209              V1100W 9000632543410517 SUM     N                                     N          N    840000                 0
46007015050000009000619092001202234932022209              V1100W 9000632544BIN 410517     NB000000000000410517                  Y7015050000Y9999840000000              0
46007015050000009000619092001202234932022209              V1100W 9000632547BIN 4105170002 NB000000000000410517                  Y4105170002Y0002840000000              0
46007015050000009000619092001202234932022209              V1100W 9000632549VROL 410517    NB000000000000410517                  Y7018970002Y0002840000000              0
46007015050000009000619093001202234912022009              V1100W 900061909347285800 (I)   NB000000000000701505                  Y3200320000Y9999840000000              0
46007015050000009000619093001202234912022009              V1100W 900061909347285800 (I)   NB000000000000701505                  Y7015050000Y9999840000000              0
46007015050000009000619101001202234912022009              V1100W 900061910148637200 (I)   NB000000000000701749                  Y3200320000Y9999840000000              0
46007015050000009000619101001202234912022009              V1100W 900061910148637200 (I)   NB000000000000701749                  Y7015050000Y9999840000000              0
46007015050000009000619380001202234912022009              V1100W 9000619380425317 INT     NB000000000000425317                  Y7015050000Y9999840000000              0
46007015050000009000619381001202234912022009              V1100W 9000619381425317MVISA INTNB000000000000425317                  Y4253170002Y0002840000000              0
46007015050000009000619382001202234912022009              V1100W 9000619382425317VROL INT NB000000000000425317                  Y7018970002Y0002840000000              0
46007015050000009000619386001202234912022009              V1100W 9000619386MVISA ORIG SUM N                                     N          N    840000                 0
46007015050000009000619386001202234922022009              V1100W 9000619380425317 INT     NB000000000000425317                  Y7015050000Y9999840000000              0
46007015050000009000619386001202234922022009              V1100W 9000619381425317MVISA INTNB000000000000425317                  Y4253170002Y0002840000000              0
46007015050000009000619386001202234922022009              V1100W 9000619382425317VROL INT NB000000000000425317                  Y7018970002Y0002840000000              0
46007015050000009000632543001202234912022100              V1100W 9000632543410517 SUM     N                                     N          N    840000                 0
46007015050000009000632543001202234922022100              V1100W 9000632544BIN 410517     NB000000000000410517                  Y7015050000Y9999840000000              0
46007015050000009000632543001202234922022100              V1100W 9000632547BIN 4105170002 NB000000000000410517                  Y4105170002Y0002840000000              0
46007015050000009000632543001202234922022100              V1100W 9000632549VROL 410517    NB000000000000410517                  Y7018970002Y0002840000000              0
46007015050000009000632544001202234912022100              V1100W 9000632544BIN 410517     NB000000000000410517                  Y7015050000Y9999840000000              0
46007015050000009000632547001202234912022100              V1100W 9000632547BIN 4105170002 NB000000000000410517                  Y4105170002Y0002840000000              0
46007015050000009000632549001202234912022100              V1100W 9000632549VROL 410517    NB000000000000410517                  Y7018970002Y0002840000000              0
4600701505000000900061909290006190929000619092001840Y     V2110  20223492022349                                                                                        0
4600701505000000900061909390006190929000619092001840Y     V2110  20223492022349                                                                                        0
4600701505000000900061910190006190929000619092001840Y     V2110  20223492022349                                                                                        0
4600701505000000900061938090006193869000619092001840Y     V2110  20223492022349                                                                                        0
4600701505000000900061938190006193869000619092001840Y     V2110  20223492022349                                                                                        0
4600701505000000900061938290006193869000619092001840Y     V2110  20223492022349                                                                                        0
4600701505000000900061938690006190929000619092001840Y     V2110  20223492022349                                                                                        0
4600701505000000900063254390006190929000619092001840Y     V2110  20223492022349                                                                                        0
4600701505000000900063254490006325439000619092001840Y     V2110  20223492022349                                                                                        0
4600701505000000900063254790006325439000619092001840Y     V2110  20223492022349                                                                                        0
4600701505000000900063254990006325439000619092001840Y     V2110  20223492022349                                                                                        0
4600701505000000900061909290006190929000619092001840  Y   V3115  20223492022349                                                                                        0
4600701505000000900061909390006190929000619092001840  Y   V3115  20223492022349                                                                                        0
4600701505000000900061910190006190929000619092001840  Y   V3115  20223492022349                                                                                        0
4600701505000000900061938090006193869000619092001840  Y   V3115  20223492022349                                                                                        0
4600701505000000900061938190006193869000619092001840  Y   V3115  20223492022349                                                                                        0
4600701505000000900061938290006193869000619092001840  Y   V3115  20223492022349                                                                                        0
4600701505000000900061938690006190929000619092001840  Y   V3115  20223492022349                                                                                        0
4600701505000000900063254390006190929000619092001840  Y   V3115  20223492022349                                                                                        0
4600701505000000900063254490006325439000619092001840  Y   V3115  20223492022349                                                                                        0
4600701505000000900063254790006325439000619092001840  Y   V3115  20223492022349                                                                                        0
4600701505000000900063254990006325439000619092001840  Y   V3115  20223492022349                                                                                        0
4600701505000000900061938090006193869000619092001840  Y   V3116  20223492022349                                                                                        0
4600701505000000900061938190006193869000619092001840  Y   V3116  20223492022349                                                                                        0
4600701505000000900061938290006193869000619092001840  Y   V3116  20223492022349                                                                                        0
4600701505000000900061938690006190929000619092001840  Y   V3116  20223492022349                                                                                        0
4600701505000000900063254390006190929000619092001840  Y   V3116  20223492022349                                                                                        0
4600701505000000900063254490006325439000619092001840  Y   V3116  20223492022349                                                                                        0
4600701505000000900063254790006325439000619092001840  Y   V3116  20223492022349                                                                                        0
4600701505000000900063254990006325439000619092001840  Y   V3116  20223492022349                                                                                        0
4600701505000000900061909290006190929000619092001       Y V4120  20223492022349                                                                                        0
4600701505000000900061909390006190929000619092001       Y V4120  20223492022349                                                                                        0
4600701505000000900061910190006190929000619092001       Y V4120  20223492022349                                                                                        0
4600701505000000900061938090006193869000619092001       Y V4120  20223492022349                                                                                        0
4600701505000000900061938190006193869000619092001       Y V4120  20223492022349                                                                                        0
4600701505000000900061938290006193869000619092001       Y V4120  20223492022349                                                                                        0
4600701505000000900061938690006190929000619092001       Y V4120  20223492022349                                                                                        0
4600701505000000900063254390006190929000619092001       Y V4120  20223492022349                                                                                        0
4600701505000000900063254490006325439000619092001       Y V4120  20223492022349                                                                                        0
4600701505000000900063254790006325439000619092001       Y V4120  20223492022349                                                                                        0
4600701505000000900063254990006325439000619092001       Y V4120  20223492022349                                                                                        0
4600701505000000900061909290006190929000619092001       Y V4130  20223492022349                                                                                        0
4600701505000000900061909390006190929000619092001       Y V4130  20223492022349                                                                                        0
4600701505000000900061910190006190929000619092001       Y V4130  20223492022349                                                                                        0
4600701505000000900061938090006193869000619092001       Y V4130  20223492022349                                                                                        0
4600701505000000900061938190006193869000619092001       Y V4130  20223492022349                                                                                        0
4600701505000000900061938290006193869000619092001       Y V4130  20223492022349                                                                                        0
4600701505000000900061938690006190929000619092001       Y V4130  20223492022349                                                                                        0
4600701505000000900063254390006190929000619092001       Y V4130  20223492022349                                                                                        0
4600701505000000900063254490006325439000619092001       Y V4130  20223492022349                                                                                        0
4600701505000000900063254790006325439000619092001       Y V4130  20223492022349                                                                                        0
4600701505000000900063254990006325439000619092001       Y V4130  20223492022349                                                                                        0
4600701505000000900061909290006190929000619092001      0Y V4135  2022349202234920223352022349                                                                          0
4600701505000000900061938090006193869000619092001      0Y V4135  2022349202234920223352022349                                                                          0
4600701505000000900061938190006193869000619092001      0Y V4135  2022349202234920223352022349                                                                          0
4600701505000000900061938290006193869000619092001      0Y V4135  2022349202234920223352022349                                                                          0
4600701505000000900061938690006190929000619092001      0Y V4135  2022349202234920223352022349                                                                          0
4600701505000000900063254390006190929000619092001      0Y V4135  2022349202234920223352022349                                                                          0
4600701505000000900063254490006325439000619092001      0Y V4135  2022349202234920223352022349                                                                          0
4600701505000000900063254790006325439000619092001      0Y V4135  2022349202234920223352022349                                                                          0
4600701505000000900063254990006325439000619092001      0Y V4135  2022349202234920223352022349                                                                          0
4600701505000000900061909290006190929000619092001       Y V4140  20223492022349                                                                                        0
4600701505000000900061909390006190929000619092001       Y V4140  20223492022349                                                                                        0
4600701505000000900061910190006190929000619092001       Y V4140  20223492022349                                                                                        0
4600701505000000900061938090006193869000619092001       Y V4140  20223492022349                                                                                        0
910070150522349000000000000000000000000000000001000000000152000000        000000152000000000000000000000000000000000000000000000000000000000000000000000000000000       
4600701505000000900061938190006193869000619092001       Y V4140  20223492022349                                                                                        0
4600701505000000900061938290006193869000619092001       Y V4140  20223492022349                                                                                        0
4600701505000000900061938690006190929000619092001       Y V4140  20223492022349                                                                                        0
4600701505000000900063254390006190929000619092001       Y V4140  20223492022349                                                                                        0
4600701505000000900063254490006325439000619092001       Y V4140  20223492022349                                                                                        0
4600701505000000900063254790006325439000619092001       Y V4140  20223492022349                                                                                        0
4600701505000000900063254990006325439000619092001       Y V4140  20223492022349                                                                                        0
4600701505000000900061909290006190929000619092001       Y V4210  20223492022349                                                                                        0
4600701505000000900061909390006190929000619092001       Y V4210  20223492022349                                                                                        0
4600701505000000900061910190006190929000619092001       Y V4210  20223492022349                                                                                        0
4600701505000000900061938090006193869000619092001       Y V4210  20223492022349                                                                                        0
4600701505000000900061938190006193869000619092001       Y V4210  20223492022349                                                                                        0
4600701505000000900061938290006193869000619092001       Y V4210  20223492022349                                                                                        0
4600701505000000900061938690006190929000619092001       Y V4210  20223492022349                                                                                        0
4600701505000000900063254390006190929000619092001       Y V4210  20223492022349                                                                                        0
4600701505000000900063254490006325439000619092001       Y V4210  20223492022349                                                                                        0
4600701505000000900063254790006325439000619092001       Y V4210  20223492022349                                                                                        0
4600701505000000900063254990006325439000619092001       Y V4210  20223492022349                                                                                        0
4600701505000000900061909290006190929000619092001       Y V4215  20223492022349                                                                                        0
4600701505000000900061909390006190929000619092001       Y V4215  20223492022349                                                                                        0
4600701505000000900061910190006190929000619092001       Y V4215  20223492022349                                                                                        0
4600701505000000900061938090006193869000619092001       Y V4215  20223492022349                                                                                        0
4600701505000000900061938190006193869000619092001       Y V4215  20223492022349                                                                                        0
4600701505000000900061938290006193869000619092001       Y V4215  20223492022349                                                                                        0
4600701505000000900061938690006190929000619092001       Y V4215  20223492022349                                                                                        0
4600701505000000900063254390006190929000619092001       Y V4215  20223492022349                                                                                        0
4600701505000000900063254490006325439000619092001       Y V4215  20223492022349                                                                                        0
4600701505000000900063254790006325439000619092001       Y V4215  20223492022349                                                                                        0
4600701505000000900063254990006325439000619092001       Y V4215  20223492022349                                                                                        0
4600701505000000900061909290006190929000619092001       Y V4230  20223492022349                                                                                        0
4600701505000000900061909390006190929000619092001       Y V4230  20223492022349                                                                                        0
4600701505000000900061910190006190929000619092001       Y V4230  20223492022349                                                                                        0
4600701505000000900061938090006193869000619092001       Y V4230  20223492022349                                                                                        0
4600701505000000900061938190006193869000619092001       Y V4230  20223492022349                                                                                        0
4600701505000000900061938290006193869000619092001       Y V4230  20223492022349                                                                                        0
4600701505000000900061938690006190929000619092001       Y V4230  20223492022349                                                                                        0
4600701505000000900063254390006190929000619092001       Y V4230  20223492022349                                                                                        0
4600701505000000900063254490006325439000619092001       Y V4230  20223492022349                                                                                        0
4600701505000000900063254790006325439000619092001       Y V4230  20223492022349                                                                                        0
4600701505000000900063254990006325439000619092001       Y V4230  20223492022349                                                                                        0
46007015050000009000619092          001840 Y              V5300  20223492022349                                                                                        0
46007015050000009000619093          001840 Y              V5300  20223492022349                                                                                        0
46007015050000009000619101          001840 Y              V5300  20223492022349                                                                                        0
46007015050000009000619380          001840 Y              V5300  20223492022349                                                                                        0
46007015050000009000619381          001840 Y              V5300  20223492022349                                                                                        0
46007015050000009000619382          001840 Y              V5300  20223492022349                                                                                        0
46007015050000009000619386          001840 Y              V5300  20223492022349                                                                                        0
46007015050000009000632543          001840 Y              V5300  20223492022349                                                                                        0
46007015050000009000632544          001840 Y              V5300  20223492022349                                                                                        0
46007015050000009000632547          001840 Y              V5300  20223492022349                                                                                        0
46007015050000009000632549          001840 Y              V5300  20223492022349                                                                                        0
4600701505000000900061938090006193869000619092001       Y V4640  20223492022349                                                                                        0
4600701505000000900061938690006190929000619092001       Y V4640  20223492022349                                                                                        0
4600701505000000900063254390006190929000619092001       Y V4640  20223492022349                                                                                        0
4600701505000000900063254490006325439000619092001       Y V4640  20223492022349                                                                                        0
4600701505000000900063254790006325439000619092001       Y V4640  20223492022349                                                                                        0
4600701505000000900063254990006325439000619092001       Y V4640  20223492022349                                                                                        0
46007015050000009000619092          00000000000000011     V6900  20223492022349NN8060N10000000000000001000000000000000  08                                             0
46007015050000009000619092          00000000000000011     V6900  20223492022349NN8060N45000000000000001000000000000000  08                                             0
46007015050000009000619092          00000000000000011     V6900  20223492022349NN8060N84000000000000001000000000000000  08                                             0
46007015050000009000619092          00000000000000011     V6900  20223492022349NN     10000000000000001000000000000000  06                                             0
46007015050000009000619092          00000000000000011     V6900  20223492022349NN     45000000000000001000000000000000  06                                             0
46007015050000009000619092          00000000000000011     V6900  20223492022349NN     84000000000000001000000000000000  06                                             0
46007015050000009000619092          00000000000000011     V6900  20223492022349       90000000000000001000000000000000  06                                             0
46007015050000009000619092                    0000011     V6900S 2022349202234910     10000000000000001                 06                                             0
46007015050000009000619092                    0000011     V6900S 2022349202234910     84000000000000001                 06                                             0
46007015050000009000619092                    0000011     V6900S 2022349202234910     90000000000000001000000000000000  06                                             0
46007015050000009000619092                    000001      V6900S 2022349202234910     10000000000000001                 05                                             0
46007015050000009000619092                    000001      V6900S 2022349202234910     84000000000000001                 05                                             0
46007015050000009000619092                    000001      V6900S 2022349202234910     90000000000000001000000000000000  05                                             0
46007015050000009000619092                       001      V6900S 2022349202234910     10000000000000001                 04                                             0
46007015050000009000619092                       001      V6900S 2022349202234910     84000000000000001                 04                                             0
46007015050000009000619092                       001      V6900S 2022349202234910     90000000000000001                 04                                             0
46007015050000009000619093          0000000000000001 Y    V6900  20223492022349         000000000000000000000000000000                                                 0
46007015050000009000619093                       001 Y    V6900S 20223492022349                                                                                        0
46007015050000009000619101          0000000000000001 Y    V6900  20223492022349         000000000000000000000000000000                                                 0
46007015050000009000619101                       001 Y    V6900S 20223492022349                                                                                        0
46007015050000009000619380          0000000000000001 Y    V6900  20223492022349         000000000000000000000000000000                                                 0
46007015050000009000619380                       001 Y    V6900S 20223492022349                                                                                        0
46007015050000009000619381          00000000000000011     V6900  20223492022349NN8060N10000000000000001000000000000000  08                                             0
46007015050000009000619381          00000000000000011     V6900  20223492022349NN8060N45000000000000001000000000000000  08                                             0
46007015050000009000619381          00000000000000011     V6900  20223492022349NN8060N84000000000000001000000000000000  08                                             0
46007015050000009000619381          00000000000000011     V6900  20223492022349NN     10000000000000001000000000000000  06                                             0
46007015050000009000619381          00000000000000011     V6900  20223492022349NN     45000000000000001000000000000000  06                                             0
46007015050000009000619381          00000000000000011     V6900  20223492022349NN     84000000000000001000000000000000  06                                             0
46007015050000009000619381          00000000000000011     V6900  20223492022349       90000000000000001000000000000000  06                                             0
46007015050000009000619381                    0000011     V6900S 2022349202234910     10000000000000001                 06                                             0
46007015050000009000619381                    0000011     V6900S 2022349202234910     84000000000000001                 06                                             0
46007015050000009000619381                    0000011     V6900S 2022349202234910     90000000000000001000000000000000  06                                             0
46007015050000009000619381                    000001      V6900S 2022349202234910     10000000000000001                 05                                             0
46007015050000009000619381                    000001      V6900S 2022349202234910     84000000000000001                 05                                             0
46007015050000009000619381                    000001      V6900S 2022349202234910     90000000000000001000000000000000  05                                             0
46007015050000009000619381                       001      V6900S 2022349202234910     10000000000000001                 04                                             0
46007015050000009000619381                       001      V6900S 2022349202234910     84000000000000001                 04                                             0
46007015050000009000619381                       001      V6900S 2022349202234910     90000000000000001                 04                                             0
46007015050000009000619382          0000000000000001 Y    V6900  20223492022349         000000000000000000000000000000                                                 0
46007015050000009000619382                       001 Y    V6900S 20223492022349                                                                                        0
46007015050000009000619386          00000000000000011     V6900  20223492022349NN8060N10000000000000001000000000000000  08                                             0
46007015050000009000619386          00000000000000011     V6900  20223492022349NN8060N45000000000000001000000000000000  08                                             0
46007015050000009000619386          00000000000000011     V6900  20223492022349NN8060N84000000000000001000000000000000  08                                             0
46007015050000009000619386          00000000000000011     V6900  20223492022349NN     10000000000000001000000000000000  06                                             0
46007015050000009000619386          00000000000000011     V6900  20223492022349NN     45000000000000001000000000000000  06                                             0
46007015050000009000619386          00000000000000011     V6900  20223492022349NN     84000000000000001000000000000000  06                                             0
46007015050000009000619386          00000000000000011     V6900  20223492022349       90000000000000001000000000000000  06                                             0
46007015050000009000619386                    0000011     V6900S 2022349202234910     10000000000000001                 06                                             0
46007015050000009000619386                    0000011     V6900S 2022349202234910     84000000000000001                 06                                             0
46007015050000009000619386                    0000011     V6900S 2022349202234910     90000000000000001000000000000000  06                                             0
46007015050000009000619386                    000001      V6900S 2022349202234910     10000000000000001                 05                                             0
46007015050000009000619386                    000001      V6900S 2022349202234910     84000000000000001                 05                                             0
46007015050000009000619386                    000001      V6900S 2022349202234910     90000000000000001000000000000000  05                                             0
46007015050000009000619386                       001      V6900S 2022349202234910     10000000000000001                 04                                             0
46007015050000009000619386                       001      V6900S 2022349202234910     84000000000000001                 04                                             0
46007015050000009000619386                       001      V6900S 2022349202234910     90000000000000001                 04                                             0
46007015050000009000632543          0000000000000001 Y    V6900  20223492022349         000000000000000000000000000000                                                 0
46007015050000009000632543                       001 Y    V6900S 20223492022349                                                                                        0
46007015050000009000632544          0000000000000001 Y    V6900  20223492022349         000000000000000000000000000000                                                 0
46007015050000009000632544                       001 Y    V6900S 20223492022349                                                                                        0
46007015050000009000632547          0000000000000001 Y    V6900  20223492022349         000000000000000000000000000000                                                 0
910070150522349000000000000000000000000000000002000000000119000000        000000119000000000000000000000000000000000000000000000000000000000000000000000000000000       
46007015050000009000632547                       001 Y    V6900S 20223492022349                                                                                        0
46007015050000009000632549          0000000000000001 Y    V6900  20223492022349         000000000000000000000000000000                                                 0
46007015050000009000632549                       001 Y    V6900S 20223492022349                                                                                        0
46007015050000009000619094036202234912022209              V1100R 9000619094CARDX          Y                                     N          N    764000                 0
46007015050000009000619094036202234922022209              V1100R 1000047793SUM-490733 (N) N                                     N          N    764000                 0
46007015050000009000619094036202234932022209              V1100R 0013490733SCBS 490733 (N)NB000000000000490733                  Y3200320000Y9999764000000              0
46007015050000009000619094036202234932022209              V1100R 0013490733SCBS 490733 (N)NB000000000000490733                  Y4548520000Y9999764000000              0
46007015050000009000619094036202234922022209              V1100R 1000047794SUM-490734 (N) N                                     N          N    764000                 0
46007015050000009000619094036202234932022209              V1100R 0013490734SCBS 490734 (N)NB000000000000490734                  Y3200320000Y9999764000000              0
46007015050000009000619094036202234932022209              V1100R 0013490734SCBS 490734 (N)NB000000000000490734                  Y4548520000Y9999764000000              0
46007015050000009000619094036202234922022209              V1100R 1000751994SUM-477376 (N) N                                     N          N    764000                 0
46007015050000009000619094036202234932022209              V1100R 1000152285SIAM COMMERCIALNB000000000000477376                  Y3200320000Y9999764000000              0
46007015050000009000619094036202234932022209              V1100R 1000152285SIAM COMMERCIALNB000000000000477376                  Y4548520000Y9999764000000              0
46007015050000009000619094036202234922022209              V1100R 900061909547285800 (N)   NB000000000000701505                  Y3200320000Y9999764000000              0
46007015050000009000619094036202234922022209              V1100R 900061909547285800 (N)   NB000000000000701505                  Y7015050000Y9999764000000              0
46007015050000009000619094036202234922022209              V1100R 900061910348637200 (N)   NB000000000000701749                  Y3200320000Y9999764000000              0
46007015050000009000619094036202234922022209              V1100R 900061910348637200 (N)   NB000000000000701749                  Y7015050000Y9999764000000              0
46007015050000009000619094036202234922022209              V1100R 9000619387MVISA ORIG SUM N                                     N          N    764000                 0
46007015050000009000619094036202234932022209              V1100R 9000619383425317 DOM     NB000000000000425317                  Y7015050000Y9999764000000              0
46007015050000009000619094036202234932022209              V1100R 9000619384425317MVISA DOMNB000000000000425317                  Y4253170002Y0002764000000              0
46007015050000009000619094036202234932022209              V1100R 9000619385425317VROL DOM NB000000000000425317                  Y7018970002Y0002764000000              0
46007015050000009000619094036202234922022209              V1100R 9000632545410517 SUM     N                                     N          N    764000                 0
46007015050000009000619094036202234932022209              V1100R 9000632546BIN 410517     NB000000000000410517                  Y7015050000Y9999764000000              0
46007015050000009000619094036202234932022209              V1100R 9000632548BIN 4105170002 NB000000000000410517                  Y4105170002Y0002764000000              0
46007015050000009000619094036202234932022209              V1100R 9000632550VROL 410517    NB000000000000410517                  Y7018970002Y0002764000000              0
46007015050000009000619094036202234912022209              V1100W 9000619094CARDX          Y                                     N          N    764000                 0
46007015050000009000619094036202234922022209              V1100W 1000047793SUM-490733 (N) N                                     N          N    764000                 0
46007015050000009000619094036202234932022209              V1100W 0013490733SCBS 490733 (N)NB000000000000490733                  Y3200320000Y9999764000000              0
46007015050000009000619094036202234932022209              V1100W 0013490733SCBS 490733 (N)NB000000000000490733                  Y4548520000Y9999764000000              0
46007015050000009000619094036202234922022209              V1100W 1000047794SUM-490734 (N) N                                     N          N    764000                 0
46007015050000009000619094036202234932022209              V1100W 0013490734SCBS 490734 (N)NB000000000000490734                  Y3200320000Y9999764000000              0
46007015050000009000619094036202234932022209              V1100W 0013490734SCBS 490734 (N)NB000000000000490734                  Y4548520000Y9999764000000              0
46007015050000009000619094036202234922022209              V1100W 1000751994SUM-477376 (N) N                                     N          N    764000                 0
46007015050000009000619094036202234932022209              V1100W 1000152285SIAM COMMERCIALNB000000000000477376                  Y3200320000Y9999764000000              0
46007015050000009000619094036202234932022209              V1100W 1000152285SIAM COMMERCIALNB000000000000477376                  Y4548520000Y9999764000000              0
46007015050000009000619094036202234922022209              V1100W 900061909547285800 (N)   NB000000000000701505                  Y3200320000Y9999764000000              0
46007015050000009000619094036202234922022209              V1100W 900061909547285800 (N)   NB000000000000701505                  Y7015050000Y9999764000000              0
46007015050000009000619094036202234922022209              V1100W 900061910348637200 (N)   NB000000000000701749                  Y3200320000Y9999764000000              0
46007015050000009000619094036202234922022209              V1100W 900061910348637200 (N)   NB000000000000701749                  Y7015050000Y9999764000000              0
46007015050000009000619094036202234922022209              V1100W 9000619387MVISA ORIG SUM N                                     N          N    764000                 0
46007015050000009000619094036202234932022209              V1100W 9000619383425317 DOM     NB000000000000425317                  Y7015050000Y9999764000000              0
46007015050000009000619094036202234932022209              V1100W 9000619384425317MVISA DOMNB000000000000425317                  Y4253170002Y0002764000000              0
46007015050000009000619094036202234932022209              V1100W 9000619385425317VROL DOM NB000000000000425317                  Y7018970002Y0002764000000              0
46007015050000009000619094036202234922022209              V1100W 9000632545410517 SUM     N                                     N          N    764000                 0
46007015050000009000619094036202234932022209              V1100W 9000632546BIN 410517     NB000000000000410517                  Y7015050000Y9999764000000              0
46007015050000009000619094036202234932022209              V1100W 9000632548BIN 4105170002 NB000000000000410517                  Y4105170002Y0002764000000              0
46007015050000009000619094036202234932022209              V1100W 9000632550VROL 410517    NB000000000000410517                  Y7018970002Y0002764000000              0
46007015050000009000619095036202234912022009              V1100W 900061909547285800 (N)   NB000000000000701505                  Y3200320000Y9999764000000              0
46007015050000009000619095036202234912022009              V1100W 900061909547285800 (N)   NB000000000000701505                  Y7015050000Y9999764000000              0
46007015050000009000619103036202234912022009              V1100W 900061910348637200 (N)   NB000000000000701749                  Y3200320000Y9999764000000              0
46007015050000009000619103036202234912022009              V1100W 900061910348637200 (N)   NB000000000000701749                  Y7015050000Y9999764000000              0
46007015050000009000619383036202234912022009              V1100W 9000619383425317 DOM     NB000000000000425317                  Y7015050000Y9999764000000              0
46007015050000009000619384036202234912022009              V1100W 9000619384425317MVISA DOMNB000000000000425317                  Y4253170002Y0002764000000              0
46007015050000009000619385036202234912022009              V1100W 9000619385425317VROL DOM NB000000000000425317                  Y7018970002Y0002764000000              0
46007015050000009000619387036202234912022009              V1100W 9000619387MVISA ORIG SUM N                                     N          N    764000                 0
46007015050000009000619387036202234922022009              V1100W 9000619383425317 DOM     NB000000000000425317                  Y7015050000Y9999764000000              0
46007015050000009000619387036202234922022009              V1100W 9000619384425317MVISA DOMNB000000000000425317                  Y4253170002Y0002764000000              0
46007015050000009000619387036202234922022009              V1100W 9000619385425317VROL DOM NB000000000000425317                  Y7018970002Y0002764000000              0
46007015050000009000632545036202234912022100              V1100W 9000632545410517 SUM     N                                     N          N    764000                 0
46007015050000009000632545036202234922022100              V1100W 9000632546BIN 410517     NB000000000000410517                  Y7015050000Y9999764000000              0
46007015050000009000632545036202234922022100              V1100W 9000632548BIN 4105170002 NB000000000000410517                  Y4105170002Y0002764000000              0
46007015050000009000632545036202234922022100              V1100W 9000632550VROL 410517    NB000000000000410517                  Y7018970002Y0002764000000              0
46007015050000009000632546036202234912022100              V1100W 9000632546BIN 410517     NB000000000000410517                  Y7015050000Y9999764000000              0
46007015050000009000632548036202234912022100              V1100W 9000632548BIN 4105170002 NB000000000000410517                  Y4105170002Y0002764000000              0
46007015050000009000632550036202234912022100              V1100W 9000632550VROL 410517    NB000000000000410517                  Y7018970002Y0002764000000              0
46007015050000009000619094          00000000000000362     V6900  20223492022349NN8000N50000000000000001000000000000000  08                                             0
46007015050000009000619094          00000000000000362     V6900  20223492022349NN8000N75000000000000001000000000000000  08                                             0
46007015050000009000619094          00000000000000362     V6900  20223492022349NN8000N84000000000000001000000000000000  08                                             0
46007015050000009000619094          00000000000000362     V6900  20223492022349NN     50000000000000001000000000000000  06                                             0
46007015050000009000619094          00000000000000362     V6900  20223492022349NN     75000000000000001000000000000000  06                                             0
46007015050000009000619094          00000000000000362     V6900  20223492022349NN     84000000000000001000000000000000  06                                             0
46007015050000009000619094          00000000000000362     V6900  20223492022349       90000000000000001000000000000000  06                                             0
46007015050000009000619094                    0000362     V6900S 2022349202234910     50000000000000001                 06                                             0
46007015050000009000619094                    0000362     V6900S 2022349202234910     84000000000000001                 06                                             0
46007015050000009000619094                    0000362     V6900S 2022349202234910     90000000000000001000000000000000  06                                             0
46007015050000009000619094                    000036      V6900S 2022349202234910     50000000000000001                 05                                             0
46007015050000009000619094                    000036      V6900S 2022349202234910     84000000000000001                 05                                             0
46007015050000009000619094                    000036      V6900S 2022349202234910     90000000000000001000000000000000  05                                             0
46007015050000009000619094                       036      V6900S 2022349202234910     50000000000000001                 04                                             0
46007015050000009000619094                       036      V6900S 2022349202234910     84000000000000001                 04                                             0
46007015050000009000619094                       036      V6900S 2022349202234910     90000000000000001                 04                                             0
46007015050000009000619095          00000000000000362     V6900  20223492022349NN8000N50000000000000001000000000000000  08                                             0
46007015050000009000619095          00000000000000362     V6900  20223492022349NN8000N75000000000000001000000000000000  08                                             0
46007015050000009000619095          00000000000000362     V6900  20223492022349NN8000N84000000000000001000000000000000  08                                             0
46007015050000009000619095          00000000000000362     V6900  20223492022349NN     50000000000000001000000000000000  06                                             0
46007015050000009000619095          00000000000000362     V6900  20223492022349NN     75000000000000001000000000000000  06                                             0
46007015050000009000619095          00000000000000362     V6900  20223492022349NN     84000000000000001000000000000000  06                                             0
46007015050000009000619095          00000000000000362     V6900  20223492022349       90000000000000001000000000000000  06                                             0
46007015050000009000619095                    0000362     V6900S 2022349202234910     50000000000000001                 06                                             0
46007015050000009000619095                    0000362     V6900S 2022349202234910     84000000000000001                 06                                             0
46007015050000009000619095                    0000362     V6900S 2022349202234910     90000000000000001000000000000000  06                                             0
46007015050000009000619095                    000036      V6900S 2022349202234910     50000000000000001                 05                                             0
46007015050000009000619095                    000036      V6900S 2022349202234910     84000000000000001                 05                                             0
46007015050000009000619095                    000036      V6900S 2022349202234910     90000000000000001000000000000000  05                                             0
46007015050000009000619095                       036      V6900S 2022349202234910     50000000000000001                 04                                             0
46007015050000009000619095                       036      V6900S 2022349202234910     84000000000000001                 04                                             0
46007015050000009000619095                       036      V6900S 2022349202234910     90000000000000001                 04                                             0
910070150522349000000000000000000000000000000003000000000098000000        000000098000000000000000000000000000000000000000000000000000000000000000000000000000000       
05104728580032831749000Z  74105172349000204200253000000001215000000005000764000000005000764Corner Store             Visa Direct  TH 541100000     1008N1768580 4 0123500
0511 11         000000                                                          761320000000011999999990000000000007 235010    5 0                           000000000  
0513            CRMP   302349226107377                                                                                                                                  
0514          SD00025 1           2               00000000                                             0000000000000000V001001302234922008273668069140010080672         
051530234922610737700000000500076400        0000 000000000000                              000000000925000C0000000000000000000000000000N             4868760110000025   
05104728580032831749000Z  74105172349000204200295000000001215000000006000764000000006000764Corner Store             Visa Direct  TH 541100000     1008N5516860 4 0123500
0511 11         000000                                                          761320000000011999999990000000000007 235010    5 0                           000000000  
0513            CRMP   302349231403924                                                                                                                                  
0514          SD00025 1           2               00000000                                             0000000000000000V001001302234922008273668069140010080672         
051530234923140392400000000600076400        0000 000000000000                              000000001110000C0000000000000000000000000000N             4868760110000025   
05104728580032831749000Z  74105172349000204200311000000001215000000006800764000000006800764Corner Store             Visa Direct  TH 541100000     1008N6533420 4 0123500
0511 11         000000                                                          761320000000011999999990000000000007 235010    5 0                           000000000  
0513            CRMP   302349232004301                                                                                                                                  
0514          SD00025 1           2               00000000                                             0000000000000000V001001302234922008273668069140010080672         
051530234923200430100000000680076400        0000 000000000000                              000000001258000C0000000000000000000000000000N             4868760110000025   
25104728580032831749000   74105172349000204200311000000001215000000006800764000000006800764Corner Store             Visa Direct  TH 541100000     1008N6533420 4 0123500
2511 11         000000                                                          761320000000011999999990000000000007 235010    5 0                           000000000  
2513            CRMP   302349232004301                                                                                                                                  
2514          SD00025 1                       250200000000                                             0000000000000000V001001302234922008273668069140010080672         
251530234923200430100000000680076400        0000 000000000000                              000000001258000D0000000000000000000000000000N             4868760110000025   
05104728580032831749000Z  74105172349000204200279000000001215000000005000764000000005000764Corner Store             Visa Direct  TH 541100000     1008N5434170 4 0123500
0511 11         000000                                                          761320000000011999999990000000000007 235010    5 0                           000000000  
0513            CRMP   302349227608527                                                                                                                                  
0514          SD00025 1           2               00000000                                             0000000000000000V001001302234922008273668069140010080672         
051530234922760852700000000500076400        0000 000000000000                              000000000925000C0000000000000000000000000000N             4868760110000025   
05104728580032831749000Z  74105172349000204190355000000001215000000006000764000000006000764Corner Store             Visa Direct  TH 541100000     1008N1249390 4 0123500
0511 11         000000                                                          761320000000011999999990000000000007 235010    5 0                           000000000  
0513            CRMP   302349229129635                                                                                                                                  
0514          SD00025 1           2               00000000                                             0000000000000000V001001302234922008273668069140010080672         
051530234922912963500000000600076400        0000 000000000000                              000000001110000C0000000000000000000000000000N             4868760110000025   
3300701505320062CASR051235030234922610737747285800328317490007410517234900020420025376132000000001199999999000000005000764803676490006190959000619094000000005000D1N    
3301000000000925000C             AFT PLAT        23502350OCW SMSDA01 2022121600015             1                                                                        
3300701505320062CASR051235030234923140392447285800328317490007410517234900020420029576132000000001199999999000000006000764803676490006190959000619094000000006000D1N    
3301000000001110000C             AFT PLAT        23502350OCW SMSDA01 2022121600016             1                                                                        
3300701505320062CASR051235030234923200430147285800328317490007410517234900020420031176132000000001199999999000000006800764803676490006190959000619094000000006800D1N    
3301000000001258000C             AFT PLAT        23502350OCW SMSDA01 2022121600016             1                                                                        
3300701505320062CASR251235030234923200430147285800328317490007410517234900020420031176132000000001199999999000000006800764803676490006190959000619094000000006800C1N    
3301000000001258000D             AFT PLAT        23502350OCW SMSDA01 2022121600016             1                                                                        
3300701505320062CASR051235030234922760852747285800328317490007410517234900020420027976132000000001199999999000000005000764803676490006190959000619094000000005000D1N    
3301000000000925000C             AFT PLAT        23502350OCW SMSDA01 2022121600015             1                                                                        
3300701505320062CASR051235030234922912963547285800328317490007410517234900020419035576132000000001199999999000000006000764803676490006190959000619094000000006000D1N    
3301000000001110000C             AFT PLAT        23502350OCW SMSDA01 2022121600015             1                                                                        
910070150522349000000000035600000000000006000004000000000043000000        000000013000000000000000000000000000035600000000000000000000000000000000000000000000000       
46007015050000009000619092001202235012022349              V1100W 9000619092CARDX          Y                                     N          N    840000                 0
46007015050000009000619092001202235022022349              V1100W 1000047788SUM-490733 (I) N                                     N          N    840000                 0
46007015050000009000619092001202235032022349              V1100W 0006490733SCBS 490733 (I)NB000000000000490733                  Y3200320000Y9999840000000              0
46007015050000009000619092001202235032022349              V1100W 0006490733SCBS 490733 (I)NB000000000000490733                  Y4548520000Y9999840000000              0
46007015050000009000619092001202235032022349              V1100W 1000032976SCBS490733-2(I)NB000000000000490733                  Y4367610004Y0002840000000              0
46007015050000009000619092001202235032022349              V1100W 1000032977BOAS490733-2(I)NB000000000000490733                  Y7621970002Y0002840000000              0
46007015050000009000619092001202235032022349              V1100W 1000032978SCBS490733-4(I)NB000000000000490733                  Y4367610004Y0004840000000              0
46007015050000009000619092001202235032022349              V1100W 1000032979BOAS490733-4(I)NB000000000000490733                  Y7621970004Y0004840000000              0
46007015050000009000619092001202235022022349              V1100W 1000047789SUM-490734 (I) N                                     N          N    840000                 0
46007015050000009000619092001202235032022349              V1100W 0006490734SCBS 490734 (I)NB000000000000490734                  Y3200320000Y9999840000000              0
46007015050000009000619092001202235032022349              V1100W 0006490734SCBS 490734 (I)NB000000000000490734                  Y4548520000Y9999840000000              0
46007015050000009000619092001202235032022349              V1100W 1000032980SCBS490734-2(I)NB000000000000490734                  Y4367610004Y0002840000000              0
46007015050000009000619092001202235032022349              V1100W 1000032981BOAS490734-2(I)NB000000000000490734                  Y7621970002Y0002840000000              0
46007015050000009000619092001202235032022349              V1100W 1000032982SCBS490734-4(I)NB000000000000490734                  Y4367610004Y0004840000000              0
46007015050000009000619092001202235032022349              V1100W 1000032983BOAS490734-4(I)NB000000000000490734                  Y7621970004Y0004840000000              0
46007015050000009000619092001202235022022349              V1100W 1000751992SUM-477376 (I) N                                     N          N    840000                 0
46007015050000009000619092001202235032022349              V1100W 1000152284SIAM COMMERCIALNB000000000000477376                  Y3200320000Y9999840000000              0
46007015050000009000619092001202235032022349              V1100W 1000152284SIAM COMMERCIALNB000000000000477376                  Y4548520000Y9999840000000              0
46007015050000009000619092001202235032022349              V1100W 1000157762THE SIAM COMMERNB000000000000477376                  Y4367610004Y0002840000000              0
46007015050000009000619092001202235032022349              V1100W 1000157763THE SIAM COMMERNB000000000000477376                  Y7621970002Y0002840000000              0
46007015050000009000619092001202235032022349              V1100W 1000157764THE SIAM COMMERNB000000000000477376                  Y4367610004Y0004840000000              0
46007015050000009000619092001202235032022349              V1100W 1000157765THE SIAM COMMERNB000000000000477376                  Y7621970004Y0004840000000              0
46007015050000009000619092001202235022022349              V1100W 900061909347285800 (I)   NB000000000000701505                  Y3200320000Y9999840000000              0
46007015050000009000619092001202235022022349              V1100W 900061909347285800 (I)   NB000000000000701505                  Y7015050000Y9999840000000              0
46007015050000009000619092001202235022022349              V1100W 900061910148637200 (I)   NB000000000000701749                  Y3200320000Y9999840000000              0
46007015050000009000619092001202235022022349              V1100W 900061910148637200 (I)   NB000000000000701749                  Y7015050000Y9999840000000              0
46007015050000009000619092001202235022022349              V1100W 9000619386MVISA ORIG SUM N                                     N          N    840000                 0
46007015050000009000619092001202235032022349              V1100W 9000619380425317 INT     NB000000000000425317                  Y7015050000Y9999840000000              0
46007015050000009000619092001202235032022349              V1100W 9000619381425317MVISA INTNB000000000000425317                  Y4253170002Y0002840000000              0
46007015050000009000619092001202235032022349              V1100W 9000619382425317VROL INT NB000000000000425317                  Y7018970002Y0002840000000              0
46007015050000009000619092001202235022022349              V1100W 9000632543410517 SUM     N                                     N          N    840000                 0
46007015050000009000619092001202235032022349              V1100W 9000632544BIN 410517     NB000000000000410517                  Y7015050000Y9999840000000              0
46007015050000009000619092001202235032022349              V1100W 9000632547BIN 4105170002 NB000000000000410517                  Y4105170002Y0002840000000              0
46007015050000009000619092001202235032022349              V1100W 9000632549VROL 410517    NB000000000000410517                  Y7018970002Y0002840000000              0
46007015050000009000619093001202235012022009              V1100W 900061909347285800 (I)   NB000000000000701505                  Y3200320000Y9999840000000              0
46007015050000009000619093001202235012022009              V1100W 900061909347285800 (I)   NB000000000000701505                  Y7015050000Y9999840000000              0
46007015050000009000619101001202235012022009              V1100W 900061910148637200 (I)   NB000000000000701749                  Y3200320000Y9999840000000              0
46007015050000009000619101001202235012022009              V1100W 900061910148637200 (I)   NB000000000000701749                  Y7015050000Y9999840000000              0
46007015050000009000619380001202235012022009              V1100W 9000619380425317 INT     NB000000000000425317                  Y7015050000Y9999840000000              0
46007015050000009000619381001202235012022009              V1100W 9000619381425317MVISA INTNB000000000000425317                  Y4253170002Y0002840000000              0
46007015050000009000619382001202235012022009              V1100W 9000619382425317VROL INT NB000000000000425317                  Y7018970002Y0002840000000              0
46007015050000009000619386001202235012022009              V1100W 9000619386MVISA ORIG SUM N                                     N          N    840000                 0
46007015050000009000619386001202235022022009              V1100W 9000619380425317 INT     NB000000000000425317                  Y7015050000Y9999840000000              0
46007015050000009000619386001202235022022009              V1100W 9000619381425317MVISA INTNB000000000000425317                  Y4253170002Y0002840000000              0
46007015050000009000619386001202235022022009              V1100W 9000619382425317VROL INT NB000000000000425317                  Y7018970002Y0002840000000              0
46007015050000009000632543001202235012022100              V1100W 9000632543410517 SUM     N                                     N          N    840000                 0
46007015050000009000632543001202235022022100              V1100W 9000632544BIN 410517     NB000000000000410517                  Y7015050000Y9999840000000              0
46007015050000009000632543001202235022022100              V1100W 9000632547BIN 4105170002 NB000000000000410517                  Y4105170002Y0002840000000              0
46007015050000009000632543001202235022022100              V1100W 9000632549VROL 410517    NB000000000000410517                  Y7018970002Y0002840000000              0
46007015050000009000632544001202235012022100              V1100W 9000632544BIN 410517     NB000000000000410517                  Y7015050000Y9999840000000              0
46007015050000009000632547001202235012022100              V1100W 9000632547BIN 4105170002 NB000000000000410517                  Y4105170002Y0002840000000              0
46007015050000009000632549001202235012022100              V1100W 9000632549VROL 410517    NB000000000000410517                  Y7018970002Y0002840000000              0
4600701505000000900061909290006190929000619092001840Y     V2110  20223502022350                                                                                        0
4600701505000000900061909390006190929000619092001840Y     V2110  20223502022350                                                                                        0
4600701505000000900061910190006190929000619092001840Y     V2110  20223502022350                                                                                        0
4600701505000000900061938090006193869000619092001840Y     V2110  20223502022350                                                                                        0
4600701505000000900061938190006193869000619092001840Y     V2110  20223502022350                                                                                        0
4600701505000000900061938290006193869000619092001840Y     V2110  20223502022350                                                                                        0
4600701505000000900061938690006190929000619092001840Y     V2110  20223502022350                                                                                        0
4600701505000000900063254390006190929000619092001840Y     V2110  20223502022350                                                                                        0
4600701505000000900063254490006325439000619092001840Y     V2110  20223502022350                                                                                        0
4600701505000000900063254790006325439000619092001840Y     V2110  20223502022350                                                                                        0
4600701505000000900063254990006325439000619092001840Y     V2110  20223502022350                                                                                        0
4600701505000000900061909290006190929000619092001840  Y   V3115  20223502022350                                                                                        0
4600701505000000900061909390006190929000619092001840  Y   V3115  20223502022350                                                                                        0
4600701505000000900061910190006190929000619092001840  Y   V3115  20223502022350                                                                                        0
4600701505000000900061938090006193869000619092001840  Y   V3115  20223502022350                                                                                        0
4600701505000000900061938190006193869000619092001840  Y   V3115  20223502022350                                                                                        0
4600701505000000900061938290006193869000619092001840  Y   V3115  20223502022350                                                                                        0
4600701505000000900061938690006190929000619092001840  Y   V3115  20223502022350                                                                                        0
4600701505000000900063254390006190929000619092001840  Y   V3115  20223502022350                                                                                        0
4600701505000000900063254490006325439000619092001840  Y   V3115  20223502022350                                                                                        0
4600701505000000900063254790006325439000619092001840  Y   V3115  20223502022350                                                                                        0
4600701505000000900063254990006325439000619092001840  Y   V3115  20223502022350                                                                                        0
4600701505000000900061938090006193869000619092001840  Y   V3116  20223502022350                                                                                        0
4600701505000000900061938190006193869000619092001840  Y   V3116  20223502022350                                                                                        0
4600701505000000900061938290006193869000619092001840  Y   V3116  20223502022350                                                                                        0
4600701505000000900061938690006190929000619092001840  Y   V3116  20223502022350                                                                                        0
4600701505000000900063254390006190929000619092001840  Y   V3116  20223502022350                                                                                        0
4600701505000000900063254490006325439000619092001840  Y   V3116  20223502022350                                                                                        0
4600701505000000900063254790006325439000619092001840  Y   V3116  20223502022350                                                                                        0
4600701505000000900063254990006325439000619092001840  Y   V3116  20223502022350                                                                                        0
4600701505000000900061909290006190929000619092001       Y V4120  20223502022350                                                                                        0
4600701505000000900061909390006190929000619092001       Y V4120  20223502022350                                                                                        0
4600701505000000900061910190006190929000619092001       Y V4120  20223502022350                                                                                        0
4600701505000000900061938090006193869000619092001       Y V4120  20223502022350                                                                                        0
4600701505000000900061938190006193869000619092001       Y V4120  20223502022350                                                                                        0
4600701505000000900061938290006193869000619092001       Y V4120  20223502022350                                                                                        0
4600701505000000900061938690006190929000619092001       Y V4120  20223502022350                                                                                        0
4600701505000000900063254390006190929000619092001       Y V4120  20223502022350                                                                                        0
4600701505000000900063254490006325439000619092001       Y V4120  20223502022350                                                                                        0
4600701505000000900063254790006325439000619092001       Y V4120  20223502022350                                                                                        0
4600701505000000900063254990006325439000619092001       Y V4120  20223502022350                                                                                        0
4600701505000000900061909290006190929000619092001       Y V4130  20223502022350                                                                                        0
4600701505000000900061909390006190929000619092001       Y V4130  20223502022350                                                                                        0
4600701505000000900061910190006190929000619092001       Y V4130  20223502022350                                                                                        0
4600701505000000900061938090006193869000619092001       Y V4130  20223502022350                                                                                        0
4600701505000000900061938190006193869000619092001       Y V4130  20223502022350                                                                                        0
4600701505000000900061938290006193869000619092001       Y V4130  20223502022350                                                                                        0
4600701505000000900061938690006190929000619092001       Y V4130  20223502022350                                                                                        0
4600701505000000900063254390006190929000619092001       Y V4130  20223502022350                                                                                        0
4600701505000000900063254490006325439000619092001       Y V4130  20223502022350                                                                                        0
4600701505000000900063254790006325439000619092001       Y V4130  20223502022350                                                                                        0
4600701505000000900063254990006325439000619092001       Y V4130  20223502022350                                                                                        0
4600701505000000900061909290006190929000619092001      0Y V4135  2022350202235020223352022350                                                                          0
4600701505000000900061938090006193869000619092001      0Y V4135  2022350202235020223352022350                                                                          0
4600701505000000900061938190006193869000619092001      0Y V4135  2022350202235020223352022350                                                                          0
4600701505000000900061938290006193869000619092001      0Y V4135  2022350202235020223352022350                                                                          0
4600701505000000900061938690006190929000619092001      0Y V4135  2022350202235020223352022350                                                                          0
4600701505000000900063254390006190929000619092001      0Y V4135  2022350202235020223352022350                                                                          0
4600701505000000900063254490006325439000619092001      0Y V4135  2022350202235020223352022350                                                                          0
4600701505000000900063254790006325439000619092001      0Y V4135  2022350202235020223352022350                                                                          0
4600701505000000900063254990006325439000619092001      0Y V4135  2022350202235020223352022350                                                                          0
4600701505000000900061909290006190929000619092001       Y V4140  20223502022350                                                                                        0
4600701505000000900061909390006190929000619092001       Y V4140  20223502022350                                                                                        0
4600701505000000900061910190006190929000619092001       Y V4140  20223502022350                                                                                        0
4600701505000000900061938090006193869000619092001       Y V4140  20223502022350                                                                                        0
4600701505000000900061938190006193869000619092001       Y V4140  20223502022350                                                                                        0
4600701505000000900061938290006193869000619092001       Y V4140  20223502022350                                                                                        0
4600701505000000900061938690006190929000619092001       Y V4140  20223502022350                                                                                        0
4600701505000000900063254390006190929000619092001       Y V4140  20223502022350                                                                                        0
4600701505000000900063254490006325439000619092001       Y V4140  20223502022350                                                                                        0
4600701505000000900063254790006325439000619092001       Y V4140  20223502022350                                                                                        0
4600701505000000900063254990006325439000619092001       Y V4140  20223502022350                                                                                        0
4600701505000000900061909290006190929000619092001       Y V4210  20223502022350                                                                                        0
910070150522349000000000000000000000000000000005000000000126000000        000000126000000000000000000000000000000000000000000000000000000000000000000000000000000       
4600701505000000900061909390006190929000619092001       Y V4210  20223502022350                                                                                        0
4600701505000000900061910190006190929000619092001       Y V4210  20223502022350                                                                                        0
4600701505000000900061938090006193869000619092001       Y V4210  20223502022350                                                                                        0
4600701505000000900061938190006193869000619092001       Y V4210  20223502022350                                                                                        0
4600701505000000900061938290006193869000619092001       Y V4210  20223502022350                                                                                        0
4600701505000000900061938690006190929000619092001       Y V4210  20223502022350                                                                                        0
4600701505000000900063254390006190929000619092001       Y V4210  20223502022350                                                                                        0
4600701505000000900063254490006325439000619092001       Y V4210  20223502022350                                                                                        0
4600701505000000900063254790006325439000619092001       Y V4210  20223502022350                                                                                        0
4600701505000000900063254990006325439000619092001       Y V4210  20223502022350                                                                                        0
4600701505000000900061909290006190929000619092001       Y V4215  20223502022350                                                                                        0
4600701505000000900061909390006190929000619092001       Y V4215  20223502022350                                                                                        0
4600701505000000900061910190006190929000619092001       Y V4215  20223502022350                                                                                        0
4600701505000000900061938090006193869000619092001       Y V4215  20223502022350                                                                                        0
4600701505000000900061938190006193869000619092001       Y V4215  20223502022350                                                                                        0
4600701505000000900061938290006193869000619092001       Y V4215  20223502022350                                                                                        0
4600701505000000900061938690006190929000619092001       Y V4215  20223502022350                                                                                        0
4600701505000000900063254390006190929000619092001       Y V4215  20223502022350                                                                                        0
4600701505000000900063254490006325439000619092001       Y V4215  20223502022350                                                                                        0
4600701505000000900063254790006325439000619092001       Y V4215  20223502022350                                                                                        0
4600701505000000900063254990006325439000619092001       Y V4215  20223502022350                                                                                        0
4600701505000000900061909290006190929000619092001       Y V4230  20223502022350                                                                                        0
4600701505000000900061909390006190929000619092001       Y V4230  20223502022350                                                                                        0
4600701505000000900061910190006190929000619092001       Y V4230  20223502022350                                                                                        0
4600701505000000900061938090006193869000619092001       Y V4230  20223502022350                                                                                        0
4600701505000000900061938190006193869000619092001       Y V4230  20223502022350                                                                                        0
4600701505000000900061938290006193869000619092001       Y V4230  20223502022350                                                                                        0
4600701505000000900061938690006190929000619092001       Y V4230  20223502022350                                                                                        0
4600701505000000900063254390006190929000619092001       Y V4230  20223502022350                                                                                        0
4600701505000000900063254490006325439000619092001       Y V4230  20223502022350                                                                                        0
4600701505000000900063254790006325439000619092001       Y V4230  20223502022350                                                                                        0
4600701505000000900063254990006325439000619092001       Y V4230  20223502022350                                                                                        0
46007015050000009000619092          001840 Y              V5300  20223502022350                                                                                        0
46007015050000009000619093          001840 Y              V5300  20223502022350                                                                                        0
46007015050000009000619101          001840 Y              V5300  20223502022350                                                                                        0
46007015050000009000619380          001840 Y              V5300  20223502022350                                                                                        0
46007015050000009000619381          001840 Y              V5300  20223502022350                                                                                        0
46007015050000009000619382          001840 Y              V5300  20223502022350                                                                                        0
46007015050000009000619386          001840 Y              V5300  20223502022350                                                                                        0
46007015050000009000632543          001840 Y              V5300  20223502022350                                                                                        0
46007015050000009000632544          001840 Y              V5300  20223502022350                                                                                        0
46007015050000009000632547          001840 Y              V5300  20223502022350                                                                                        0
46007015050000009000632549          001840 Y              V5300  20223502022350                                                                                        0
4600701505000000900061938090006193869000619092001       Y V4640  20223502022350                                                                                        0
4600701505000000900061938690006190929000619092001       Y V4640  20223502022350                                                                                        0
4600701505000000900063254390006190929000619092001       Y V4640  20223502022350                                                                                        0
4600701505000000900063254490006325439000619092001       Y V4640  20223502022350                                                                                        0
4600701505000000900063254790006325439000619092001       Y V4640  20223502022350                                                                                        0
4600701505000000900063254990006325439000619092001       Y V4640  20223502022350                                                                                        0
46007015050000009000619092          00000000000000011     V6900  20223502022350NN8060N10000000000000001000000000000000  08                                             0
46007015050000009000619092          00000000000000011     V6900  20223502022350NN8060N45000000000000001000000000000000  08                                             0
46007015050000009000619092          00000000000000011     V6900  20223502022350NN8060N84000000000000001000000000000000  08                                             0
